:20000000004000204D66010001C9011001C9011001C9011001C9011001C9011001C90110AA
:1C00200001C9011001C9011001C9011001C9011001C9011001C901103FC9011089
:20003C0080B540F21C420FF2A001214810F01CF80121204801720221002241760270032230
:20005C001D490A700422CA700521417706201B491B4A08700721117001BD2DE9F0410FF250
:20007C00844218493820136854689568D6681769D2F814C0D2F818E0D2F81C800B604C6016
:20009C008D60CE600F61C1F814C0C1F818E0C1F81C8020322031401EE5D110685368946840
:2000BC00D26808604B608C60CA60BDE8F08100004804002151030021C1030021740300214C
:2000DC009803002100C0002115050021CB06002123070021750400218104002199040021F1
:2000FC00090800211D08002170B51D46004C204787B200007046000A054AC42804D01047D2
:20011C00034AE4320120049002490020087010479D670000DC01002103490888034A71468F
:20013C00904200D0891C08478A0100210414000010B5014800470000D509000070B5C00130
:20015C00004C2047D5460000F8B5B74CB748254660352F7B00262E7380472F73697B014304
:20017C0017D1002F15D0617E00290ED0214620310A7C5308DB0700D12676236A497B002B1D
:20019C0001D104231943114202D0217DC90600D4E675F8BD0188A64A8918032906D8A54867
:2001BC007C210185A449416201207047A34908479D4830B4014640310A7C022A16D10268D9
:2001DC00D2794A7502689368024680329360487D02280BD0002809D0C41E062C09D8954909
:2001FC00800040184038806B18189060944830BC00470320C002C8800220087230BC0320A1
:20021C00704770B5884804464034A57D012D12D0017D4906CA0F80210A54217C00290AD1E0
:20023C00603040788008C00702D0E07C000702D50120A07500E00020A07382488047A5750B
:20025C0070BD70B5784C8048254650358047022809D14034E1887D4A914204D1E97C8906A9
:20027C0001D4911DE18070BD70B56F490A8908465030D2B2282A07D10A68D2684261937A09
:20029C00D27A12029A1802830378714A002B10D08379012B0DD1037C5B09DB0709D0097D40
:2002BC006C4DC1746C7F20202043687790476C7770BDFF21C174904770BD10B566485A4C6E
:2002DC00804702280ED121464031CA885F4B9A4208D1CA7C5209D20704D0227D920601D44F
:2002FC009A1DCA8010BD70B54F485C494030C07C4009C00707D0574D59482C8B2043288316
:20031C0088472C8370BD884770BD70B5464C5549264640363579A8004018C06880470A2D0F
:20033C00214610D054310A789309DB0704D0B2730A7803231A430A702189CAB22B2A01D30E
:20035C002839218170BD5331EDE73749403108711E2822D008DC082813D00A2813D00B2818
:20037C0013D0182808D112E0252812D02A2812D03C2808D03D2812D03A4980004018C0680A
:20039C00704739487047394870473948704739487047394870473948704739487047394881
:2003BC007047F8B50746204C4E20005D8509EE07FB25002E17D0267D3407240F052C03D06C
:2003DC000124204202D012E00224FAE7C00905D0700603D54868800F012808D05B085B00C5
:2003FC005208520003E0002801D02B402A40062B03D01020022B10D010E002232A40384646
:20041C00FFF772FE002807DAC200B91A2039497E1422114200D10020F8BD02430343384664
:20043C00FFF762FEF8BD00004401002167A70000D5E7FFFFEC000021579600006396000074
:20045C0075D50000F3BC000037CB000004140000EBC80000A8000021F5B4000053AD000048
:20047C002020000080DF0000C90400218B060021670600213B060021E9050021C305002139
:20049C00830500213105002110B5034CFFF750FE20680028FAD110BD0011044010B50D4831
:2004BC00846B406B4101E004C00E014372B60A4B186882B2581510431860084880681A6033
:2004DC0062B6074A5379902253432207120FFFF735FE10BD80500440000004400040044067
:2004FC008002002168610000F825F965F9754500450045002600260057A3520052004C0086
:20051C00401F401F401F3F0000000000304000400140034007400F404F40CF40CF41CF43D9
:20053C00CF47CF4FCF3FCF2FCF1FCF0F000000000000000000000F00080000003F0000003D
:20055C0040003F000000040068000E00DC00060043001A0005000000000002000000000040
:20057C00000000000400C00000000400C000000007000000000000000000000000000000D0
:20059C0000000000304000400140034007400F404F40CF40CF7FCF6FCF5FCF4FCF3FCF2FF3
:2005BC00CF1FCF0F000000000000000050C00091007070C00091007082312100319110B1BA
:2005DC000070018101B100A18231329110B101911110418141227740F106007051C00191EA
:2005FC0030181039833108D01831416F3100319110B18314141683680070251050C0009123
:20061C00F4C340C12014036F311041045082F0229840512622C082312100319110B16339D2
:20063C003110410482C082312100319110B163393110A2C082312100319110B15010153143
:20065C00051405920070676452C0311031066131C1026A6412C13110213971065131E1029C
:20067C006A64007051C0019101CCE2C06A64676411C1C2C06A6450B054B0007140804022BC
:20069C00D6440022C94060B08180111EC944007054A064B0F0800022C9404012B09032B025
:2006BC0070C1DF6811C122C16A6470C1E46851C00191E2C0823160820200329110B130C254
:2006DC00EE68538253395339B16460C3F4688012B09032B00070676401C122C16A6401C103
:2006FC00C2C06A645382B164C012B09032B00070676472C281C06A6422C111C16A6402C0ED
:20071C0011C16A6462C031C36A6462C311C16A6402C311C16A6453825339B164E2C36F6421
:20073C0011221C4142C281C86A6452C211C16A6472C2E1CE6A6402C281C86A6402C201C825
:20075C006A64B0C030690070676442C201C86A6452C211C06A6472C2E1C06A6402C001C1F6
:20077C006A6462C001C36A6422C101C16A6462C301C16A6402C301C16A645382B164007004
:20079C008180111E5C4150B054B00071408040225D4154A064B0F180012251450070002277
:2007BC00514160B04E610000000000000000000000000000067305720B720E7250B000716E
:2007DC00818060B050A09280F0EFF19202936A6741228C458080F1C11004301601110114BB
:2007FC00016CB561B661B761B861B961BA61BB61BD61BF61C161C36126632D63F0C002046E
:20081C003231412A1214321601112114016CDA61C561E061C761CB61B561B561B561F4613F
:20083C00C561FA61C761CB61B561B561B561F461C561FA61C761CB61B561B561B561E761D1
:20085C00C561ED61C761CB61B561B561B561CF61CF61CF61CF61CF61CF61C064CF61F964A1
:20087C00CF610665CF613265CF617467CF611166CF61C0644E65F964CF610665116632653B
:20089C00CF618280E0DFF2926A67B0B0D661B1B00673057230B06C61D0CF6A6784C203C0E8
:2008BC00C0C37C64207851788278E3781579B6780062C0CF6A6784C203C0C0C37C64307871
:2008DC0061789278F3781579C6780062B0CF6A6784C203C0C0C37C6440787178A27803798D
:2008FC001579D67810922192329243925492659256911FC0FF914039F006011010311014FA
:20091C0000927067CF61E3B054A0F08050221A4640800022BE461262E3A000C860915981E9
:20093C0050B0918041228E46A0CF6A6712828231823942398B641282F2062F101F312F1449
:20095C001682D622334640C1346200C520140D6F6D39DE10F4C34E0482C082312E006D3900
:20097C00A2C082312D001A828A39FA062082803180390BC00B18BC10AC18038239149B14AF
:20099C001082F006011010311014518110140C14C622C94631D0C1266462021011C001306E
:2009BC0010C00118021882312100C126919103B013B063B053B041800122BE46B481C4913D
:2009DC00D581B51C774E95186591F080102269428C623D9110B13E9110B1E08000228146C9
:2009FC00E6228142E0B0951865910F925981F914F0805022114210228C464D6390CF6A673C
:200A1C0063B052A03082F2C02004021011C0013010C00118021882312100C1269191919117
:200A3C0013B003B063B053B064B054B0007141800122BE4663B064B0F08050221142B1810F
:200A5C00C191D1819118619131B0A4622967E0A059810582591480C0007163B0BA6A6962C3
:200A7C00E3A0018262818231823D80EFF19202936A6703A000703782473987393082803930
:200A9C00F006021011C0013010C00118021882312100C126819102B012B030824039F006CB
:200ABC00021011C0013010C00118021882312100C126919103B013B063B053B0007153A036
:200ADC0062B052B041800122BE46A481C491D581B51CFE4E95186591F0801022F0428C62AC
:200AFC00B481C491D4814518751C084FF0801022F0428C623D9110B13E9110B1E080002253
:200B1C001247E6221243E0B065910F925981F914F0805022114210228C4630632967E0A019
:200B3C00598105825914F0C0007162B0226BF062A2808B64CF6112824239F2068B6050B086
:200B5C000071CF6170CF6A67408241800122BE46A481C491D58195186591F18011228C4635
:200B7C00336B41800122BE46A481C491D581C51C1C4B95186591F08010223F438C6260CFD7
:200B9C006A67408241800122BE46B481C491D58195186591F18011228C46506B4180012226
:200BBC00BE46B481C491D581C51CB44A95186591F08010225C438C62E092D08200226B47EC
:200BDC00C0B20070A080F022874330B002C1623101C0A080001E8043F022814380F8603144
:200BFC00603981632010101A136F236E11161216826B00702DE9F047DFF8A0916849694E86
:200C1C0089F80000002008600921674801700D2141804FF48A71818064480660B77E644844
:200C3C000770FF2FF17E417008BFFF29327F8270737FC370B57F0571F67F467114D1FF2A38
:200C5C0008BFFF2B10D1FF2D08BFFF2E0CD159490A7802704A7842708A788270CA78C27037
:200C7C000A7902714979417153490278534D544EDFF850810A7042784A7082788A70C278D2
:200C9C00CA7002790A7140794F4A4871FF2028706870A870E8702871687100204B49088050
:200CBC00776B4B497878087039781170B87849490870796908794849421E0A70F878474900
:200CDC0088F80000B869086008B918F061FCF869434C206008B918F05BFC2068DFF804A135
:200CFC0001688847216851F8042F504690473E483E49CAF820003E48CAF82400386A0860C9
:200D1C0008B918F045FC786A3A4C206008B918F03FFCB86A3849086008B918F039FC0BF0BD
:200D3C0025FF07280CD10FF055FE99F800004FF480410CF0B1F9BDE8F047002018F028BCF2
:200D5C002E480168884721680A6807469047226852F8041F00208847F16898F800000A8849
:200D7C00274B284902431A8038460A6890470C21254800F04DF8284600F04EF800F050F823
:200D9C002248002101604FF6FF7181804FF4005199F80000BDE8F0470CF07EB96E4F002084
:200DBC00044F0020B63F0050604E0020084F00202C4E0020E81200503C4E0020344E0020EA
:200DDC0040C001006C4F00207B4F00200C4F00206D4F00206B4F0020724F0020F04E0020C1
:200DFC00F44E00207C4B002009A40100F84E002029A40100FC4E0020283C00205C0C002036
:200E1C00544F0020600C0020F84D0020E03B0020DFF800F0E5710110DFF800F01D6E011036
:200E3C00DFF800F04D7101102DE9F04FADF1240D079009F0D1FE6048007817F08DFE5F4D1F
:200E5C000024012806D90C3804D0401E0ED0401E09D006E018F032FF022804BF01210C1C69
:200E7C0006D0696805E005211F2401E0032107246960534A1068C0F38150012806D152F885
:200E9C000C0C0127020E07FA02F0044319F042FA524AFF234018401E471C28607F1E02F871
:200EBC00013BFBD1079A1268002702F0FF03FE2B20D0DDF81CC096463B4601260EF0FF028B
:200EDC00FF2A10D0904205D3914203D806FA02F2144201D002206CE017430EF0FF02DFF8DC
:200EFC00FCE00EF802305CF804EF5B1C0EF0FF02FE2AE5D109200DF0A1FD07980121A8609A
:200F1C0005F1280017F020FC05F19806A8464FF0010A4FF0040B0025A9460AFA05F0044207
:200F3C0016D1074204BF05F0FF0141F4C04104D02A480799405D51F8201022480BF086FE92
:200F5C00E8B24FF0FF3118F0DFFCC6F8009001E0C6F800B0D8F800006D1C361D8542DCD9C4
:200F7C0004A819F093F9184C184A2078102104AB059008F10C0015F0CFFF684619F0DAF9DF
:200F9C00CDF80C906A4660681149029008F1640016F0F2F80F4951F80D0C20F4F85040F4D9
:200FBC00005041F80D0C0C4FC1F8FFAF4846C7F800A009B0BDE8F08F5D3C002038030020D3
:200FDC00B43F0050007FC76788BF010041990100B56A01000D300940080009407C0300204C
:040FFC0030BF70474B
:20100000B41200001810000015AB0110FDB301106DC00110FDAE011099B5011059BA0110D3
:0810200039BA01102D00000097
:20102800B01200003C100000B1C00110A9BF011067C0011069B80110B9B9011099B901104F
:041048003000000074
:20104C00B012000060100000BDC00110CDB30110D9BD01106DB301108DB80110D9B9011062
:04106C00310000004F
:2010700000000000CC0D002004000000000000000000000020000000E8C901103000000051
:2010900028100000D40D00200400000000000000000000000C000000D8CA0110180000002C
:2010B0004C100000DC0D002004000000000000000000000024000000F0CA011018000000B0
:2010D00000000000E40D00200400000000000000000000001000000018CA01102C000000BC
:2010F00000100000F40D0020040000000000000000000000200000006CCA01102400000020
:20111000FFFFFFFFFC0D00200400000000000000000000002800000090CA011024000000DF
:20113000FFFFFFFF040E00200400000000000000000000001400000008CB0110180000005D
:20115000FFFFFFFF0C0E002004000000000000000000000058000000B4C90110340000002B
:20117000FFFFFFFF140E00200400000000000000000000001000000020CB011018000000F9
:20119000FFFFFFFF1C0E00200400000000000000000000001C000000B4CA01102400000026
:2011B000FFFFFFFF240E00200400000000000000000000003800000044CA0110280000004E
:2011D000FFFFFFFF2C0E00200400000000000000000000005400000078C901103C000000C3
:0811F00002000000A0BF010095
:0411F80001000000F2
:0411FC0000000E00E1
:0412000000000F00DB
:0412040032000000B4
:0412080001000000E1
:04120C009C0B002017
:0412100000020000D8
:0412140000000000D6
:0412180001C90110F7
:04121C0000000000CE
:0412200000000000CA
:0412240008000000BE
:0412280000002200A0
:04122C004C09002049
:0412300000000000BA
:0412340000000000B6
:0412380008000000AA
:04123C00440B00203F
:0412400000000000AA
:0412440000000000A6
:04124800080000009A
:04124C00000000009E
:04125000000000009A
:041254000000000096
:041258000000000092
:04125C00010000008D
:04126000180A002048
:041264000600000080
:041268000100000081
:04126C007C080020DA
:04127000000000007A
:041274000000000076
:041278000002000070
:04127C00000000006E
:02128000290043
:02128200010069
:02128400250043
:02128600300036
:02128800310033
:02128A002D0035
:02128C0001005F
:01128E00015E
:08129000030000005CBF010037
:0812980000000000000000004E
:0412A0000000010049
:0412A4000000030043
:0412A80013C401105A
:0412AC0073A001002A
:0412B000B812000070
:0412B400B81200006C
:0412B8000000000032
:0412BC00540D0020AD
:0412C0006DA201001A
:0412C4002000000006
:0412C80044BE01001F
:0412CC0068BC0100F9
:0412D00029C101101F
:0412D400CF3F010007
:0412D800234B0100A3
:0412DC00A1C7011095
:0412E000A3C701108F
:0412E4000000000006
:0412E800BFBF010083
:0412EC00E0BA010063
:0412F000F8BA010047
:0412F400C8BA010073
:0212F8000200F2
:0212FA000900E9
:0212FC000100EF
:0212FE000000EE
:0113000001EB
:04130400E1A1010062
:04130800917A0100D5
:04130C001D9201002D
:04131000AD7F0100AC
:04131400C97A010091
:041318006564010007
:04131C00C1100100FB
:041320005BA50100C8
:04132400154A010065
:0413280015C70110D4
:04132C0025C70110C0
:201330002DE9F04F85B0804611F8010BDFF8FC27009008F1FD00009B182B08F1E70508F1FC
:20135000660A08F20D1B08F5B07408F1860908F59C7608F5C67700F2D683DFE813F01900CB
:201370006E007F018B00D403D403F400AF0306011C01F70003014601D403D4039F01D40305
:2013900083016901BB03060306035E02D403A90211F8010B89F80000022208F1880019F059
:2013B00015FE0146022208F18A0019F00FFE0146022208F18C0019F009FE0146022208F1A2
:2013D0008E0019F003FE99F80010B9F80220490089F800105200B9F80410A9F802204900F4
:2013F000A9F804100222B9F808100901A9F80810014608F1840019F0E9FDBAF81E10B8F835
:201410000800091A89B247F6FF72914229DAB9F80600B9F80410B9F80820401C490048434D
:20143000904201D33B201AE101208AF81C000020A8F81E000120307074E3052208F161006A
:2014500019F0C4FD0146022208F1920019F0BEFDB9F80C10B8F80800091A89B247F6FF7267
:20147000914280F25082012189F80A100020A8F81E0078E2A87DC20709D4687B1A2101283E
:20149000A97302D1FF220D213BE00D210AE200208AF8000008220120687408F1A80408F162
:2014B000B00019F093FD0146022208F1B80019F08DFD01460822204619F088FD064608214A
:2014D000204619F07FFD08F19C0404223146204619F07CFD0421204619F074FD08F1A00055
:2014F00019F06CFD08F1980019F064FDDFF84006018841F080010180687B012807D1FF2291
:201510000421404605B0BDE8F04F10F09FBE9AF811500F2D18BF142D03D00E2D18BF0C2DB5
:201530000FD19AF81040404613F028FC0421404611F09AFE012C12BF29468AF81A50FD2171
:20155000B0E10421AEE10120E873EBE200208AF800008AF8060028700B21012068730020E3
:2015700068709FE101202874DCE2002302F10904CD5CE45C2543CD54541CE45C2540C55445
:201590005B1C082BF2DB9AF80600002846D0404611F0D6FEBCE2002302F10907CE5CFF5C4A
:2015B0003E43CE54571CFF5C3E40C6545B1C082BF2DB02206875E87D010703D440F64800DA
:2015D000A081E08150788106CED520891B2804BF61891B2907D1A089B0F5A47F04BFE189B4
:2015F000B1F5A47FC0D014215CE19BF80000012811D011F8012B8BF8032008F5897002227E
:2016100019F0E4FC0146022208F58A7019F0DEFC01208BF800009AF80600002800F0AB810C
:201630009BF8021000292CD1404611F091F96FE2A87DDFF80045C10609D412218BF80C10B6
:20165000404613F051FD00281BD1207863E2404614F052F9002814D120785CE208788BF8F7
:201670000B008BE108782070487860709AF8100001280DD19AF811100F39012902D9C91FB2
:2016900002D04FE270734DE2387B40F0010038E205B0BDE8F04F002017F080BFA87DDFF82C
:2016B0009444820709D40F218BF80C10404613F01BFD0028E7D120782DE208784A7800EBB8
:2016D00002203082CA78887800EB022070824A79087900EB0220B082CA79887900EB022011
:2016F000F082087A30768A7A487A00EB022070830A7BC87A00EB0220B0838A7B487B00EBC0
:201710000220F0830A7CC87B00EB022030848A7C487C00EB022070840A7DC87C00EB0220F7
:20173000B084487D897D00EB0120F084DFF8080401788A0658BF1A2213D508F5AA70049048
:20175000708B0390307E0290B8F808000190F08A0090B38A728A318A404610F0B5FDA0B1DB
:201770001E22A87D410709D40F218BF80C10404613F0BAFC00284DD12078CCE1404605B0FB
:20179000BDE8F04F0F2116F07FB8708AA9F80400B08AA9F80600F08AA9F80800022089F8A2
:2017B00000000020A9F80200B8F83400C01DAAF81E00B8F83210B9F80400B0EB510F02BF72
:2017D000B9F80600B8F83410884202BFB9F80800B8F83610B0EB111F1DD09AF81000012891
:2017F00004BF9AF811100F2907D09AF8150020B10F218AF81A10FE2154E0FC21404611F009
:2018100033FDF08A0090B38A728A318A98F8060019F0CCFB86E1102144E0E87D10F0090FEB
:2018300003D116218BF80C106FE148780A7800F0070002400A7008787A7B0240FA7210D0A6
:20185000501E02420BD0510704D5B87B10B10421F97204E00220024219D14008FBD1F87A7C
:2018700008B9B97AF972F87A042803D1404612F0E3FFA083F87A19F095FB3871A28BB97BE5
:20189000012314F0EBFC218B814202D208E0F872E5E7A28BB97B3879012314F0DFFC01466C
:2018B00079801721404605B0BDE8F04F11F0DCBC48780A78824207D100F007001040087092
:2018D0002ED0431E18420FD01E221821404615F0DBFF98F80610012301221E200CF02CFE31
:2018F000387B40F040000CE1F87247F6FF728878C97800EB012038813989B8F80800091A0D
:2019100089B2914201DB282136E00120B871F87A042803D1404612F08FFFA083F87A0BE01C
:201930009AF81100162806D1BB7A98F806101A4600200CF001FEB87A3871A28BB97B38799C
:20195000012314F08BFC218B814206D3A28BB97B3879012314F082FC014679800121387BB3
:2019700040F0400038733170DCE0142B04BF9AF80600002806D13D218BF80B1001208BF8A6
:201990000A00CFE008784A7800EB02206082CA78887800EB0220E0824A79087900EB02204B
:2019B00020828879C97900EB0120A08208F5B07108F5B0708A8AC089B97A904288BF1046CA
:2019D000042905D140F691229042B8BF4FF42960E28BE0839042B87A14BF012500250428D8
:2019F00003D1404612F028FF08E008F5B07008F5B0718089CA8A904288BF1046A28BA08315
:201A100008F5B071904208F5B0704A8A008918BF0125904288BF1046228B2083904218BFE7
:201A30000125A28BB97BB87A012314F017FC218B814206D3A28BB97BB87A012314F00EFC95
:201A50000146798008F5B07008F5B0724189108A628B814288BF01466183914298F80630DB
:201A700014BF0120002005438A4234490A6802EB4311628B8041121DC00F0A7610B140468B
:201A900016F0D6F9009814280ED145B1E08B0090638BA28B218B98F8060019F07FFA1521A8
:201AB00040460FF08DFE33E01DB1387840F008003870397841F02001397033E008780E2820
:201AD0000ED00F2809D0122804D014280BD0162811D027E00020307224E00120307321E032
:201AF000032068751EE0387840F00200387040F01000387016E0387B40F00200387340F0B0
:201B1000100038730EE08BF80C30404613F0ECFA40B9084800784FF4804105B0BDE8F04F80
:201B30000BF0C0BA05B0BDE8F08F00BF2C3B0020524F00206E4F0020144E00201C3C002069
:201B50002DE9F84F012016F0C1F9012819D1DFF87046207800210BF0D5FE5FEA000804BFFC
:201B7000002017F01BFD002088F8080008F1040012F0A6FB05F078FF050003D1812019F0DF
:201B900009FA18E301206871DFF838064178491C4170A879DFF8301688F80A002078087081
:201BB00005F5977440200DF009F92860D8F854104A78D8F85000D1061AD5806D01680A7974
:201BD000032A1CBF002017F0E9FCD8F85000816D90F87C000A6802F1080601281CBF002038
:201BF00017F0DCFCD8F85000D0F88410286845E0C16E08680279032A1CBF002017F0CEFCB2
:201C1000D8F85000C16E90F898000A6802F1080601281CBF002017F0C1FCD8F85000DFF8F3
:201C3000AC25D0F8A0102868DFF8A495C16096F826701388032F21D8DFE807F002051018B3
:201C500001F5B06101E001F53471C160B9F80000E087B9F80000A5F8740112E0E387118800
:201C7000A5F87411C16801F5355109E0E3871188A5F87411C16801F6B87101E001F5B0614E
:201C9000C1603078DFF84C95DFF84CB5C0F3801020700622B11C05F5947018F0F9F80422F6
:201CB00006F10E0105F1240018F0F2F8D9F80000AF7900F10C03042206F10E0103EB471098
:201CD00018F0E6F8D9F80000AB7900EB4310032206F11201103018F0DBF805F12C07707D7B
:201CF000B870022206F1160105F1300018F0D0F8022206F1180105F1320018F0C9F802223B
:201D100006F11A0105F1340018F0C2F838896884022206F11C0105F1360018F0B9F8B878BB
:201D300079894000B8700901B88879814000B88089B2F8884000F88003046A8C521CDB0BA9
:201D50005A438A4201D280B230B99BF8000080210BF0A8F93B2142E105F12E01284617F033
:201D70004DFC0520A881284617F060FE052206F11E0105F1610018F08BF896F823004009D0
:201D9000387017F08FF96882B8F82A10401AA08105F1610196F82300DFF8404400F01F003A
:201DB000F873284614F09DFDD8F854104A78D8F85000D10647BF0021806D0021C06E1C260A
:201DD0000268117141F62102A9792068714342520022A97971430144001D4A80A9797143C1
:201DF0004250D8F85410DFF8F8034A78D1060DD5DFF8F0138A7851060AD5DFF8EC130A8846
:201E100041F20A439A4208BFDFF8E003C5F89C01D5F89C11284688472168AB7901F10E0215
:201E30007343D054A9792068714308440021C173DFF8BC03017881B1B88870B90021797302
:201E50000120288168812846D5F89C1188472168AB7901F10E027343D054A8792168704322
:201E700001F10E02125C7A73D8F854104A78D1061CD505F5CB7A9AF8000008B917F08EFB15
:201E9000A9792068714308449AF800104A1E0274A979206871430844002141742068AA79DD
:201EB00000F112017243002088522AE0D8F85010236891F8402018440274A9792068714381
:201ED0000844D8F8501091F841204274D8F850002168AB79403001F1120273434188D152F1
:201EF00005F5CB710078012200F0030082400A70D8F8502092F84000800814BF012002202A
:201F10000871A979D9F800002268DFF8E8A200EB411302F1140C71434CF80130A979714309
:201F30001144B54A8A61DAF81410097895F806E0CA074CBF102200228B074CBF2023002335
:201F50005FEA417C4CBF4FF0400C4FF0000C09074CBF8021002113434CEA030308304FEAAA
:201F70004E1E0B4343F00F0300F80E30D9F80000A97900EB41100B224272D9F80010A8790A
:201F900001EB401104228A729C4A1378D9F80000A979012B00EB411002D10121C17203E0FB
:201FB000DAF828104A78C272D9F80000A97900EB41101F220276D9F80010A87901EB4011EA
:201FD00000224A76A8790CF0A1FEA979D9F8002049015050A9794B01D05820B90721284651
:201FF00017F0D5F9E7E08648026802EB011018F0CDFF834AA8791368D9F8001003EB0013E0
:202010000A1D40011350081DAA7952018058F863A87940010958796404219BF800000BF0C4
:2020300041F8D8F8540042782168D00648BF4FF0020B0BD4A87970430844007C00F0030059
:20205000022814BF4FF0040B4FF0060B684BBA881878934410B10AB9F8888344688A00FBC1
:202070000BF04FF4C872B0FBF2F2521CC5F818B06A6140F6C41CA8792B687043009001F18C
:20209000080ED8680CFB0B0B0098ABEB0202A2F5A8624EF8002001F10800AA7972438058DA
:2020B000986001F10C02A87970430C31125C02F0EF020A54A8792168704301F10C020C31BE
:2020D000125C02F07F020A54A8792168704301F10C020C31125C02F0F00242F002020A5431
:2020F000A979206871430844417B01F0F00141F0010141732068AA7900F108017243885867
:20211000296808616B69D9F80000A97997F802E05B0000F1140249010CFB0E3303F5F66338
:20213000535095F89611042907D1A979490100F11403525802F561625A50A97900EB4110D3
:20215000C27C02F0F00242F00402C274FB88D9F80010A879DAF8307001EB40123868434384
:202170006427B3FBF7F30CFB03F0A0F59660D061A87901EB4010C17E01F0F00141F00401C2
:20219000C176A97920684E432968801948600E21284611F069F81B4907200870404617F05C
:2021B00025FFAA790021404612F0BCFD28681649416116498161BDE8F14F03F03DBD00BF03
:2021D000593C0020684E00205A3C00204A3C0020483C00201C3C00206E4F0020183C00209B
:2021F000935501002C3B0020504F00203D4E0100784E002040C001005C4D0020734F002082
:202210008C4E00206F4F0020756D0100020480802DE9F843040014D1002017F0BFF910E0E4
:20223000204612F061FF012808D063E08A0740F1578101F0FD0101700020B071204612F0DF
:202250009DFD04F16605687D002853D0697CDFF8CC94022904F1EC0704F59E7804F5B076E7
:2022700004F5C67035D0042947D005295DD0062900F08B800729D3D0092900F0EF800B29B9
:2022900000F0C3800C2900F00B810D2900F0D3800E2900F0ED800F2900F02B81102900F040
:2022B0004581112900F05F81122900F01181142900F08A81162900F05D81172900F0788113
:2022D000FC2917D0FD2900F09881FE2900F0A481A2E7297C012909D199F80300002813D0A6
:2022F0001621204617F053F8012004E0204612F0D6F828740020BDE8F283297C012940F0CF
:20231000A78199F80200002800F0EA800021A971FF22FC2120460FF099FFA07904F1B80232
:2023300004F1B00118F02EFE8BE7297C012910D199F8020020B184F894100020386078607D
:20235000B87A01286AD1FF22062120460FF07EFF77E704F1E7063078012808D1204615F058
:20237000B4F80128C6D10020B8720120C1E770780028BFD004F1C70204F1A00104F1D7000F
:2023900018F0FCFD012030705BE7297C012940F0668199F80200002840D0618CE1832046C1
:2023B00012F0ECFC01202870204614F079FA0120A871397A787C012900F010000FD148B1A9
:2023D000002088F80500D8F8001098F80600490811F022F8A079002118F0CCFD0FE048B173
:2023F000D8F80020DFF8380304F5A1735208214618F060F9A0790122002118F0B7FD002063
:2024100038723873F872B8721BE7287C012806D1F97A012904BFFF22FC2196D060E0204673
:2024300011F00AFB01289DD10020F87284F894000120287405E7297C012940F0148199F887
:202450000200002809D0002184F8941001202870204614F025FA0120A87188E0297C012975
:2024700040F0058199F80200D0B3618CE183E5E6287C012840F0FF80387C022804F1FD0216
:2024900004D1A179002018F06DFDD7E6032840F0FB80A1791A2018F065FD00203874CDE6DB
:2024B000287C012804F20D1140F0F9800B78012B04F5897240F0F9804878012807D153889A
:2024D000009300201388CA78A17918F047FDB5E6297C012940F0F88099F802000028F6D162
:2024F000298B481E288380B200287FF403AF2221F7E6287C012840F0EB8098F8091001292D
:2025100002D130780F281BE098F80800012826D1002188F80810288D000900901A20AA8CCF
:20253000EB8CA179520818F015FD87E6287C012840F0D28098F80910012910D13078102836
:202550001CBF002017F02AF8002088F80900288D00090090AA8CEB8CA1797078E2E7287F31
:202570000028E2D1BCE7297C012940F0B98099F80300F5E7297C012940F0B680017B4A0624
:202590001DD4CA0709D501F0FE0101730123A179707801220BF0D0FF50E68A0740F1A980F3
:2025B00001F0FD0101730123A17901221A20F1E7297C012940F0AA80027B510690D5017B57
:2025D00001F0BF01017339E6297C012940F0A08001788A067FF52AAE01F0DF010A070170E0
:2025F0000AD501F0F7010170F08B0090738BB28B318BA07918F0D2FC1EE6A97EFF222046EF
:202610000FF024FE14E7FF2220460FF01FFEACE6002016F0C3FF6DE6A97E0C2918BF0E29B4
:20263000F1D00F2902D01429EDD0F1E7FF22FC2120460FF00BFEB8F812000090B8F81030FF
:20265000B8F80E20B8F80C10A07918F0AFFC51E620460EF0EBFA2874E88A28834AE6204625
:2026700012F0E8FEF7E7204614F05CFBF3E7204610F066FEEFE7204610F02CFE2874E88AAB
:2026900028830120387435E6288B401E288380B20028F8D1A179222018F064FC27E70120C5
:2026B0008870204610F054F9D5E7288B401E288380B20028E7D15088009022201388CA784E
:2026D000A17918F04BFC12E7204613F0EDF8C2E720460DF0BFF8BEE720460DF00DF9BAE7C8
:2026F000204611F0BDFDB6E7162120460CF0C4FDB1E7288B401E288380B20028C3D1A17956
:202710000123012222200BF017FFF0E61721ECE7142120460FF054F89DE700BF5C4D00203C
:20273000ED2801002DE9F84FDFF84444A178FF2904BF002016F032FFA07817F017FD0446DF
:2027500004F1680604F5C9753168086804F1900710B10022E28310E0B17B002904BFB07EBC
:2027700000280AD13978002904BF2878002804D1217F012904BF608CE0832189E08B4118C2
:20279000491C6181204616F028FE01281EBFDFF8E4030178012904D120890022401CE28388
:2027B00060814FF6FF78B07E01280DD1B28B6189208918F0CBFB38B1218960894A1C93B272
:2027D00098422CD0B08B20E0387801280DD17A886189208918F0BAFB38B1218960894A1CED
:2027F00093B298421BD078880FE02878012816D16A886189208918F0A9FB80B1218960892B
:202810004A1C93B298420AD0688892B2904206D04044608180B218F095FB4044E0832878B7
:2028300001280DD120896988401C80B2814207D16A792A71002028701346A1790BF07CFEA0
:2028500004F59A71087920B120890021401CE183608104F12E07B07E01283ED12289B08B31
:20287000521C92B2904238D1608104F18601204616F0C4FEB08C6189608400202077E0830C
:20289000E0894118A181B08B218918F05BFB8046B988308C728C01FB0808F08C8A4204BF29
:2028B0003989884202BFB18CFB88994207D000090090B38CA1795208002018F04BFBB07F60
:2028D0003870708CB880B08CF880F08C3881204617F0ACF80220B07601E0B7F80480E28B49
:2028F000DFF89492501C00FB08F040F6C41808FB00F100912368D3F80CC06144DFF87CC2F9
:20291000D960DCF800E09E499EF800A00B884FEA9A1ABAF1030F15D199F80FC05FEACC7E87
:2029300048BF00230ED45B1C1FFA83FCBCF1010F11BFB4F812C004F59A7CBCF806C00CF2DA
:20295000DC5C01E0B4F812C00CFB00FC4FF4C87EBCFBFEFCDFF82CA20CF1010CC4F814C054
:202970000B8084F820204FF01C0BA379A0610BFB03F3DAF800102268D2F80CE001F1080065
:20299000C058106101F10803A0790BFB00FC6069AEEB000043F80C0001F10800A3790BFBC1
:2029B00003F3C058906001F10C02A0790BFB00F00C31125C02F0F00242F002020A54DAF805
:2029D0000000A279811C0BFB02F200208852287908B916F0E3FDDAF80000A27900F1100104
:2029F00028790BFB02F240088854A079DAF800100BFB00F00844002141742879042814D143
:202A1000A079DAF800100BFB00F001F110022B7A125C103142EA83020A54A179DAF8000062
:202A30000BFB01F1084420214174DAF80000A27900F112010BFB02F200238B525249A279AB
:202A50000968520101F11403D4F814C09B5801F1140E03EB4C034EF80230B27E022A0AD106
:202A7000A279520101F114033E789B5808FB063301F11406B35099F80F20D3074CD5A27905
:202A90000BFB02F200F1080300F108069B58A3F5A863B3500830A27923680BFB02F28258E6
:202AB0009A600098121A1A6101F11402A079400101F11403125802F5F6621A502879042872
:202AD00007D1A079400101F11402125802F561621A5001F11400A27952018058C4F83401E1
:202AF0002A4ABE88176B3868A57946436420B6FBF0F601F11C036D0108FB06F0A0F5966025
:202B10005851A07901EB401021490B78012B0EBF0122916A4A7819E02879A37904280CBF34
:202B30004FF4AA504FF4E66001F114025B01D258101ABA8808FB02F2A2F516729042CFD33B
:202B50000821204616F023FC01200FE0C272A179DAF800000F4A0BFB01F1084421684860B3
:202B700007201070204614F01BFA0020BDE8F28F684E0020784F00205C4D0020084F0020DC
:202B90004C3C0020183C00201C3C002040C00100734F00206F4F00202DE9F84F040004BFAC
:202BB000002016F0FBFC04F1500941F62300D9F8006030800020708018F0C0F900F57A60BF
:202BD000B0608220307302207073B0682061207EB0730020F073D9F80400017D022904BF6D
:202BF000002016F0DBFCD9F80400007D012802D10020002104E083280CBF06200220202156
:202C10003074717404F1240BD9F80400DFF878834178480615D5D8F8340041690A689BF8AC
:202C30000510501C01EB4101405A7082607DC10604D5E07F40F04000E07702E040F0400054
:202C5000607506F15805002028714FF01E0A9BF81A00800000F00400287104F130002861B3
:202C7000607DC10644D506F130013162D9F8040041788A060BD5617D01F0FE016175407872
:202C900010F0030F03D1E07F00F0FE00E077607D15F0D1F90246A275521C307CC0F3800141
:202CB000002392B200F0030014F01CF8A0831E23A08BE27D00F5FA7100F5FA7090FBF3F374
:202CD0004A430AFB13006283C0B208B1C0F11E008018A183608380B2B168C03001EB800119
:202CF000A9600220E871E07F40F00800E07714E000213162607D40F001006075D9F80410E2
:202D10004A78510744BF40F002006075607D15F092F9A0750020A860E871A07D217D60F36E
:202D3000050106F188002175017006F12807617D4170032181709BF81A10890001F00401F1
:202D500041F0030181709BF81B20D20002F00802114381700021C1708160BBF81C00C0F3A7
:202D70000B00ABF81C00D9F80410CA7D40EA0230ABF81C000022617D01F0FE0120460AF0E2
:202D9000F5FE40F61200B0830020F083A020706207203870607DC1064CBF002002207870E8
:202DB000E07D788041F62400388100207881618BB06800EB810038610021822038750220E6
:202DD000787594F8210000F03F00B875F975D9F80400807D012818BF022803D100F07F0040
:202DF000401E04E083280CBF06200220202179763876D8F8340041690A689BF80510501CB1
:202E100001EB4101405A788300206861D9F80400417811F0030F1BD015F00AFD6861D8F8C5
:202E300018000078C1074CBF1021002182074CBF2022002243074CBF4023002300074CBFE8
:202E50008020002011431943014341F00F01297600206876D9F80400807C00F0030068762E
:202E70009BF81A10890001F00401084368769BF81B10C90001F0080141F0100108436876F1
:202E90004249087838B1697E41F040016976287E00F0FE002876E07F15F0CDF884F82000FF
:202EB00020460BF0B3F8E07FC1063AD5D9F8040094F820204178521C88074EBFD21E9BF8DA
:202ED0001F008218387EC0F380010023D2B200F0030013F007FFABF80000BBF8000000F551
:202EF0009671C1F11E0291FBFAF10AFB012A8BF804A0D9F804104A7891074CBF00214FF46D
:202F1000FA710818ABF80000ABF80200BBF800209BF8040039698218C03201EB82010220A5
:202F300001E000210020E961E87604F13000A862D9F804104A78687E510747BF04F138016F
:202F500040F02000124900F0DF00E9626876A17F94F8200060F30501A17740F60B00B88404
:202F70000020F884F86228700220687094F845006880D9F804004178880744BF01206880D7
:202F90000020BDE8F28F00BF40C00100784E0020D04700202DE9F04F0546C34CA978606965
:202FB0000027ADF11C0D0A290FDC0A2900F0B580002900F0B481491F00F0A681491E00F079
:202FD0007581C81E00F05781D4E10B3900F08F80C91E00F08280491E0DD0481E40F0CA8147
:202FF000227816F0EBFC002800F05C81104604210AF058F856E12E4628B143681BB1A88855
:2030100039460A4698476078002863D0B08813F009FE051C00F0AE81B07A400811D36B7903
:203030007BB1012B0DD0F068800A0AD203F001033A460097A81D194613460BF0A7F8002840
:2030500043D1207A022802D1B07A00093DD3B6F804806D790C2017F0CFF906F10809061C35
:2030700000F02081A6F80880B5723B463360B9F1000FF77209D04846082116F02FFD70609A
:2030900020B9304617F0C8F90CE17360A069002808BFA66102D00368ABB90660304617F0C6
:2030B000A9FB4A462946404607F090FA6069002800F0F8804368002B00F0F48039464046BE
:2030D0000A469847EEE01846E5E7B088032117F031FF4FE1B08805211CE0002800F0E28022
:2030F0004368002B00F0DE806A780221C1E017F047F9002800F0D680606948B104683CB126
:203110002869009069892A7B6B7BE81CA047C9E06889012117F00EFFC4E0B8466F78002F8E
:2031300040F09980A9794908C0F0958002A84146082217F0CDFBA88813F074FD061C09D134
:20315000227816F03BFC002866D01046042109F0A9FF61E06869002854D0074641460622B4
:20317000113016F040FDC24630B338464146062216F039FDE0B9387C07F11109D346474662
:2031900000F0010005907F1CFFB289F80070CDF800B005994846524653460AF0F7FF10B9D1
:2031B000002FF0D104E01FB1BAF1010F02D006E04FF0010A47466F61BAF1010F22D06869C3
:2031D00050B30746387C062207F1110100F001008DF80E0002A816F05BFE707907F1110822
:2031F000012805D106F10C00B11D062216F050FEB01D4146062216F04BFE387C40F00200C2
:20321000707109E07079B11D062200F001008DF80E0002A816F03CFEA9799DF80F20C1F3ED
:20323000800010438DF80F00080905D39DF80F0040F008008DF80F0002A8294604F028FB8E
:203250005FEA000803D1A88812F054FF02E0A88814F06CFD606928B343681BB3A8886A7806
:2032700001219847A87940081CD36069032142464368A88825E73B460093E978281D0DF1D1
:20329000110201F001010AF081FF58B99DF81110480005F10C0200EB810025300421C0B233
:2032B00016F0E3FA012765E060050020A88814F03DFD17F03BFE00285CD1E07A012814D0BF
:2032D000207B01280DD02D4C3D4614F8010F012803D1284609F094F927706D1C062DF4DB12
:2032F0000CE010F0CFF8277308E016F074FE394604F120000622E17217F0EAFA502016F0A1
:2033100099FC12F07DFC35E0687898BBE8786A892B7B291D00F001000AF08CFA2AE06878AB
:2033300040BB17F0FFFD054617F0F8FD044617F0F1FD8DF8100010212A46022016F095FA0C
:2033500003201021224616F090FA0420012104AA16F08BFA9DF81000012803D09DF810004C
:20337000032807D1012014F03FFF02460620014616F07BFA384607B0BDE8F08F7F050020AA
:203390002DE9F84F0E46700688B02AD5DFF85423107800210AF0B6FA040022D0DFF84813F6
:2033B00008688047054617F067F9012804D017F01BF86168884203D140F2014017F0A6FD79
:2033D00000202072201D10F07BFFC8490A6828469047204616F00AFEFF224321204611F04C
:2033F000A1FCF0070BD516F0FFFF28B100218160BF48006800B1804786F001006FE1B00705
:2034100010D5002006900021049000230290009005910393019101223C2017F073FD86F0DD
:2034300002005CE11E277007DFF8C88240F1A080002007908346B048007800210AF062FAA8
:20345000AE4904468878FF2804BF002016F0A6F8A07A16F08BFE0546606D807A95F82E9166
:20347000022818BF032805F5947A06D108F10D0017F044FD08B908F1070B5146484617F0EB
:2034900039FD88B3606D807C002818BF012804D14146504615F050F804E0524649464046EA
:2034B00010F098FBFF283ED007FB00F908EB090706225146F81D16F0EBFC18F8090040F02C
:2034D0000209F81D07900622606DC17A01F0010185F82E1107F1010A606D00F10C0105F57E
:2034F000947016F0D5FC1EE05146484616F098FDC8B152464946404610F06CFBFF2812D08D
:20351000474308EB070404F10D0017F0F7FC40B904F10D0017F0F2FC002804BF607F012834
:2035300001D149F0020905F12C004B46017806914189090905916A8C079904920122C08899
:20355000029140080390CDF804B0CDF800A00020A97917F0D7FCD5F89C0169498842A879EC
:203570000CBF002101210EF0A3F886F00400B6E0300610D500200690002104900023029049
:20359000009005910393019101223B2017F0BAFC86F08000A3E0F0045BD55A48046808F1EE
:2035B0000D0017F0ABFC002842D108F1070108F10D0017F09BFC3BE0606D4178480704F17B
:2035D0003E0523D5287802281EBF0328687801281CD1697804F13802404610F0FBFAFF2826
:2035F00014D0784308EB000909F10D0017F086FC60B909F1070109F10D0017F077FC0622CC
:2036100009F1070104F1380016F042FC2878022818BF03280BD108F10D0017F06FFC30B91E
:20363000062208F1070104F1300016F031FC2468002CC1D134484268344800784FF4805181
:2036500012F0C0FE10B18E200EF0C2FD86F4805045E0B00505D516F091FF2D4901200860DB
:20367000FEE7710504D509F042F886F4806036E0700405D581200EF0ABFD86F480402EE086
:20369000B0042BD5234C206810B1002015F086FF4FF0FF30206000201F4C0FF0E7FA216822
:2036B00051F8202F684690471C48016B426B00910192C06A24681A491A4A02910392ADF8F2
:2036D00010006B462568184A18491948A8471949086005F0C7F886F4005000E0002009B078
:2036F000BDE8F08F593C00205C0C0020600C0020204F0020D03500205A3C0020684E00208D
:203710003D4E01002C3C0020784E00206E4F0020FC002043044F0020F04E00201009002059
:20373000D9A30100E9A301007C3A0020D40C002088490020EC4E00202DE9F04306468C4DE0
:20375000B0782A780FF22C29ADF13C0D002874D0401F09D0801E00F00481083800F0FC80EF
:20377000801E00F0F580FFE0D14C102021460EF0B9FA7178002500910122019081A30295E4
:2037900040F24F410395484604950BF073FC7078C0B9708913F09CFC0127301D0621132367
:2037B000C44E009732460DF0CBFC00962846019040F25C41029080A303903A4604904846C6
:2037D0000BF058FC102021460EF08CFA98B9102021460EF087FA2F46C0F10100009040F21F
:2037F00061410195012202977DA30397484604970BF040FCB8E0102021460EF073FA009081
:203810002846019540F2674102900122039082A3049048460BF02EFCA7480068042105AADB
:203830000590012005F002FD642001210EAA8DF83800022005F0FAFC96E07078002840F0F0
:203850009380347AF779B27A8DF81640B0798DF81570F37A8DF81A2000248DF814000821DB
:203870008DF81B30777A8DF81840A0468DF8197005AA8DF81780404608F0E2FC0127B01D8A
:2038900006211323DFF83482009742460DF058FCCDF800804FF48361A046CDF804806FA311
:2038B000CDF808804846CDF80C803A46CDF810800BF0E0FB8249B1E80C5007A8A0E80C50CE
:2038D0000EC980E80E0007AB10207E497E4A00950EF008FA4C46C0B2002837D1DFF8EC91FD
:2038F0001021484612F0E2FA0090CDF8048040F22A413A46CDF8088063A3CDF80C8020461B
:20391000CDF810800BF0B6FB10240094CDF80490DFF8BC912A784346204649460EF0E2F958
:20393000C0B298B9122000906A4B01932A78494620463B460EF0D6F9C0B238B966492A7810
:20395000204692230EF0CEF9C0B268B116F07EFB304612F02FFE07E0604910200EF0C2F94F
:2039700002E0304607F0D4F90FB0BDE8F083C046AC3A002070726F6A6563745F7A65726F22
:203990002E6300C04C696E6B2065737461626C697368206576656E742C2073746174757327
:2039B000203078253032782E204E756D20436F6E6E733A20256400C0436F6E6E65637465BF
:2039D000642E205065657220616464726573733A201B5B33326D25731B5B306D00C046C080
:2039F000436F6E74696E756520746F204164766572746973652C20256420706F7373696223
:203A10006C6520636F6E6E656374696F6E2072656D61696E00C046C04D6178204E756D623B
:203A30006572206F6620436F6E6E656374696F6E2072656163683A2025642C204164762EDF
:203A50002077696C6C206E6F7420626520656E61626C6520616761696E00C0464741502081
:203A7000697320737461727465642E204F757220616464726573733A201B5B33326D25737F
:203A90001B5B306D00C046C04E616D6520696E206164766572744461746120617272617966
:203AB0003A201B5B33336D25731B5B306D00C046D97D0100043B0020BBBF0100F03A002027
:203AD00058BD0100D1930000438E0100820C002069C00000700C00205D5C01008572010065
:203AF0002DE9FC47B14CB24D2678DFF8C882B24FB249002E4FF4A05900F01781072E14D09B
:203B1000092E18BF0A2E00F012810B2E18BF0C2E00F021810D2E00F0E480112E54D1A84A0B
:203B30001078002109F0EEFE002871D0C5F80080426D5378016DA34CDFF88C82DB0657D578
:203B50000B4641F2044EB3F802C0F4451FBF5E8B7645B3F832A0F24506D041F20A4EF44509
:203B70001CBF7645F24502D1A7F800E048E04FF0000E40F601044FF4806A182606FB0EFCF0
:203B90009E1C36F80C603E8016F47F4FF5D0022E40F20681B6EB0A0617D0B6EB0A0611D053
:203BB0004FF44064361B01D0B61E012E40F2DD80361FFBD040F2FA34361BE9D0761E00F04C
:203BD000E680F61E00F0D980A7E01E88A64240F0CC800EF1010EBEF1020FCEDD58E0981C1C
:203BF00020F80C9011E0C96E0A68002010710CE0488E388041F20441401A01D0801F01D138
:203C10002C6045E041F206403880C5F800803FE06E488078FF2810D0C5F800806C4A126834
:203C30001C214143931C5B5A3B8013F47F4FF5D040F204441B1B012B664876D94FF47F74EB
:203C50001B1B15D00A3B012B17D940F6F6341B1B032B84BF5B1F012B12D99B1E012B64D91E
:203C700040F2FD341B1B0BD05B1E012B05D909E0921C41F20143535202E0921C22F801904F
:203C9000286005E0002015F089FC852017F082F9BDE8FC4750480078012109F003BA4F4C6B
:203CB0004F4A25684F4800680023CDE9002355F8089F4D4B0222C8474C49088035E0092EAB
:203CD0004ED14B490A685089002849D04949087811F080F80021002017F004F90020207015
:203CF00023E04888388002280DD940F20442801A1BD040F6FC72801A05D0083815D04FF4A1
:203D10007F72801A2CD1887B801CC2B2B52AA8BF662088730020488007E0002015F03EFC03
:203D30008420BDE8F64717F035B9BDE8F3874888388010F47F4FFAD040F20442801AF4D0DF
:203D500040F6FC72801ABAD00838EED04FF47F72801AA4D004E04888388010F47F4FFAD043
:203D7000002015F01BFC8520DBE7807B012818BF042801D0A7F8009047E7807B01287FF4A4
:203D90002EAF9A1C41F2024122F80C103DE75078C2067FF528AF886D016800220A7134E7BF
:203DB000002015F0FBFB8320BBE700BF6F4F0020204F00201DA80100504F0020C03A0020C8
:203DD000593C0020511B0000AD600000684E0020183C0020E54F00006E4F0020F04E0020EC
:203DF00002000080EC4E0020B5620100424F0020203C0020714F0020BB482DE9F84F00252D
:203E1000BA4CB849056094F8E200002800F06581012800F02F81B64E02283CD0032840F05C
:203E30005C8151F8250CD4F8B8100029A0F5C060C4F8D400B8BF49420028B8BF4042814233
:203E500026DA4FF08057D7F8A4014568B4F8BC0030214FF47F42082300903046A847D7F86F
:203E7000A4014568B4F8C00004214FF4F802122300903046A847D7F8A401B4F8D0704568DB
:203E900020214FF440620A2330460097A847012584F8D8501CE151F8258C16F06FFB2F461D
:203EB00000B901273946934F38680028FCD0B146012609F10409D9F82CA03E6009B116F0FC
:203ED00063FBCAF30720C4F8BC0016F057FBAA4600B9B2463B68002BFCD0D9F800B0BAF159
:203EF000000F3E6001D016F04FFBCBF38440C4F8C00016F043FBAA4600B9B2463B68002B33
:203F1000FCD0D9F81C90BAF1000F3E6001D016F03BFBC9F38120C4F8D000B8F5C061C4F870
:203F3000B81000F09C8094F8D80068B9C4F8D410D4F8C000C4F8C800D4F8BC70C4F8C47080
:203F5000D4F8D030C4F8CC30D4F8D400D4F8BC30002854BF02226FF0010204F1C8010F687F
:203F700000EB40008018421000EB927207EBA2000860D4F8C810C4F8C43000291CDD1E2974
:203F90003CDDD4F8CC0030B93429B4BF15391E21C4F8C81025E02A29BABFD4F8C8000B38DE
:203FB0001E20C4F8C800D4F8C4003F28B4BF401C3F20C4F8C4001FE0D4F8CC00032812D0E6
:203FD00011F10B0FC6BFD4F8C8000B30301CC4F8C800D4F8C4000028C4BF401E051CC4F81B
:203FF000C450032508E011F1150FC6BFD4F8C8001530301CC4F8C800C4F8CC504FF080574B
:20401000D7F8A401B4F8C43030214FF47F424568374800930823A847D7F8A40104214FF472
:2040300000321123456832480096A847B4F8C860D7F8A40104214FF4F802122345682C485E
:204050000096A847D7F8A40120214FF440620A23B4F8CC60456826480096A84701E084F82F
:20407000D85040F2FF50404502D8801C40452FD2082030E051F8251C1F4F4BF2F5204843F9
:20409000060A3868C0F3814001280CD11B4800680068804712F0E0FF16F07CFA3111C0107D
:2040B000484306EBE03694F8E50030B91448006820F07F403618760801E084F8E5501148BA
:2040D000310C0660012741600F4D8760287808B90B2000E0052084F8E40005F03BFABDE861
:2040F000F88FC0462D400C402C500C404C04002000A00C4000800C40B43F0050EC0100103A
:20411000102009403C600C4011BE01002DE9FC47C1480278112A47D1C04B1878002109F07A
:20413000F1FB04000AD1002015F038FA002015F035FABDE8F647FF2016F02CBF04F14C08BE
:2041500098F8000008B90121E172451C88F80050E9B2E07DD8F80490814209F1400A24D2FF
:2041700099F80E00401C89F80E00D8F808104A7AD9F80810520802F0010282F00102101824
:2041900089F80E00A08B01EB8001C9F80810627DD30609D5628B98F8003000FB1320C030AE
:2041B00001EB8001CAF8201033E104F1280609F174074ED1A07F3875E17F7975D8F80820B3
:2041D0005278930710D5E27FD30604D5C01E387501F0EF0179750020386089F8730000224B
:2041F000797D01F0FE010EE1900607D4F08B00B1F07EF875F08B00B1306AF861D8F808006B
:204210004178C8070BD5F18B00291CBF306A002805D0F861B07E884238BF0146F975E07FB3
:20423000C1060CD5D9F83800317800EB8100C9F83800A18CC03100EB8100022101E0002001
:204250000021386089F873100022E17F01F0FC01D9E0D8F808104978CA0716D5787D397D58
:2042700000F0F700891E01F03F0182075CBF891D40F00200420644BF491E00F0BF007875A5
:2042900039750020F861F875C3E0A28C2D1AD9F838008907EDB200EB820075D5012D41D133
:2042B000C9F83800A07F00F03F00A0773875801EE17F7975387501F0F7017975D8F808207B
:2042D00053785A0704D5801F387501F0FD01797500233A7DF17E9AF8000002F03F028A18F0
:2042F000521CC0F3800192B200F0030012F0FAFC00F5FA70A0841E21A08C90FBF1F18AB246
:20431000797D01F0FE01204609F030FC002089F87300F08B00B1F07EF875F08B00B1306A3B
:20433000F86176E0022DC9F8380026D1E07FC10706D5387D811F3975787D00F0FE007875CA
:2043500000233A7DF17E9AF8000002F03F028A18521CC0F3800192B200F0030012F0C2FC04
:2043700000F5FA70A0840022797D01F0FE01204609F0FCFB707FAAF81A00707F401C451BF6
:20439000E8B2012812DD07E0C9F83800E17F707F451BCA06E8B209D5A28CD9F83810C0324B
:2043B00001EB82013960022189F8731088B3F969F27EE37FA57F1144F96159084FEA410A97
:2043D000D8F8081049784A0748BF2AF0020A890748BF2AF0080A012807D1307FF8752AF0AC
:2043F000100A0020386089F87300504613F023FE05F0C00500F03F0005433D7587F815A016
:2044100000220AF0FC01204602B0BDE8F04709F0ADBBBDE8F38700BF6F4F0020593C0020AD
:204430002DE9F04F09AFADF13C0D08900A92388809911E46ADF81800101C08BF002000F0C6
:204450006C81017800274FF0010B401C4FF0FF39B846DA460A9058E1252940F04D810178EB
:20447000401C0A902D2918BFADF8068004D10178ADF806B0401C0A9030291CBF42464346FA
:2044900004D10178401C5A465B460A902A29CDF800804D4617D1049330680A9BCDF8089043
:2044B000C01C20F00300001D306050F8044C1978002C009403F101000A9018D5ADF806A0A0
:2044D0006442009413E044460AE0600000EBC4004018A0F130040A9801780094401C0A905A
:2044F000302901DB3A29F0DBCDF8089004932E2929D10178401C2A290A9011D13168CDF802
:204510000880C91C21F00301091D316051F8045C002D48BF454601782B46401C0A9011E019
:20453000454643460AE0680000EBC5004018A0F130050A9801782B46401C0A90302901DB80
:204550003A29F0DB02930AB1224604926C2904D04C2918BFADF8048004D10178ADF804A05A
:20457000401C0A900BA8CDF80C800FAB07906429059379D0692977D0BDF818C0752965D039
:20459000782961D06F295DD0702946D0632936D073291AD00A98401E0A900998012812D95E
:2045B00061490C68B5F1FF3F03D0A84288BF6D1C00D8099D029508A80AA932466B46A047D4
:2045D0003F18039865E0454617E03068C01C20F00300001D306050F8040CBCF1010F014682
:2045F00008B94FA00146079115F0E8FD0390B5F1FF3F4FD0A8424DD9039528464AE03068C4
:20461000C01C20F00300001D306010F8040C8DF82C005D46039558463CE0082035680490D7
:20463000E81C20F00300001D306050F8041C082210230FA80EF030FC401E07904021017039
:20465000079823E0082302E0102300E00A233068C01C20F00300001D306050F8041CAA42D3
:20467000BCBF2A1C04920DE03068C01C20F00300001D306050F8041CAA42BCBF2A1C049207
:204690006FF009030FA80EF007FC07900599081A0390009C241ABDF8065000945DB906E088
:2046B00008A8202109AA14F00CFA7F1C009C641E0094F5D50398401EB0F1FF3F03900FD1DA
:2046D000BDF8060001281CD10098401E009018D408A8202109AA14F0F4F900987F1CF4E7E4
:2046F0000798017809AA08A814F0EBF90798401C079003987F1CDEE708A809AA14F0E1F979
:204710007F1C0A980178401C0A9000297FF4A4AE089808B14146017038460FB0BDE8F08F3D
:20473000286E756C6C2900C00CC001002DE9F84306460D46707801071DD4D6F80310B54821
:2047500021F07F41203981423FBFD6F8061021F07F412039814228BF112033D2B01DF11C96
:2047700088425FD3B07A002818BF012803D0022818BF032856D1B07C002818BF012803D08E
:20479000022818BF03284DD1307D012818BF022803D0832818BF032844D1707A10F0070062
:2047B00070723FD03078012109F0ACF804000AD1002011F0EDFF044616F080F8844214BF44
:2047D00007200D2024E104F15402002016606072207A012808BF0C20F4D00021E1750020AC
:2047F0000121737A01FA00F73B4208D0E37D5B1CE375DBB2012B04BF00F125032376401C9A
:204810000328EEDB7078C10618D5317D012909D1102810D012280CD0132804D0152804D0F8
:204830001D2804D09FE0002006E0042004E0012002E0022000E00320A0735EE0FF20A07317
:20485000307D02281EBF717801F003000328E9D00B07E7D408B18806E4D4480707D516F1D5
:204870000C00DFD0F07A002818BF01287BD100206075E077707810F0030F27D1207D00F0C4
:204890003F0020757078810605D45168002904BF9068002801D018216175707881060DD4F7
:2048B000307D832818BF032804D1182060750120E07703E0607D40F001006075707841073E
:2048D00017D5E07F40F00200E07712E0217DC0074CBF0120022001F03F0141EA801118202A
:2048F000607521750920E0777078410744BF0B21E177207D00F0C000A07796F913007F2859
:2049100006BF4548007810F0E1F904F12907387045B14248416B48693978026801EB4101F0
:20493000505C2870B07ADFF8F880DFF8F8903E4D002818BF012809D17875B07AC10758BFC8
:20495000C8460622414604F130002FE005F10D0016F0D4FAB8B1B07AC10754BF49464146FB
:2049700015F05EFB08B9122052E0B07AC10754BF49464146062204F1300015F089FAB07A8A
:2049900000F0010006E00622E91D04F1300015F07FFA03207875B07A00F001002870B17A71
:2049B000C80758BFC84606224146681C15F070FA7078410729D5B07A022818BF03281BD1E1
:2049D000F17A06F10C0201F0010128460FF002F9FF2811D01E214843054405F10D0016F0D8
:2049F0008DFA48B9E91D05F10D0016F07FFA0120B8750622E91D04E0F07AB875062206F181
:204A10000C0104F1380015F043FA012060720020BDE8F283E0FFFF00714F002040C001001E
:204A3000344E00202C4E0020D0350020F0B5984E98493046ADF15C0D10F096FE964C002185
:204A5000204616F04BFA9548046011F08BFF944815F066FE934800240470934894490460F5
:204A700092480BF08FF8934D72A7286078B920460090019040F25A2102900322039071A386
:204A9000049038460AF0F6FA16F024FA28688A4915F086FD70B120460090019040F261219F
:204AB0000290032203906FA3049038460AF0E2FA16F010FA274607200097814901907F4845
:204AD0003222234610F090FB91494FF4FA6201250860134600957C487C49019710F084FBE9
:204AF0007849224615237A4C08601020794900940DF0F8F87849102002233A460DF0F2F827
:204B100016A800902C468DF858408DF859404FF480628DF85A70714D8DF85B40234610209F
:204B300029460DF0DFF80DF1590040F2024200902346294610200DF0D5F80DF15A0040F269
:204B5000034200902346294610200DF0CBF80DF15B0040F2064200902346294610200DF040
:204B7000C1F85F4910204FF0FF320DF0BBF85D4910204FF0FF320DF0B5F814F093F934467A
:204B900020780CF06BFB20780CF05EFE564809F001FF564809F0EAFD05A8394628220DF093
:204BB000D5FB53490FA81C220BF064FA38461C210FAA06F095FB3846052105AA06F090FB5D
:204BD00038461C210FAA04F031FB4A494A4A10200DF088F82178502013F09CFF47490246DE
:204BF00010200DF07FF82178502013F093FF4449024610200DF076F842491020FB2240F6E5
:204C100048030DF06FF8404910200DF06BF84FF6FD7013F0CFFF2178502013F07BFF00971C
:204C3000034604223949019710200DF05BF817B0F0BDC04670726F6A6563745F7A65726FCB
:204C50002E6300C04572726F7220696E697469616C697A696E6720627574746F6E20706909
:204C70006E7300C04572726F72207265676973746572696E6720627574746F6E2063616CAA
:204C90006C6261636B2066756E6374696F6E00C0A03A0020A43A0020943B0020A83A0020D8
:204CB000D83B00205C3C0020383C0020A03B00209C0D0020B03A0020F10D0100583A0020E6
:204CD00091270100BC3A0020343A0020BDEB0000B40B002001490100717D0100E16800005D
:204CF000B1910100CD960100940D00208C0D002074BD010099980100840D00205188011084
:204D10003181011021B1001035080100E17F0000B83A00202DE9F04F8946804609AF99F8FB
:204D300000003E791C4600254FF0FF0BADF11C0D02283F88059206D1D9F80400008842F621
:204D5000021181427DD048460EF0D2FB60A30028069031D0401E6FA11FD0401E0ED02846FE
:204D70000090019040F27E2102900322039051A304904CA00AF07EF90A2090E00091CDF812
:204D9000048048A002940122039740F2792104960AF070F98B4E01201DE00091CDF80480AA
:204DB00040A002940122039740F26A2104960AF061F9854E04200EE058A00090CDF804804F
:204DD00040F25B2102940122039736A004960AF051F97E4E6420B84215DD07EB040A50453D
:204DF0000BDBD9F80C0005992246C0190BF042F9DDF818B0A6F800A013E0284640F28921B3
:204E100048A30D2504E028464FF421714EA3072500900190029003900322049021A00AF067
:204E300029F9BBF1FF0F0AD06948006838B106682EB10699059BE4194046A2B2B0472846E2
:204E50002DE0FE2E0CBF49A64FA648460EF050FB009040F23A21CDF80480012202964DA372
:204E7000039510A004950AF005F9009703200190059A23464946404610F0E0F80646544821
:204E900007685EB957B1786840B148460EF030FB2246059B7C6801464046A047F0B207B0F3
:204EB000BDE8F08F646174615F736572766963652E6300C0417474726962757465207761D7
:204ED00073206E6F7420666F756E642E00C046C05772697465417474724342203A20257371
:204EF00020636F6E6E48616E646C6528256429206C656E28256429206F6666736574282581
:204F10006429206D6574686F64283078253032782900C0464261747400C046C05374726962
:204F30006E6700C0496E76616C69642076616C7565206C656E677468207761732072656361
:204F500065697665642E00C0416E20696E76616C6964206F66667365742077617320726587
:204F7000717565737465642E00C046C02D20726573746F72696E6720626F6E6465642073E9
:204F90007461746500C046C02D204F544120777269746500577269746541747472434220C6
:204FB0002843434344293A20706172616D3A20256420636F6E6E48616E646C653A20256438
:204FD00020257300B20C0020AE0C0020AA0C0020A40C0020A3488078FF2800D170472DE903
:204FF000F84F15F0C3F8054605F217100178012908BF417800F0A98005F17400817B022964
:2050100003D105F174020020907305F59274E18911B1207B08F046F86889DFF84CC2DFF873
:205030004C92288105F58D779CF80A009CF807209CF80C109CF80B30B7F800E000EB02087F
:20505000884498449CF80D309844C644A7F800E0BB88B7F802E05B1CBB808644A7F802E091
:205070004FF01C0E2368E3B1D9F8006095F806B006F10E0A0EFB0BFB0E361AF80BA033F8DA
:205090001AB0C34423F81AB095F806A00EFB0AFA16F80A6003EB4606B6F84AA08244A6F85C
:2050B0004AA0002A04BF9CF80B20002A05D1002904BF9CF80D10002926D02989E889411812
:2050D0000026A9812E74287F012804BF698CE9839CF8010068B1012105F1740229779078F6
:2050F000002804BF917B002903D1107F08B9698CE983207D002832D0022804BF9CF80B00A8
:20511000002827D1002129E0E98340B1002028740126287F012806D1698CE98303E0F8888A
:20513000401C0226F880A8892989814206D08842CED2081A41F2AB029042C9DA287C08B1A9
:20515000052901D0082100E03E212846BDE8F44F14F01DB99CF8090008B10221217544480D
:205170009CF80F2001682868D30709D5DCF81020C26001F11400A97949010022425011E06E
:2051900001F11402A979490152582261D9F80010AB7901F108020EFB03F3D158C1600020F4
:2051B000E8832877334841690A78900703D59CF80E00802800D1812005F1740A8AF800000D
:2051D0002846FDF725F8012849D0012128460DF06FF9284613F040FEFDF7A4FA01283ED091
:2051F00000F02AFDDFF89090D9F80000B8B3B9F80400AA7990421CBF4FF6FD7188422ED154
:205210001E48007A15F000F9040028D02670A879608095F83900207195F8960160719AF92E
:205230000000A071A4F808807888608115F0DCF8050004D1FF2020734FF0FF3008E02878ED
:20525000207315F07BFE0146A86815F03FFE800820612046D9F80010BDE8F44F0847BDE868
:20527000F18F00BF684E00205C4D0020183C00201C3C002040C00100E03B0020300D0020BB
:205290002DE9F84FDFF898920F460446F80B80F0FD809E4EDFF86882B80F80F0AE80B8083F
:2052B00080F0A2803809C0F02381082015F08AF9002840F09480802015F084F9002840F021
:2052D0008E8068460AF0ECFD012803D10098002800F0858000250124E8B214F029FF48B164
:2052F000837A3BB1847290F9090004FA00F0C0B212F0CEFC6D1C032DEED34546032028743D
:2053100005F1AC0015F09CFA7E480023016803607D4950F8082C98461A4640F8088C05F149
:20533000340015F0A3FA404606F09DFD3068006B8047A968401A010BA869C1F1FF32824278
:205350002CBF08444FF0FF30A861287F20B1E868A969B1EBC02F1ED914F0D0F8414600B12F
:205370002146081C14D06A4840F60901018041464180427B64F303024273027B61F303024F
:205390000273416014F0D4FF418811F4406FFBD02C774146A96111F07DFE5E484446414661
:2053B0000460022013F0D8FD022012F03DFC112008F04AFF287818B96868383015F06AFA9E
:2053D0005548007810B90E2008F03EFF687F18B16C77052012F028FC504868612C740EF09F
:2053F0004FFE27F0080783E006F0A2FF45467435286808B927F002077AE015F02DFAB3460C
:205410008246DBF85400016804208847D8B1207CC8B1454608352868A8B10646DBF80000C3
:20543000E568006B8047801BE060000BE060A84202D240194008E06040F6C41181422CBF5F
:20545000B0F5FA7FE160504615F03CFD12F020F990B1A56920466FF4807100224FF0007311
:20547000A847464606F16C052868002808BF47F0020701D00EF004FE2046646900214FF016
:2054900080630A46A04727F0005731E015F0E4F949460E6846B306F1280106C90A234FF028
:2054B000E0450B40154008BF002B1DD106F1280191E8300006F1280393E8060006F12803A9
:2054D000AA43A14383E8060015F0FCFCB16869B1002D08BF002C09D030692246B6F93C1055
:2054F000B4682B46A04701E015F0ECFC27F4804727B148463946503015F0D8F9BDE8F88F11
:20551000082F002014100440214601008C010010DC3A0020000004602EBF010075D70000E3
:20553000882F00202DE9FC47040045D0DFF8289299F80000092818BF0A2804D00B281CBFD4
:205550000C280D2801D1212003E1A078002108F0D9F9050008BF4220F6D0A0787F4908708C
:2055700005F14806F068417801F01201022902BF706900280C2012D0687AE8B1A97B0129FE
:2055900004D1B4F8030008B1812815DA6078402812DA28460BF001FBB06808B90720D8E0DD
:2055B000B46105F12207A87B00281CBF0128042813D16B48007808B91220CAE069494A780C
:2055D000824208BF0920F8D07A7F05F13801802006F0CCFA08B10B20BBE0607808B9112072
:2055F000B7E02078DFF880A1012878D1287A0021012829734FF00A0811D19AF80000402154
:2056100012F022FAB4F8030008FB00F1402013F037FD010015D1B1696079487198E00120F6
:205630002872E972697309F0C9FB68604F494161F0684178C80605D5284601F04DFA01006A
:205650000BD086E00020388014F0B6FE85F821002846FDF7A1FA01007BD1F0684178C807A1
:205670001CD505F14207B98800291CBF3068002814D03A788A4211D20F2014F0C9F968B192
:20569000F06801788DF80010B888ADF801000F2039788DF80310694613F0A0FF99F8001044
:2056B000002955D1324A107800281EBFF168487810F0030F1CBF2F4813F058FB112089F8FD
:2056D000000001202872B4F8030008FB00F1402013F0D6FC01003CD100F0AEFA38E0287AC7
:2056F000002836D02449254E0868804704469AF80000402112F0A8F90020287214F0BCFFFC
:20571000012804D014F070FE6968884217D11C4A1C481368006853F8385F0021A84740F2B6
:20573000014015F0F3FB18491848086001219AF8000007F0B7FC31682046884708E028467A
:2057500013F0A2F8316820468847284614F04EFC0020BDE8F68700BF6F4F0020583C00207F
:205770007B4F0020684E00206E4F0020D5660000784E0020CC4700205C0C0020600C002014
:20579000F04E0020EC4E0020204F0020AD6000002DE9F04F8246DAF800600C465FEA0208B1
:2057B000ADF11C0D14BF00214FF0FF3106F14800834614F041FD002818BF0B2040F00D817D
:2057D00000258848F460B8F1010F057007D06570022012F0A9FC062012F0A6FC01E0012001
:2057F00060702078012840F2AB80801E012868D9801E012833D9801E012800F2DF8015F0B3
:205810002BF806904FF0805000F5EE77D0F8DC01A378466A009321782846062908BF012035
:20583000019001200290A068228AE1686368B0478146069815F046FBB9F1000F40F0C08081
:20585000B8F1000F02D014F0C3FA02E0504612F02EFE002800F0A4803868806A2AE014F073
:20587000FBFF06904FF0805000F5EE77D0F8DC01012306680093A168A27860682478AC46DC
:20589000042C08BF9C466346B0478146069815F019FBB9F1000F40F09380B8F1000F02D07B
:2058B00014F096FA02E0504612F001FE002877D03868406880474A49C1F8B0510D608146CC
:2058D0007EE014F0C9FF06904FF0805000F5EE76D0F8DC01E38A87690093E0680190208B77
:2058F0000290A0780390207D04900121059122782846022A08BF081CE1786268A368B84726
:205910008146069815F0DEFAB9F1000F58D1B8F1000F02D014F05CFA02E0504612F0C7FD31
:2059300000283DD03068006A80475FEA000947D13068C569A168E28A2369E078A847BEE73C
:2059500014F08AFF06904FF0805000F5EE76D0F8DC01E38AC7680093E0680190208B0290C2
:20597000A0780390207D2946049001200590257805B9014608466268A368E178B847814632
:20599000069815F09FFAB9F1000F19D1B8F1000F02D014F01DFA02E0504612F088FD08B9B3
:2059B00014201AE03068406980475FEA000907D1306802692169E078904780E74FF0FF39DD
:2059D000B8F1010F05D0022012F02EF9062012F02BF9584614F05EFF484607B0BDE8F08F2A
:2059F000504502404F3C00202DE9F24F054684B02868D0F80490D9F8080015F05FFA0028F4
:205A100005F59A7B40F0078129680498096915F05DFA05F1820680463078002805F12E0478
:205A300040F6C41A00F0898070882989401E80B215F088FA3178074602290CBFBBF83000B9
:205A5000A088784300902868016900980AFB0011049815F033FA002869D07F1C039730780F
:205A7000009F02280CBFBBF83000A088C7190398029000210AFB07F0009001912868016931
:205A900000984118049815F019FA90B10098A8EB000830890AFB00F2B8FBF2F102FB118801
:205AB000B8F1000F18BF491C484301900398091802912989029841186981F1880198CF19EE
:205AD000C7193078012849D105F18601284613F095FD70896989688400202877E883E889F9
:205AF0004118A9813289A188B0898A4204BF2189884202BF7189E388994207D00009009082
:205B10007389A9795208002015F024FAA088ABF83000307920703089A0807089E080B0891B
:205B30002081284613F082FF0220307016E0307801281CBF002013F031FDA0880AFB00F0F0
:205B5000B8FBF0F700FB1788B8F1000F288918BF7F1C38186881BFB2A08847432968344ABB
:205B700008690AFB0700C9F808000B78802B10D1C860D2F83080A388D8F800004343642019
:205B9000B3FBF0F3D9F814000AFB03F3A3F5966343610B78402B36D1AF614FF4C873688ADA
:205BB0004743B7FBF3F0401C6861D9F80830181AC9F808006B69DBF8000000EB4300D9F8E7
:205BD000143058611B4833780068022B0CD1AB795B0100F1140656F8038026780AFB0688AB
:205BF00000F1140646F80380AB79126B00EB4316A388106843436420B3FBF0F30AFB03F0AE
:205C1000A0F59660F061D9F808008860E07AA072284611F0C5F96989A88915F093F9E98918
:205C3000814238BF0120ABF82E0005B0BDE8F08F40C001001C3C00202DE9F84F874E70684C
:205C500084B0009020B905B0BDE8F04F15F032B90178DFF80C92DFF80C82834FDFF80CB254
:205C700001291CBF0229042941F64C5A04D0402918BF80296FD0E8E014F0FEFC0028FAD026
:205C90000098007805F006FA054614F057FC04469BF80100002840D000F00EFC14F066FAD9
:205CB0000290016800914968019194B1009928460DF07CFB02280CD029780129DBD118B9F7
:205CD00015F03CF95044A0600120B07011203870B5E00098017880290CD108223A70019833
:205CF00098F80010406901291ABFD9F828100A7801220BE007203870019898F800104069FE
:205D100001290EBF0122D9F828104A78C2720298817900988BF8021092E0002DABD00099E6
:205D30002878A94208D1012802D1002C03D192E0002013F033FC82E001289CD1002CF6D045
:205D500015F0FCF800F5C241A068A83115F0B6F8002870D16BE09BF80100002857D000F027
:205D7000ABFB14F003FA04462068019045689BF8020014F0FBF9039014F084FC10F0070FA2
:205D900021D0B07805F086F9009014F0D7FB0290C8B1019900980DF009FB022813D000991C
:205DB0000A78012A0CD128B915F0C8F882440298C0F808A01121397001210098B1703FE00E
:205DD000002013F0EBFB0398A0421ED00198017880290BD108223A7098F800106869012939
:205DF0001ABFD9F828100A7801220AE00720387098F80010686901290EBF0122D9F82810BF
:205E10004A78C272A0798BF80200019818E014F039FC10F0070F1ED0B07805F03BF9054674
:205E300014F08CFB04462878012814D19CB115F085F85044A060112038700120B0702846E4
:205E500005B0BDE8F04F0BF05BB805B0BDE8F04F002013F0A3BB05B0BDE8F08FC43B002079
:205E700040C00100734F00206F4F0020684E00202DE9FE4F05467B48002400680094C00921
:205E900005D37948007810B9202012F039F8012D40F0E280DFF80092D9F8DC00012840F076
:205EB000D8800220C9F8DC0013F0E8FA012012F027F85FEA000805D00120C9F8DC0013F0AD
:205ED000EDFACBE014F0EEFCA34602906748684DC0F800B0A86A016801208847012804D182
:205EF00058460DF0B3F8012000906248624FC0F800B03868112014F05FFB00B101241020A3
:205F100014F05AFB08B144F002040F2014F054FB08B144F004040B2014F04EFB20B12868D5
:205F3000564E016B308888470A2014F045FB20B12868534E016B3088884752480126066030
:205F50002868816944F0200088474F48066014F02DFB00F001010191400814D2286A81683E
:205F70004A4888478246BAF1040FF7D0BAF1010F04D1286A42684548032190474449086812
:205F900020F003000860584600F090F92B683868986B8047019801280CD0BAF1010F04D134
:205FB000286A42683948314690473949086840F0030008602F4806602868416920468847ED
:205FD0000B2014F0F9FA20B128682C4BC16A188888470A2014F0F0FA20B12868284BC16A06
:205FF00018888847274806600322C9F8DC20264BC3F800B02868416B204688470128F9D12B
:206010003868042011F07CFF0446184806603868144800688009FBD30098012802D130465B
:206030000DF014F814F0B0FA082011F069FF07460298C9F8DC6014F039FF164800880CF006
:206050006DFD13F02BFA57EA040018BF4FF0FF3804E06FF0040801E06FF001084046BDE849
:20607000FE8FC04614100940340500200C400940B8010010000222432C200940AABA0100F8
:20609000A6BA0100282008608001044300400340242208400CBE01004C0400202DE9F84F6E
:2060B000DFF8F4A19AF80000002107F02BFC040004F1500602D113F071FADDE0207A30B9C3
:2060D000204612F0E1FB204613F090FF1EE0207BDFF8C881401C20730121E1723069407905
:2060F000C0B1217B814215D198F80000402111F0ABFC00202072204612F0C6FB204613F0FD
:2061100075FFFF22432120460EF00CFEBDE8F14FFFF792BD04F14509002089F8070014F0EF
:20613000C1FE73682769D3F80320014622F07F4240F6C41000FB02774FF00B0C91FBFCFCC5
:206150000B2202FB1C1189B24FF47A604143306889B200F10805C9192960216104F1220720
:206170005978CA0618D5A17B01290AD100202072204612F089FB98F80000022106F092FF88
:2061900066E090F8731001F0E00141F0860180F87310434941675BE080460020A8F8020022
:2061B00008F1600B207EA871607DC10606D5608B2968C03001EB8001CBF8001008F1880008
:2061D000217D0170617D41700021C17081603888401C388080B214F0EFF884F8210000222E
:2061F000617D01F0FE01204607F0C0FC0020E882E07D68840020688508F13E0094F82110D4
:2062100001F03F0101702A68618B02EB81022A630022028299F80010818371684A789107D3
:2062300009D5B9887980A17F01F03F0141F08001A17701218183E07FC10609D57988286B5D
:20625000C03100EB8100CBF8140002208BF813001449087880B1387F022818BF03280BD175
:20627000114F07F10D0014F049FE28B90622F91D04F1300013F00CFEFFF7DEFC4CB1706868
:20629000017E480605D55146BDE8F44F032013F0A5B9BDE8F18F00BF593C00206E4F0020CE
:2062B00000204E00784E0020D03500202DE9F84FDFF8F0B10746ABF13500DFF8DC910068B6
:2062D000800880F0D880704800680068804779490831D1F8008000254FEA28725FEA9851A1
:2062F00002F101020AD2C0F13E0110F10A0F4FEAE101D8BF08218A42B8BF0A1C634BD3F8F5
:206310007C11C1F304611629A8BF20391B68C3F30443162BA8BF203B9A465118162905DADE
:2063300011F10A0FB8BF6FF0090100E01521584B584E01F01F0242F4F8521A80326812F02B
:20635000030F18BF0125D20828BF45F002050FB145F004054A4692F90730C31A052B04DAE6
:206370009379AB4208BF918865D0DFF830E10F28A0F10F0C25DB0CEB0013A3F1F00C4FEA61
:206390002C26072E88BF07263446062C88BF06245EF82470042303EB84037446E358DB1B64
:2063B00003F0FF04EF0824BFC3F307273C44AF0824BFC3F307473C446F0828BF04EB1364B7
:2063D00001E0002426465EF826E0EF080EF0FF0324BFCEF307273B44AF0824BFCEF30747EF
:2063F0003B446F0828BF03EB1E63A4B2ACEB0626BAEB010104FB06F404F1800403EB1423EA
:20641000D8BF0121342408F0FF074C437C43B4FBF3F14FF6FF738B4238BF191C802889B2E9
:20643000918005DA10F1800FB8BF6FF07F0000E07F20D07195711A4800681F2910604FF0F0
:20645000000008D340F2FF128A4206D24908401C8A42FBD301E01F219180134F0F39090935
:2064700040EAC10047EA0001CBF8FB1F0026CBF8FF6FBDE8F88F0D490D4F4A4608200F60B6
:20649000921D1070BDE8F88FEC0100103C1100506E62084024220840F03B00209C13005007
:2064B000082009403500094000E7A48030100940FDFDA400AC3F00502DE9FE4FDFF8F481C1
:2064D00098F8011011B9002013F068F814F036FD07464FF0000907F6C4170026764D774C6E
:2064F00011E0304613F042FE417951B12968827901F8092009F101015FFA81F93946FFF734
:2065100073FA761CF6B220788642EADB98F80100814505D0002013F041F8822014F03AFD3A
:2065300098F80100012840F0A680002601E0761CF6B22078864280F29880304613F016FE83
:20655000074678790028F2D02868B979027891421CBF002013F022F8B87984E02868C05D9A
:2065700013F004FE00684268DAF808109068814204BF34467F1C00F08C808EE029680878FC
:206590000123F6B24FF4D07210E0D8F8047007F5B17CCF5C02FB07F43CF804E002FB00F411
:2065B0003CF80440A64538BF38465B1CB342ECDB06464FF6FF700BF0B7FF8246F0B213F0A2
:2065D000D5FD4FEA5A010068446840F6C410414301F5A06000270091019015E0F0B213F0CA
:2065F000C5FD01680A78802A03D1DBF81430009A5A610978402906D131498079096801EB63
:2066100040110198C8617F1C4F4550DA2868C05D0246F1B29142F6D04FF4D071D8F8043045
:206630004A43991803F5B173C9899A5A4B08934202D2891A8945E6DA13F098FD0068D0F8B5
:2066500004B0A268DBF808104FEA5A0040F6C413A1F6C41103FB002014F030FC0028BDD072
:206670002868C05DC0B2BDE8FE8F002012F096FF822014F08FFC98F8011028680DF077FA32
:206690002868007813F072FD00240168D1F804A00127661C4F45FFF661AFE4B2002C1CBF96
:2066B000F0B200287FF46AAF2868067881E73046D8E700BF684E0020004F00207B4F0020DB
:2066D0001C3C00202DE9F84F7E4A83461078002107F018F99BF80010044601291CBF002081
:2066F00012F05CFF14B9002012F058FF04F14C064FF47A67B0684178D6F804A0C8064FF02C
:206710000B0841F64C592CD50AF17800002101808170C17001714171C18001818172C17235
:20673000C160A07B01281BD014F008FC0AF108054844296814F0C2FB002811D014F0FEFB05
:206750004844286014F0AEFB0B2290FBF2F2296808FB12081FFA88F007FB00172F6027615D
:2067700083E00AF174010020088400220AF19600027042708270C2708280C2800272427223
:20679000CAF8A0200AF1080514F0D8FB2968484414F094FB88B114F0D1FB4844286014F0B7
