:20000000004000200572010001C9011001C9011001C9011001C9011001C9011001C90110E6
:1C00200001C9011001C9011001C9011001C9011001C9011001C901103FC9011089
:20003C0080B540F21C420FF2A001214810F0E6FD0121204801720221002241760270032261
:20005C001D490A700422CA700521417706201B491B4A08700721117001BD2DE9F0410FF250
:20007C00844218493820136854689568D6681769D2F814C0D2F818E0D2F81C800B604C6016
:20009C008D60CE600F61C1F814C0C1F818E0C1F81C8020322031401EE5D110685368946840
:2000BC00D26808604B608C60CA60BDE8F08100004804002151030021C1030021740300214C
:2000DC009803002100C0002115050021CB06002123070021750400218104002199040021F1
:2000FC00090800211D08002170B51D46004C204787B200007046000A054AC42804D01047D2
:20011C00034AE4320120049002490020087010479D670000DC01002103490888034A71468F
:20013C00904200D0891C08478A0100210414000010B5014800470000D509000070B5C00130
:20015C00004C2047D5460000F8B5B74CB748254660352F7B00262E7380472F73697B014304
:20017C0017D1002F15D0617E00290ED0214620310A7C5308DB0700D12676236A497B002B1D
:20019C0001D104231943114202D0217DC90600D4E675F8BD0188A64A8918032906D8A54867
:2001BC007C210185A449416201207047A34908479D4830B4014640310A7C022A16D10268D9
:2001DC00D2794A7502689368024680329360487D02280BD0002809D0C41E062C09D8954909
:2001FC00800040184038806B18189060944830BC00470320C002C8800220087230BC0320A1
:20021C00704770B5884804464034A57D012D12D0017D4906CA0F80210A54217C00290AD1E0
:20023C00603040788008C00702D0E07C000702D50120A07500E00020A07382488047A5750B
:20025C0070BD70B5784C8048254650358047022809D14034E1887D4A914204D1E97C8906A9
:20027C0001D4911DE18070BD70B56F490A8908465030D2B2282A07D10A68D2684261937A09
:20029C00D27A12029A1802830378714A002B10D08379012B0DD1037C5B09DB0709D0097D40
:2002BC006C4DC1746C7F20202043687790476C7770BDFF21C174904770BD10B566485A4C6E
:2002DC00804702280ED121464031CA885F4B9A4208D1CA7C5209D20704D0227D920601D44F
:2002FC009A1DCA8010BD70B54F485C494030C07C4009C00707D0574D59482C8B2043288316
:20031C0088472C8370BD884770BD70B5464C5549264640363579A8004018C06880470A2D0F
:20033C00214610D054310A789309DB0704D0B2730A7803231A430A702189CAB22B2A01D30E
:20035C002839218170BD5331EDE73749403108711E2822D008DC082813D00A2813D00B2818
:20037C0013D0182808D112E0252812D02A2812D03C2808D03D2812D03A4980004018C0680A
:20039C00704739487047394870473948704739487047394870473948704739487047394881
:2003BC007047F8B50746204C4E20005D8509EE07FB25002E17D0267D3407240F052C03D06C
:2003DC000124204202D012E00224FAE7C00905D0700603D54868800F012808D05B085B00C5
:2003FC005208520003E0002801D02B402A40062B03D01020022B10D010E002232A40384646
:20041C00FFF772FE002807DAC200B91A2039497E1422114200D10020F8BD02430343384664
:20043C00FFF762FEF8BD00004401002167A70000D5E7FFFFEC000021579600006396000074
:20045C0075D50000F3BC000037CB000004140000EBC80000A8000021F5B4000053AD000048
:20047C002020000080DF0000C90400218B060021670600213B060021E9050021C305002139
:20049C00830500213105002110B5034CFFF750FE20680028FAD110BD0011044010B50D4831
:2004BC00846B406B4101E004C00E014372B60A4B186882B2581510431860084880681A6033
:2004DC0062B6074A5379902253432207120FFFF735FE10BD80500440000004400040044067
:2004FC008002002168610000F825F965F9754500450045002600260057A3520052004C0086
:20051C00401F401F401F3F0000000000304000400140034007400F404F40CF40CF41CF43D9
:20053C00CF47CF4FCF3FCF2FCF1FCF0F000000000000000000000F00080000003F0000003D
:20055C0040003F000000040068000E00DC00060043001A0005000000000002000000000040
:20057C00000000000400C00000000400C000000007000000000000000000000000000000D0
:20059C0000000000304000400140034007400F404F40CF40CF7FCF6FCF5FCF4FCF3FCF2FF3
:2005BC00CF1FCF0F000000000000000050C00091007070C00091007082312100319110B1BA
:2005DC000070018101B100A18231329110B101911110418141227740F106007051C00191EA
:2005FC0030181039833108D01831416F3100319110B18314141683680070251050C0009123
:20061C00F4C340C12014036F311041045082F0229840512622C082312100319110B16339D2
:20063C003110410482C082312100319110B163393110A2C082312100319110B15010153143
:20065C00051405920070676452C0311031066131C1026A6412C13110213971065131E1029C
:20067C006A64007051C0019101CCE2C06A64676411C1C2C06A6450B054B0007140804022BC
:20069C00D6440022C94060B08180111EC944007054A064B0F0800022C9404012B09032B025
:2006BC0070C1DF6811C122C16A6470C1E46851C00191E2C0823160820200329110B130C254
:2006DC00EE68538253395339B16460C3F4688012B09032B00070676401C122C16A6401C103
:2006FC00C2C06A645382B164C012B09032B00070676472C281C06A6422C111C16A6402C0ED
:20071C0011C16A6462C031C36A6462C311C16A6402C311C16A6453825339B164E2C36F6421
:20073C0011221C4142C281C86A6452C211C16A6472C2E1CE6A6402C281C86A6402C201C825
:20075C006A64B0C030690070676442C201C86A6452C211C06A6472C2E1C06A6402C001C1F6
:20077C006A6462C001C36A6422C101C16A6462C301C16A6402C301C16A645382B164007004
:20079C008180111E5C4150B054B00071408040225D4154A064B0F180012251450070002277
:2007BC00514160B04E610000000000000000000000000000067305720B720E7250B000716E
:2007DC00818060B050A09280F0EFF19202936A6741228C458080F1C11004301601110114BB
:2007FC00016CB561B661B761B861B961BA61BB61BD61BF61C161C36126632D63F0C002046E
:20081C003231412A1214321601112114016CDA61C561E061C761CB61B561B561B561F4613F
:20083C00C561FA61C761CB61B561B561B561F461C561FA61C761CB61B561B561B561E761D1
:20085C00C561ED61C761CB61B561B561B561CF61CF61CF61CF61CF61CF61C064CF61F964A1
:20087C00CF610665CF613265CF617467CF611166CF61C0644E65F964CF610665116632653B
:20089C00CF618280E0DFF2926A67B0B0D661B1B00673057230B06C61D0CF6A6784C203C0E8
:2008BC00C0C37C64207851788278E3781579B6780062C0CF6A6784C203C0C0C37C64307871
:2008DC0061789278F3781579C6780062B0CF6A6784C203C0C0C37C6440787178A27803798D
:2008FC001579D67810922192329243925492659256911FC0FF914039F006011010311014FA
:20091C0000927067CF61E3B054A0F08050221A4640800022BE461262E3A000C860915981E9
:20093C0050B0918041228E46A0CF6A6712828231823942398B641282F2062F101F312F1449
:20095C001682D622334640C1346200C520140D6F6D39DE10F4C34E0482C082312E006D3900
:20097C00A2C082312D001A828A39FA062082803180390BC00B18BC10AC18038239149B14AF
:20099C001082F006011010311014518110140C14C622C94631D0C1266462021011C001306E
:2009BC0010C00118021882312100C126919103B013B063B053B041800122BE46B481C4913D
:2009DC00D581B51C774E95186591F080102269428C623D9110B13E9110B1E08000228146C9
:2009FC00E6228142E0B0951865910F925981F914F0805022114210228C464D6390CF6A673C
:200A1C0063B052A03082F2C02004021011C0013010C00118021882312100C1269191919117
:200A3C0013B003B063B053B064B054B0007141800122BE4663B064B0F08050221142B1810F
:200A5C00C191D1819118619131B0A4622967E0A059810582591480C0007163B0BA6A6962C3
:200A7C00E3A0018262818231823D80EFF19202936A6703A000703782473987393082803930
:200A9C00F006021011C0013010C00118021882312100C126819102B012B030824039F006CB
:200ABC00021011C0013010C00118021882312100C126919103B013B063B053B0007153A036
:200ADC0062B052B041800122BE46A481C491D581B51CFE4E95186591F0801022F0428C62AC
:200AFC00B481C491D4814518751C084FF0801022F0428C623D9110B13E9110B1E080002253
:200B1C001247E6221243E0B065910F925981F914F0805022114210228C4630632967E0A019
:200B3C00598105825914F0C0007162B0226BF062A2808B64CF6112824239F2068B6050B086
:200B5C000071CF6170CF6A67408241800122BE46A481C491D58195186591F18011228C4635
:200B7C00336B41800122BE46A481C491D581C51C1C4B95186591F08010223F438C6260CFD7
:200B9C006A67408241800122BE46B481C491D58195186591F18011228C46506B4180012226
:200BBC00BE46B481C491D581C51CB44A95186591F08010225C438C62E092D08200226B47EC
:200BDC00C0B20070A080F022874330B002C1623101C0A080001E8043F022814380F8603144
:200BFC00603981632010101A136F236E11161216826B00702DE9F047DFF8A0916849694E86
:200C1C0089F80000002008600921674801700D2141804FF48A71818064480660B77E644844
:200C3C000770FF2FF17E417008BFFF29327F8270737FC370B57F0571F67F467114D1FF2A38
:200C5C0008BFFF2B10D1FF2D08BFFF2E0CD159490A7802704A7842708A788270CA78C27037
:200C7C000A7902714979417153490278534D544EDFF850810A7042784A7082788A70C278D2
:200C9C00CA7002790A7140794F4A4871FF2028706870A870E8702871687100204B49088050
:200CBC00776B4B497878087039781170B87849490870796908794849421E0A70F878474900
:200CDC0088F80000B869086008B919F0B7FAF869434C206008B919F0B1FA2068DFF804A18B
:200CFC0001688847216851F8042F504690473E483E49CAF820003E48CAF82400386A0860C9
:200D1C0008B919F09BFA786A3A4C206008B919F095FAB86A3849086008B919F08FFA0CF0BD
:200D3C0029FB07280CD110F0D5FB99F800004FF480410CF0B5FDBDE8F047002019F07EBA17
:200D5C002E480168884721680A6807469047226852F8041F00208847F16898F800000A8849
:200D7C00274B284902431A8038460A6890470C21254800F04DF8284600F04EF800F050F823
:200D9C002248002101604FF6FF7181804FF4005199F80000BDE8F0470CF082BD6E4F00207C
:200DBC00044F0020B63F0050604E0020084F00202C4E0020E81200503C4E0020344E0020EA
:200DDC00ACCD01006C4F00207B4F00200C4F00206D4F00206B4F0020724F0020F04E002048
:200DFC00F44E00207C4B0020D5B00100F84E0020F5B00100FC4E0020F03C00200C0C00200E
:200E1C00544F0020100C0020F84D0020A03C0020DFF800F0E5710110DFF800F01D6E0110C5
:200E3C00DFF800F04D7101102DE9F04FADF1240D07900AF07BF96048007818F0E3FC5F4D24
:200E5C000024012806D90C3804D0401E0ED0401E09D006E019F0A4FD022804BF01210C1CF8
:200E7C0006D0696805E005211F2401E0032107246960534A1068C0F38150012806D152F885
:200E9C000C0C0127020E07FA02F004431AF0A8F8524AFF234018401E471C28607F1E02F80C
:200EBC00013BFBD1079A1268002702F0FF03FE2B20D0DDF81CC096463B4601260EF0FF028B
:200EDC00FF2A10D0904205D3914203D806FA02F2144201D002206CE017430EF0FF02DFF8DC
:200EFC00FCE00EF802305CF804EF5B1C0EF0FF02FE2AE5D109200EF0B9FA07980121A86084
:200F1C0005F1280018F04CFA05F19806A8464FF0010A4FF0040B0025A9460AFA05F00442DC
:200F3C0016D1074204BF05F0FF0141F4C04104D02A480799405D51F8201022480CF08AFA91
:200F5C00E8B24FF0FF3119F051FBC6F8009001E0C6F800B0D8F800006D1C361D8542DCD952
:200F7C0004A819F0F9FF184C184A2078102104AB059008F10C0016F0ABFD68461AF040F832
:200F9C00CDF80C906A4660681149029008F1640016F0CEFE0F4951F80D0C20F4F85040F4F7
:200FBC00005041F80D0C0C4FC1F8FFAF4846C7F800A009B0BDE8F08F213D0020380300200E
:200FDC00B43F0050007FC76708CD010025A601006D7601000D300940080009407C03002009
:040FFC0030BF70474B
:20100000B41200001810000015AB0110FDB301106DC00110FDAE011099B5011059BA0110D3
:0810200039BA01102D00000097
:20102800B01200003C100000B1C00110A9BF011067C0011069B80110B9B9011099B901104F
:041048003000000074
:20104C00B012000060100000BDC00110CDB30110D9BD01106DB301108DB80110D9B9011062
:04106C00310000004F
:2010700000000000A80D002004000000000000000000000020000000E8C901103000000075
:2010900028100000B00D00200400000000000000000000000C000000D8CA01101800000050
:2010B0004C100000B80D002004000000000000000000000024000000F0CA011018000000D4
:2010D00000000000C00D00200400000000000000000000001000000018CA01102C000000E0
:2010F00000100000D00D0020040000000000000000000000200000006CCA01102400000044
:20111000FFFFFFFFD80D00200400000000000000000000002800000090CA01102400000003
:20113000FFFFFFFFE00D00200400000000000000000000001400000008CB01101800000082
:20115000FFFFFFFFE80D002004000000000000000000000058000000B4C901103400000050
:20117000FFFFFFFFF00D00200400000000000000000000001000000020CB0110180000001E
:20119000FFFFFFFFF80D00200400000000000000000000001C000000B4CA0110240000004B
:2011B000FFFFFFFF000E00200400000000000000000000003800000044CA01102800000072
:2011D000FFFFFFFF080E00200400000000000000000000005400000078C901103C000000E7
:0811F0000200000020CD010007
:0411F80001000000F2
:0411FC0000000E00E1
:0412000000000F00DB
:0412040032000000B4
:0412080001000000E1
:04120C00240B00208F
:0412100000020000D8
:0412140000000000D6
:0412180001C90110F7
:04121C0000000000CE
:0412200000000000CA
:0412240008000000BE
:0412280000002200A0
:04122C00D4080020C2
:0412300000000000BA
:0412340000000000B6
:0412380008000000AA
:04123C00CC0A0020B8
:0412400000000000AA
:0412440000000000A6
:04124800080000009A
:04124C00000000009E
:04125000000000009A
:041254000000000096
:041258000000000092
:04125C00010000008D
:04126000A0090020C1
:041264000600000080
:041268000100000081
:04126C00C407002093
:04127000000000007A
:041274000000000076
:041278000002000070
:04127C00000000006E
:02128000290043
:02128200010069
:02128400250043
:02128600300036
:02128800310033
:02128A002D0035
:02128C0001005F
:01128E00015E
:0812900003000000C0CC0100C6
:0812980000000000000000004E
:0412A0000000010049
:0412A4000000030043
:0412A80013C401105A
:0412AC003FAD010051
:0412B000B812000070
:0412B400B81200006C
:0412B8000000000032
:0412BC00180D0020E9
:0412C00039AF010041
:0412C4002000000006
:0412C80078CB0100DE
:0412CC009CC90100B8
:0412D00029C101101F
:0412D400BB47010013
:0412D800DB4A0100EC
:0412DC00A1C7011095
:0412E000A3C701108F
:0412E4000000000006
:0412E800EBC901004D
:0412EC00E8C701004E
:0412F00000C8010031
:0412F400D0C701005E
:0212F8000200F2
:0212FA000900E9
:0212FC000100EF
:0212FE000000EE
:0113000001EB
:04130400ADAE010089
:0413080081860100D9
:04130C00C99E010075
:041310009D8B0100B0
:04131400B986010095
:041318001D70010043
:04131C00511C01005F
:0413200027B20100EF
:0413240085550100EA
:0413280015C70110D4
:04132C0025C70110C0
:201330002DE9F04F85B0804611F8010BDFF8FC27009008F1FD00009B182B08F1E70508F1FC
:20135000660A08F20D1B08F5B07408F1860908F59C7608F5C67700F2D683DFE813F01900CB
:201370006E007F018B00D403D403F400AF0306011C01F70003014601D403D4039F01D40305
:2013900083016901BB03060306035E02D403A90211F8010B89F80000022208F188001AF058
:2013B0002FFC0146022208F18A001AF029FC0146022208F18C001AF023FC0146022208F158
:2013D0008E001AF01DFC99F80010B9F80220490089F800105200B9F80410A9F802204900DB
:2013F000A9F804100222B9F808100901A9F80810014608F184001AF003FCBAF81E10B8F81B
:201410000800091A89B247F6FF72914229DAB9F80600B9F80410B9F80820401C490048434D
:20143000904201D33B201AE101208AF81C000020A8F81E000120307074E3052208F161006A
:201450001AF0DEFB0146022208F192001AF0D8FBB9F80C10B8F80800091A89B247F6FF7235
:20147000914280F25082012189F80A100020A8F81E0078E2A87DC20709D4687B1A2101283E
:20149000A97302D1FF220D213BE00D210AE200208AF8000008220120687408F1A80408F162
:2014B000B0001AF0ADFB0146022208F1B8001AF0A7FB0146082220461AF0A2FB06460821FF
:2014D00020461AF099FB08F19C040422314620461AF096FB042120461AF08EFB08F1A0000A
:2014F0001AF086FB08F198001AF07EFBDFF84006018841F080010180687B012807D1FF225F
:201510000421404605B0BDE8F04F11F025BC9AF811500F2D18BF142D03D00E2D18BF0C2D30
:201530000FD19AF81040404614F0E0F90421404612F020FC012C12BF29468AF81A50FD2136
:20155000B0E10421AEE10120E873EBE200208AF800008AF8060028700B21012068730020E3
:2015700068709FE101202874DCE2002302F10904CD5CE45C2543CD54541CE45C2540C55445
:201590005B1C082BF2DB9AF80600002846D0404612F05CFCBCE2002302F10907CE5CFF5CC5
:2015B0003E43CE54571CFF5C3E40C6545B1C082BF2DB02206875E87D010703D440F64800DA
:2015D000A081E08150788106CED520891B2804BF61891B2907D1A089B0F5A47F04BFE189B4
:2015F000B1F5A47FC0D014215CE19BF80000012811D011F8012B8BF8032008F5897002227E
:201610001AF0FEFA0146022208F58A701AF0F8FA01208BF800009AF80600002800F0AB81DA
:201630009BF8021000292CD1404611F017FF6FE2A87DDFF80045C10609D412218BF80C102A
:20165000404614F009FB00281BD1207863E2404614F00AFF002814D120785CE208788BF882
:201670000B008BE108782070487860709AF8100001280DD19AF811100F39012902D9C91FB2
:2016900002D04FE270734DE2387B40F0010038E205B0BDE8F04F002018F0D6BDA87DDFF8D7
:2016B0009444820709D40F218BF80C10404614F0D3FA0028E7D120782DE208784A7800EB02
:2016D00002203082CA78887800EB022070824A79087900EB0220B082CA79887900EB022011
:2016F000F082087A30768A7A487A00EB022070830A7BC87A00EB0220B0838A7B487B00EBC0
:201710000220F0830A7CC87B00EB022030848A7C487C00EB022070840A7DC87C00EB0220F7
:20173000B084487D897D00EB0120F084DFF8080401788A0658BF1A2213D508F5AA70049048
:20175000708B0390307E0290B8F808000190F08A0090B38A728A318A404611F03BFBA0B156
:201770001E22A87D410709D40F218BF80C10404614F072FA00284DD12078CCE1404605B044
:20179000BDE8F04F0F2116F077BE708AA9F80400B08AA9F80600F08AA9F80800022089F8A4
:2017B00000000020A9F80200B8F83400C01DAAF81E00B8F83210B9F80400B0EB510F02BF72
:2017D000B9F80600B8F83410884202BFB9F80800B8F83610B0EB111F1DD09AF81000012891
:2017F00004BF9AF811100F2907D09AF8150020B10F218AF81A10FE2154E0FC21404612F008
:20181000B9FAF08A0090B38A728A318A98F806001AF0E6F986E1102144E0E87D10F0090F4F
:2018300003D116218BF80C106FE148780A7800F0070002400A7008787A7B0240FA7210D0A6
:20185000501E02420BD0510704D5B87B10B10421F97204E00220024219D14008FBD1F87A7C
:2018700008B9B97AF972F87A042803D1404613F09BFDA083F87A1AF0AFF93871A28BB97B15
:20189000012315F0C7FA218B814202D208E0F872E5E7A28BB97B3879012315F0BBFA0146B6
:2018B00079801721404605B0BDE8F04F12F062BA48780A78824207D100F00700104008700D
:2018D0002ED0431E18420FD01E221821404616F0D3FD98F80610012301221E200DF08EFADB
:2018F000387B40F040000CE1F87247F6FF728878C97800EB012038813989B8F80800091A0D
:2019100089B2914201DB282136E00120B871F87A042803D1404613F047FDA083F87A0BE065
:201930009AF81100162806D1BB7A98F806101A4600200DF063FAB87A3871A28BB97B38793D
:20195000012315F067FA218B814206D3A28BB97B3879012315F05EFA014679800121387BFD
:2019700040F0400038733170DCE0142B04BF9AF80600002806D13D218BF80B1001208BF8A6
:201990000A00CFE008784A7800EB02206082CA78887800EB0220E0824A79087900EB02204B
:2019B00020828879C97900EB0120A08208F5B07108F5B0708A8AC089B97A904288BF1046CA
:2019D000042905D140F691229042B8BF4FF42960E28BE0839042B87A14BF012500250428D8
:2019F00003D1404613F0E0FC08E008F5B07008F5B0718089CA8A904288BF1046A28BA0835F
:201A100008F5B071904208F5B0704A8A008918BF0125904288BF1046228B2083904218BFE7
:201A30000125A28BB97BB87A012315F0F3F9218B814206D3A28BB97BB87A012315F0EAF9E1
:201A50000146798008F5B07008F5B0724189108A628B814288BF01466183914298F80630DB
:201A700014BF0120002005438A4234490A6802EB4311628B8041121DC00F0A7610B140468B
:201A900016F0CEFF009814280ED145B1E08B0090638BA28B218B98F806001AF099F8152191
:201AB000404610F055FC33E01DB1387840F008003870397841F02001397033E008780E2859
:201AD0000ED00F2809D0122804D014280BD0162811D027E00020307224E00120307321E032
:201AF000032068751EE0387840F00200387040F01000387016E0387B40F00200387340F0B0
:201B1000100038730EE08BF80C30404614F0A4F840B9084800784FF4804105B0BDE8F04FC9
:201B30000BF0C4BE05B0BDE8F08F00BF003C0020524F00206E4F0020144E0020E43C0020C4
:201B50002DE9F84F012016F0B9FF012819D1DFF87046207800210CF0D9FA5FEA000804BFFD
:201B7000002018F071FB002088F8080008F1040013F05EF906F0BEF9050003D181201AF091
:201B900023F818E301206871DFF838064178491C4170A879DFF8301688F80A002078087069
:201BB00005F5977440200DF079FE2860D8F854104A78D8F85000D1061AD5806D01680A79FF
:201BD000032A1CBF002018F03FFBD8F85000816D90F87C000A6802F1080601281CBF0020E2
:201BF00018F032FBD8F85000D0F88410286845E0C16E08680279032A1CBF002018F024FB06
:201C1000D8F85000C16E90F898000A6802F1080601281CBF002018F017FBD8F85000DFF89D
:201C3000AC25D0F8A0102868DFF8A495C16096F826701388032F21D8DFE807F002051018B3
:201C500001F5B06101E001F53471C160B9F80000E087B9F80000A5F8740112E0E387118800
:201C7000A5F87411C16801F5355109E0E3871188A5F87411C16801F6B87101E001F5B0614E
:201C9000C1603078DFF84C95DFF84CB5C0F3801020700622B11C05F5947018F05FFF042289
:201CB00006F10E0105F1240018F058FFD9F80000AF7900F10C03042206F10E0103EB47102B
:201CD00018F04CFFD9F80000AB7900EB4310032206F11201103018F041FF05F12C07707DA1
:201CF000B870022206F1160105F1300018F036FF022206F1180105F1320018F02FFF022261
:201D100006F11A0105F1340018F028FF38896884022206F11C0105F1360018F01FFFB878E1
:201D300079894000B8700901B88879814000B88089B2F8884000F88003046A8C521CDB0BA9
:201D50005A438A4201D280B230B99BF8000080210BF0ACFD3B2142E105F12E01284618F02A
:201D7000A3FA0520A881284618F0D2FC052206F11E0105F1610018F0F1FE96F8230040099F
:201D9000387017F0E5FF6882B8F82A10401AA08105F1610196F82300DFF8404400F01F00DE
:201DB000F873284615F079FBD8F854104A78D8F85000D10647BF0021806D0021C06E1C262F
:201DD0000268117141F62102A9792068714342520022A97971430144001D4A80A9797143C1
:201DF0004250D8F85410DFF8F8034A78D1060DD5DFF8F0138A7851060AD5DFF8EC130A8846
:201E100041F20A439A4208BFDFF8E003C5F89C01D5F89C11284688472168AB7901F10E0215
:201E30007343D054A9792068714308440021C173DFF8BC03017881B1B88870B90021797302
:201E50000120288168812846D5F89C1188472168AB7901F10E027343D054A8792168704322
:201E700001F10E02125C7A73D8F854104A78D1061CD505F5CB7A9AF8000008B918F0E4F9C0
:201E9000A9792068714308449AF800104A1E0274A979206871430844002141742068AA79DD
:201EB00000F112017243002088522AE0D8F85010236891F8402018440274A9792068714381
:201ED0000844D8F8501091F841204274D8F850002168AB79403001F1120273434188D152F1
:201EF00005F5CB710078012200F0030082400A70D8F8502092F84000800814BF012002202A
:201F10000871A979D9F800002268DFF8E8A200EB411302F1140C71434CF80130A979714309
:201F30001144B54A8A61DAF81410097895F806E0CA074CBF102200228B074CBF2023002335
:201F50005FEA417C4CBF4FF0400C4FF0000C09074CBF8021002113434CEA030308304FEAAA
:201F70004E1E0B4343F00F0300F80E30D9F80000A97900EB41100B224272D9F80010A8790A
:201F900001EB401104228A729C4A1378D9F80000A979012B00EB411002D10121C17203E0FB
:201FB000DAF828104A78C272D9F80000A97900EB41101F220276D9F80010A87901EB4011EA
:201FD00000224A76A8790DF011FCA979D9F8002049015050A9794B01D05820B907212846E2
:201FF00018F02BF8E7E08648026802EB011019F0E7FD834AA8791368D9F8001003EB001371
:202010000A1D40011350081DAA7952018058F863A87940010958796404219BF800000BF0C4
:2020300045FCD8F8540042782168D00648BF4FF0020B0BD4A87970430844007C00F0030051
:20205000022814BF4FF0040B4FF0060B684BBA881878934410B10AB9F8888344688A00FBC1
:202070000BF04FF4C872B0FBF2F2521CC5F818B06A6140F6C41CA8792B687043009001F18C
:20209000080ED8680CFB0B0B0098ABEB0202A2F5A8624EF8002001F10800AA7972438058DA
:2020B000986001F10C02A87970430C31125C02F0EF020A54A8792168704301F10C020C31BE
:2020D000125C02F07F020A54A8792168704301F10C020C31125C02F0F00242F002020A5431
:2020F000A979206871430844417B01F0F00141F0010141732068AA7900F108017243885867
:20211000296808616B69D9F80000A97997F802E05B0000F1140249010CFB0E3303F5F66338
:20213000535095F89611042907D1A979490100F11403525802F561625A50A97900EB4110D3
:20215000C27C02F0F00242F00402C274FB88D9F80010A879DAF8307001EB40123868434384
:202170006427B3FBF7F30CFB03F0A0F59660D061A87901EB4010C17E01F0F00141F00401C2
:20219000C176A97920684E432968801948600E21284611F0EFFD1B4907200870404618F0D0
:2021B0008BFDAA790021404613F074FB28681649416116498161BDE8F14F03F085BE00BF9F
:2021D0001D3D0020684E00201E3D00200E3D00200C3D0020E43C00206E4F0020E03C0020F7
:2021F00003610100003C0020504F0020AD590100784E0020ACCD01005C4D0020734F00203D
:202210008C4E00206F4F00202D790100020480802DE9F843040014D1002018F015F810E0CA
:20223000204613F019FD012808D063E08A0740F1578101F0FD0101700020B071204613F027
:2022500055FB04F16605687D002853D0697CDFF8CC94022904F1EC0704F59E7804F5B07631
:2022700004F5C67035D0042947D005295DD0062900F08B800729D3D0092900F0EF800B29B9
:2022900000F0C3800C2900F00B810D2900F0D3800E2900F0ED800F2900F02B81102900F040
:2022B0004581112900F05F81122900F01181142900F08A81162900F05D81172900F0788113
:2022D000FC2917D0FD2900F09881FE2900F0A481A2E7297C012909D199F80300002813D0A6
:2022F0001621204617F0A9FE012004E0204612F08EFE28740020BDE8F283297C012940F0B5
:20231000A78199F80200002800F0EA800021A971FF22FC21204610F01FFDA07904F1B802AD
:2023300004F1B00119F048FC8BE7297C012910D199F8020020B184F8941000203860786064
:20235000B87A01286AD1FF220621204610F004FD77E704F1E7063078012808D1204615F0D3
:2023700090FE0128C6D10020B8720120C1E770780028BFD004F1C70204F1A00104F1D7002D
:2023900019F016FC012030705BE7297C012940F0668199F80200002840D0618CE1832046A7
:2023B00013F0A4FA01202870204615F055F80120A871397A787C012900F010000FD148B117
:2023D000002088F80500D8F8001098F80600490811F0A8FDA079002119F0E6FB0FE048B1CF
:2023F000D8F80020DFF8380304F5A1735208214618F0C6FFA0790122002119F0D1FB0020DE
:2024100038723873F872B8721BE7287C012806D1F97A012904BFFF22FC2196D060E0204673
:2024300012F090F801289DD10020F87284F894000120287405E7297C012940F0148199F803
:202450000200002809D0002184F8941001202870204615F001F80120A87188E0297C01299A
:2024700040F0058199F80200D0B3618CE183E5E6287C012840F0FF80387C022804F1FD0216
:2024900004D1A179002019F087FBD7E6032840F0FB80A1791A2019F07FFB00203874CDE6A9
:2024B000287C012804F20D1140F0F9800B78012B04F5897240F0F9804878012807D153889A
:2024D000009300201388CA78A17919F061FBB5E6297C012940F0F88099F802000028F6D149
:2024F000298B481E288380B200287FF403AF2221F7E6287C012840F0EB8098F8091001292D
:2025100002D130780F281BE098F80800012826D1002188F80810288D000900901A20AA8CCF
:20253000EB8CA179520819F02FFB87E6287C012840F0D28098F80910012910D1307810281D
:202550001CBF002017F080FE002088F80900288D00090090AA8CEB8CA1797078E2E7287FD5
:202570000028E2D1BCE7297C012940F0B98099F80300F5E7297C012940F0B680017B4A0624
:202590001DD4CA0709D501F0FE0101730123A179707801220CF032FC50E68A0740F1A98093
:2025B00001F0FD0101730123A17901221A20F1E7297C012940F0AA80027B510690D5017B57
:2025D00001F0BF01017339E6297C012940F0A08001788A067FF52AAE01F0DF010A070170E0
:2025F0000AD501F0F7010170F08B0090738BB28B318BA07919F0ECFA1EE6A97EFF222046D6
:2026100010F0AAFB14E7FF22204610F0A5FBACE6002017F019FE6DE6A97E0C2918BF0E2956
:20263000F1D00F2902D01429EDD0F1E7FF22FC21204610F091FBB8F812000090B8F810307B
:20265000B8F80E20B8F80C10A07919F0C9FA51E620460FF06BF82874E88A28834AE620468D
:2026700013F0A0FCF7E7204615F038F9F3E7204611F0ECFBEFE7204611F0B2FB2874E88A11
:2026900028830120387435E6288B401E288380B20028F8D1A179222019F07EFA27E70120AC
:2026B0008870204610F0DAFED5E7288B401E288380B20028E7D15088009022201388CA78C3
:2026D000A17919F065FA12E7204613F0A5FEC2E720460DF0D9FEBEE720460DF027FFBAE7B1
:2026F000204612F075FBB6E7162120460DF08AFBB1E7288B401E288380B20028C3D1A179DA
:202710000123012222200CF079FBF0E61721ECE7142120460FF01CFE9DE700BF5C4D00200F
:20273000F93301002DE9F84FDFF84444A178FF2904BF002017F088FDA07818F07DFB04460E
:2027500004F1680604F5C9753168086804F1900710B10022E28310E0B17B002904BFB07EBC
:2027700000280AD13978002904BF2878002804D1217F012904BF608CE0832189E08B4118C2
:20279000491C6181204617F07EFC01281EBFDFF8E4030178012904D120890022401CE28333
:2027B00060814FF6FF78B07E01280DD1B28B6189208919F0E5F938B1218960894A1C93B259
:2027D00098422CD0B08B20E0387801280DD17A886189208919F0D4F938B1218960894A1CD4
:2027F00093B298421BD078880FE02878012816D16A886189208919F0C3F980B12189608912
:202810004A1C93B298420AD0688892B2904206D04044608180B219F0AFF94044E08328789E
:2028300001280DD120896988401C80B2814207D16A792A71002028701346A1790CF0DEFA41
:2028500004F59A71087920B120890021401CE183608104F12E07B07E01283ED12289B08B31
:20287000521C92B2904238D1608104F18601204617F01AFDB08C6189608400202077E083B6
:20289000E0894118A181B08B218919F075F98046B988308C728C01FB0808F08C8A4204BF10
:2028B0003989884202BFB18CFB88994207D000090090B38CA1795208002019F065F9B07F47
:2028D0003870708CB880B08CF880F08C3881204617F01EFF0220B07601E0B7F80480E28BD0
:2028F000DFF89492501C00FB08F040F6C41808FB00F100912368D3F80CC06144DFF87CC2F9
:20291000D960DCF800E09E499EF800A00B884FEA9A1ABAF1030F15D199F80FC05FEACC7E87
:2029300048BF00230ED45B1C1FFA83FCBCF1010F11BFB4F812C004F59A7CBCF806C00CF2DA
:20295000DC5C01E0B4F812C00CFB00FC4FF4C87EBCFBFEFCDFF82CA20CF1010CC4F814C054
:202970000B8084F820204FF01C0BA379A0610BFB03F3DAF800102268D2F80CE001F1080065
:20299000C058106101F10803A0790BFB00FC6069AEEB000043F80C0001F10800A3790BFBC1
:2029B00003F3C058906001F10C02A0790BFB00F00C31125C02F0F00242F002020A54DAF805
:2029D0000000A279811C0BFB02F200208852287908B917F039FCDAF80000A27900F11001AE
:2029F00028790BFB02F240088854A079DAF800100BFB00F00844002141742879042814D143
:202A1000A079DAF800100BFB00F001F110022B7A125C103142EA83020A54A179DAF8000062
:202A30000BFB01F1084420214174DAF80000A27900F112010BFB02F200238B525249A279AB
:202A50000968520101F11403D4F814C09B5801F1140E03EB4C034EF80230B27E022A0AD106
:202A7000A279520101F114033E789B5808FB063301F11406B35099F80F20D3074CD5A27905
:202A90000BFB02F200F1080300F108069B58A3F5A863B3500830A27923680BFB02F28258E6
:202AB0009A600098121A1A6101F11402A079400101F11403125802F5F6621A502879042872
:202AD00007D1A079400101F11402125802F561621A5001F11400A27952018058C4F83401E1
:202AF0002A4ABE88176B3868A57946436420B6FBF0F601F11C036D0108FB06F0A0F5966025
:202B10005851A07901EB401021490B78012B0EBF0122916A4A7819E02879A37904280CBF34
:202B30004FF4AA504FF4E66001F114025B01D258101ABA8808FB02F2A2F516729042CFD33B
:202B50000821204617F079FA01200FE0C272A179DAF800000F4A0BFB01F10844216848605E
:202B700007201070204614F0F7FF0020BDE8F28F684E0020784F00205C4D0020084F0020FB
:202B9000103D0020E03C0020E43C0020ACCD0100734F00206F4F00202DE9F84F040004BFDE
:202BB000002017F051FB04F1500941F62300D9F8006030800020708018F0DAFF00F57A6049
:202BD000B0608220307302207073B0682061207EB0730020F073D9F80400017D022904BF6D
:202BF000002017F031FBD9F80400007D012802D10020002104E083280CBF06200220202100
:202C10003074717404F1240BD9F80400DFF878834178480615D5D8F8340041690A689BF8AC
:202C30000510501C01EB4101405A7082607DC10604D5E07F40F04000E07702E040F0400054
:202C5000607506F15805002028714FF01E0A9BF81A00800000F00400287104F130002861B3
:202C7000607DC10644D506F130013162D9F8040041788A060BD5617D01F0FE016175407872
:202C900010F0030F03D1E07F00F0FE00E077607D15F0CDFF0246A275521C307CC0F380013F
:202CB000002392B200F0030014F0F8FDA0831E23A08BE27D00F5FA7100F5FA7090FBF3F393
:202CD0004A430AFB13006283C0B208B1C0F11E008018A183608380B2B168C03001EB800119
:202CF000A9600220E871E07F40F00800E07714E000213162607D40F001006075D9F80410E2
:202D10004A78510744BF40F002006075607D15F08EFFA0750020A860E871A07D217D60F36C
:202D3000050106F188002175017006F12807617D4170032181709BF81A10890001F00401F1
:202D500041F0030181709BF81B20D20002F00802114381700021C1708160BBF81C00C0F3A7
:202D70000B00ABF81C00D9F80410CA7D40EA0230ABF81C000022617D01F0FE0120460BF0E1
:202D9000F9FA40F61200B0830020F083A020706207203870607DC1064CBF002002207870E8
:202DB000E07D788041F62400388100207881618BB06800EB810038610021822038750220E6
:202DD000787594F8210000F03F00B875F975D9F80400807D012818BF022803D100F07F0040
:202DF000401E04E083280CBF06200220202179763876D8F8340041690A689BF80510501CB1
:202E100001EB4101405A788300206861D9F80400417811F0030F1BD016F046FB6861D8F88A
:202E300018000078C1074CBF1021002182074CBF2022002243074CBF4023002300074CBFE8
:202E50008020002011431943014341F00F01297600206876D9F80400807C00F0030068762E
:202E70009BF81A10890001F00401084368769BF81B10C90001F0080141F0100108436876F1
:202E90004249087838B1697E41F040016976287E00F0FE002876E07F15F0C9FE84F82000FD
:202EB00020460BF0B7FCE07FC1063AD5D9F8040094F820204178521C88074EBFD21E9BF8D2
:202ED0001F008218387EC0F380010023D2B200F0030014F0E3FCABF80000BBF8000000F577
:202EF0009671C1F11E0291FBFAF10AFB012A8BF804A0D9F804104A7891074CBF00214FF46D
:202F1000FA710818ABF80000ABF80200BBF800209BF8040039698218C03201EB82010220A5
:202F300001E000210020E961E87604F13000A862D9F804104A78687E510747BF04F138016F
:202F500040F02000124900F0DF00E9626876A17F94F8200060F30501A17740F60B00B88404
:202F70000020F884F86228700220687094F845006880D9F804004178880744BF01206880D7
:202F90000020BDE8F28F00BFACCD0100784E0020D04700202DE9F04F0546C34CA9786069EC
:202FB0000027ADF11C0D0A290FDC0A2900F0B580002900F0B481491F00F0A681491E00F079
:202FD0007581C81E00F05781D4E10B3900F08F80C91E00F08280491E0DD0481E40F0CA8147
:202FF000227817F05DFB002800F05C81104604210AF05CFC56E12E4628B143681BB1A888DB
:2030100039460A4698476078002863D0B08814F0E5FB051C00F0AE81B07A400811D36B7929
:203030007BB1012B0DD0F068800A0AD203F001033A460097A81D194613460BF0ABFC002838
:2030500043D1207A022802D1B07A00093DD3B6F804806D790C2018F035F806F10809061CCF
:2030700000F02081A6F80880B5723B463360B9F1000FF77209D04846082117F0A1FB706029
:2030900020B9304618F02EF80CE17360A069002808BFA66102D00368ABB90660304618F05F
:2030B0000FFA4A462946404607F03AFD6069002800F0F8804368002B00F0F48039464046AC
:2030D0000A469847EEE01846E5E7B088032118F04BFD4FE1B08805211CE0002800F0E28009
:2030F0004368002B00F0DE806A780221C1E017F0ADFF002800F0D680606948B104683CB1BA
:203110002869009069892A7B6B7BE81CA047C9E06889012118F028FDC4E0B8466F78002F75
:2031300040F09980A9794908C0F0958002A84146082218F033FAA88814F050FB061C09D1F3
:20315000227817F0ADFA002866D0104604210AF0ADFB61E06869002854D007464146062242
:20317000113017F0B2FBC24630B338464146062217F0ABFBE0B9387C07F11109D346474680
:2031900000F0010005907F1CFFB289F80070CDF800B005994846524653460BF0FBFB10B9D0
:2031B000002FF0D104E01FB1BAF1010F02D006E04FF0010A47466F61BAF1010F22D06869C3
:2031D00050B30746387C062207F1110100F001008DF80E0002A817F0C1FC707907F11108BD
:2031F000012805D106F10C00B11D062217F0B6FCB01D4146062217F0B1FC387C40F00200F8
:20321000707109E07079B11D062200F001008DF80E0002A817F0A2FCA9799DF80F20C1F388
:20323000800010438DF80F00080905D39DF80F0040F008008DF80F0002A8294604F06EFD46
:203250005FEA000803D1A88813F030FD02E0A88815F064FB606928B343681BB3A8886A7834
:2032700001219847A87940081CD36069032142464368A88825E73B460093E978281D0DF1D1
:20329000110201F001010BF085FB58B99DF81110480005F10C0200EB810025300421C0B232
:2032B00017F039F9012765E060050020A88815F035FB18F055FC00285CD1E07A012814D059
:2032D000207B01280DD02D4C3D4614F8010F012803D1284609F03EFC27706D1C062DF4DB65
:2032F0000CE010F055FE277308E017F0DAFC394604F120000622E17218F050F9502017F049
:203310000BFB13F035FA35E0687898BBE8786A892B7B291D00F001000AF090FE2AE068787B
:2033300040BB18F019FC054618F012FC044618F00BFC8DF8100010212A46022017F0EBF869
:2033500003201021224617F0E6F80420012104AA17F0E1F89DF81000012803D09DF81000A2
:20337000032807D1012015F043FD02460620014617F0D1F8384607B0BDE8F08F7F05002052
:203390002DE9F84F0E46700688B02AD5DFF85423107800210AF0BAFE040022D0DFF84813EE
:2033B00008688047054617F0CDFF012804D017F081FE6168884203D140F2014018F0C0FB88
:2033D00000202072201D11F033FDC8490A6828469047204617F070FCFF224321204612F02F
:2033F00059FAF0070BD517F065FE28B100218160BF48006800B1804786F001006FE1B007E9
:2034100010D5002006900021049000230290009005910393019101223C2018F08DFB86F0C4
:2034300002005CE11E277007DFF8C88240F1A080002007908346B048007800210AF066FEA0
:20345000AE4904468878FF2804BF002016F0FCFEA07A17F0F1FC0546606D807A95F82E91A5
:20347000022818BF032805F5947A06D108F10D0018F05EFB08B908F1070B5146484618F0D1
:2034900053FB88B3606D807C002818BF012804D14146504615F07CFE04E0524649464046A0
:2034B00011F01EF9FF283ED007FB00F908EB090706225146F81D17F051FB18F8090040F041
:2034D0000209F81D07900622606DC17A01F0010185F82E1107F1010A606D00F10C0105F57E
:2034F000947017F03BFB1EE05146484617F0FEFBC8B152464946404611F0F2F8FF2812D03E
:20351000474308EB070404F10D0018F011FB40B904F10D0018F00CFB002804BF607F012800
:2035300001D149F0020905F12C004B46017806914189090905916A8C079904920122C08899
:20355000029140080390CDF804B0CDF800A00020A97918F0F1FAD5F89C0169498842A879D3
:203570000CBF002101210EF06BFE86F00400B6E0300610D50020069000210490002302907B
:20359000009005910393019101223B2018F0D4FA86F08000A3E0F0045BD55A48046808F1D5
:2035B0000D0018F0C5FA002842D108F1070108F10D0018F0B5FA3BE0606D4178480704F149
:2035D0003E0523D5287802281EBF0328687801281CD1697804F13802404611F081F8FF28A1
:2035F00014D0784308EB000909F10D0018F0A0FA60B909F1070109F10D0018F091FA06229A
:2036100009F1070104F1380017F0A8FA2878022818BF03280BD108F10D0018F089FA30B9A0
:20363000062208F1070104F1300017F097FA2468002CC1D134484268344800784FF480511C
:2036500013F09CFC10B18E200FF048FB86F4805045E0B00505D517F0F7FD2D490120086016
:20367000FEE7710504D509F0ECFA86F4806036E0700405D581200FF031FB86F480402EE055
:20369000B0042BD5234C206810B1002016F0DCFD4FF0FF30206000201F4C10F06DF8216848
:2036B00051F8202F684690471C48016B426B00910192C06A24681A491A4A02910392ADF8F2
:2036D00010006B462568184A18491948A8471949086005F00DFB86F4005000E0002009B02F
:2036F000BDE8F08F1D3D00200C0C0020100C0020204F0020843600201E3D0020684E0020EE
:20371000AD590100F43C0020784E00206E4F0020FC002043044F0020F04E0020980800208F
:20373000A5B00100B5B00100303B0020980C002088490020EC4E00202DE9F0430646894DB8
:20375000B0782A780FF22029ADF13C0D00286ED0401F09D0801E00F0FE80083800F0F6800E
:20377000801E00F0EF80F9E0CE4C102021460FF03FF8717800250091012201907EA3029571
:2037900040F25D410395484604950CF039FA7078C0B9708914F078FA0127301D06211323B9
:2037B000C14E009732460EF093FA00962846019040F26A4102907DA303903A4604904846F7
:2037D0000CF01EFA102021460FF012F898B9102021460FF00DF82F46C0F10100009040F250
:2037F0006F410195012202977AA30397484604970CF006FAB2E0102021460EF0F9FF00902C
:203810002C46019540F27541012202947FA30394484604940CF0F4F9A44905A813220DF05B
:20383000F3F92846132105AA01F08AFE96E07078002840F09380347AF779B27A8DF81640D4
:20385000B0798DF81570F37A8DF81A2000248DF8140008218DF81B30777A8DF81840A0468F
:203870008DF8197005AA8DF81780404608F092FF0127B01D06211323DFF834820097424652
:203890000EF026FACDF8008040F22641A046CDF804806FA3CDF808804846CDF80C803A462F
:2038B000CDF810800CF0ACF98249B1E80C5007A8A0E80C500EC980E80E0007AB10207E49B9
:2038D0007E4A00950EF094FF4C46C0B2002837D1DFF8EC911021484613F0A0F80090CDF8B3
:2038F00004804FF487613A46CDF8088063A3CDF80C802046CDF810800CF082F910240094EB
:20391000CDF80490DFF8BC912A784346204649460EF06EFFC0B298B9122000906A4B0193C1
:203930002A78494620463B460EF062FFC0B238B966492A78204692230EF05AFFC0B268B14F
:2039500017F0EAF9304613F011FC07E0604910200EF04EFF02E0304607F084FC0FB0BDE8A9
:20397000F083C046603B002070726F6A6563745F7A65726F2E6300C04C696E6B20657374A2
:2039900061626C697368206576656E742C20737461747573203078253032782E204E756D2D
:2039B00020436F6E6E733A20256400C0436F6E6E65637465642E205065657220616464720B
:2039D0006573733A201B5B33326D25731B5B306D00C046C0436F6E74696E756520746F2011
:2039F0004164766572746973652C20256420706F737369626C6520636F6E6E656374696FD8
:203A10006E2072656D61696E00C046C04D6178204E756D626572206F6620436F6E6E6563AC
:203A300074696F6E2072656163683A2025642C204164762E2077696C6C206E6F74206265F1
:203A500020656E61626C6520616761696E00C04647415020697320737461727465642E2070
:203A70004F757220616464726573733A201B5B33326D25731B5B306D00C046C04E616D6566
:203A900020696E20616476657274446174612061727261793A201B5B33336D25731B5B30DF
:203AB0006D00C046C9890100D83B00208CCB0100C43B002094CA010031950000EF9A0100D7
:203AD000460C0020BDC50000340C0020CD6701003D7E01002DE9FC47B14CB24D2678DFF8C7
:203AF000C882B24FB249002E4FF4A05900F01781072E14D0092E18BF0A2E00F012810B2E63
:203B100018BF0C2E00F021810D2E00F0E480112E54D1A84A107800210AF0F8FA002871D00F
:203B3000C5F80080426D5378016DA34CDFF88C82DB0657D50B4641F2044EB3F802C0F445F3
:203B50001FBF5E8B7645B3F832A0F24506D041F20A4EF4451CBF7645F24502D1A7F800E066
:203B700048E04FF0000E40F601044FF4806A182606FB0EFC9E1C36F80C603E8016F47F4F25
:203B9000F5D0022E40F20681B6EB0A0617D0B6EB0A0611D04FF44064361B01D0B61E012E31
:203BB00040F2DD80361FFBD040F2FA34361BE9D0761E00F0E680F61E00F0D980A7E01E8868
:203BD000A64240F0CC800EF1010EBEF1020FCEDD58E0981C20F80C9011E0C96E0A6800209E
:203BF00010710CE0488E388041F20441401A01D0801F01D12C6045E041F206403880C5F807
:203C100000803FE06E488078FF2810D0C5F800806C4A12681C214143931C5B5A3B8013F4EC
:203C30007F4FF5D040F204441B1B012B664876D94FF47F741B1B15D00A3B012B17D940F620
:203C5000F6341B1B032B84BF5B1F012B12D99B1E012B64D940F2FD341B1B0BD05B1E012BB7
:203C700005D909E0921C41F20143535202E0921C22F80190286005E0002016F0E5FA852051
:203C900017F0A2FFBDE8FC4750480078012109F00DBE4F4C4F4A25684F4800680023CDE9F5
:203CB000002355F8089F4D4B0222C8474C49088035E0092E4ED14B490A685089002849D06A
:203CD0004949087811F03EFE0021002017F024FF0020207023E04888388002280DD940F29D
:203CF0000442801A1BD040F6FC72801A05D0083815D04FF47F72801A2CD1887B801CC2B2D3
:203D1000B52AA8BF662088730020488007E0002016F09AFA8420BDE8F64717F055BFBDE8FD
:203D3000F3874888388010F47F4FFAD040F20442801AF4D040F6FC72801ABAD00838EED039
:203D50004FF47F72801AA4D004E04888388010F47F4FFAD0002016F077FA8520DBE7807B10
:203D7000012818BF042801D0A7F8009047E7807B01287FF42EAF9A1C41F2024122F80C1003
:203D90003DE75078C2067FF528AF886D016800220A7134E7002016F057FA8320BBE700BF83
:203DB0006F4F0020204F0020E9B40100504F0020943B00201D3D0020511B00003D630000B4
:203DD000684E0020E03C0020015000006E4F0020F04E002002000080EC4E00206D6E01007D
:203DF000424F0020E83C0020714F0020BB482DE9F84F0025BA4CB849056094F8E200002857
:203E100000F06581012800F02F81B64E02283CD0032840F05C8151F8250CD4F8B81000294A
:203E3000A0F5C060C4F8D400B8BF49420028B8BF4042814226DA4FF08057D7F8A401456810
:203E5000B4F8BC0030214FF47F42082300903046A847D7F8A4014568B4F8C00004214FF480
:203E7000F802122300903046A847D7F8A401B4F8D070456820214FF440620A2330460097A1
:203E9000A847012584F8D8501CE151F8258C17F0DBF92F4600B901273946934F3868002808
:203EB000FCD0B146012609F10409D9F82CA03E6009B117F0CFF9CAF30720C4F8BC0017F0DA
:203ED000C3F9AA4600B9B2463B68002BFCD0D9F800B0BAF1000F3E6001D017F0BBF9CBF3B8
:203EF0008440C4F8C00017F0AFF9AA4600B9B2463B68002BFCD0D9F81C90BAF1000F3E60B3
:203F100001D017F0A7F9C9F38120C4F8D000B8F5C061C4F8B81000F09C8094F8D80068B94D
:203F3000C4F8D410D4F8C000C4F8C800D4F8BC70C4F8C470D4F8D030C4F8CC30D4F8D400B5
:203F5000D4F8BC30002854BF02226FF0010204F1C8010F6800EB40008018421000EB92729F
:203F700007EBA2000860D4F8C810C4F8C43000291CDD1E293CDDD4F8CC0030B93429B4BF0E
:203F900015391E21C4F8C81025E02A29BABFD4F8C8000B381E20C4F8C800D4F8C4003F288F
:203FB000B4BF401C3F20C4F8C4001FE0D4F8CC00032812D011F10B0FC6BFD4F8C8000B302F
:203FD000301CC4F8C800D4F8C4000028C4BF401E051CC4F8C450032508E011F1150FC6BFBC
:203FF000D4F8C8001530301CC4F8C800C4F8CC504FF08057D7F8A401B4F8C43030214FF472
:204010007F424568374800930823A847D7F8A40104214FF400321123456832480096A84708
:20403000B4F8C860D7F8A40104214FF4F802122345682C480096A847D7F8A40120214FF4F3
:2040500040620A23B4F8CC60456826480096A84701E084F8D85040F2FF50404502D8801C08
:2040700040452FD2082030E051F8251C1F4F4BF2F5204843060A3868C0F3814001280CD173
:204090001B4800680068804713F0C2FD17F0E8F83111C010484306EBE03694F8E50030B96F
:2040B0001448006820F07F403618760801E084F8E5501148310C0660012741600F4D8760F7
:2040D000287808B90B2000E0052084F8E40005F0F1FABDE8F88FC0462D400C402C500C404C
:2040F0004C04002000A00C4000800C40B43F0050EC010010102009403C600C4031CB0100EA
:204110002DE9FC47C1480278112A47D1C04B1878002109F0FBFF04000AD1002016F094F820
:20413000002016F091F8BDE8F647FF2017F04CBD04F14C0898F8000008B90121E172451C3F
:2041500088F80050E9B2E07DD8F80490814209F1400A24D299F80E00401C89F80E00D8F8CC
:2041700008104A7AD9F80810520802F0010282F00102101889F80E00A08B01EB8001C9F896
:204190000810627DD30609D5628B98F8003000FB1320C03001EB8001CAF8201033E104F12E
:2041B000280609F174074ED1A07F3875E17F7975D8F808205278930710D5E27FD30604D5BF
:2041D000C01E387501F0EF0179750020386089F873000022797D01F0FE010EE1900607D461
:2041F000F08B00B1F07EF875F08B00B1306AF861D8F808004178C8070BD5F18B00291CBFC9
:20421000306A002805D0F861B07E884238BF0146F975E07FC1060CD5D9F83800317800EB56
:204230008100C9F83800A18CC03100EB8100022101E000200021386089F873100022E17F07
:2042500001F0FC01D9E0D8F808104978CA0716D5787D397D00F0F700891E01F03F0182074F
:204270005CBF891D40F00200420644BF491E00F0BF00787539750020F861F875C3E0A28C88
:204290002D1AD9F838008907EDB200EB820075D5012D41D1C9F83800A07F00F03F00A0773A
:2042B0003875801EE17F7975387501F0F7017975D8F8082053785A0704D5801F387501F097
:2042D000FD01797500233A7DF17E9AF8000002F03F028A18521CC0F3800192B200F0030059
:2042F00013F0DCFA00F5FA70A0841E21A08C90FBF1F18AB2797D01F0FE0120460AF03AF8C6
:20431000002089F87300F08B00B1F07EF875F08B00B1306AF86176E0022DC9F8380026D1DE
:20433000E07FC10706D5387D811F3975787D00F0FE00787500233A7DF17E9AF8000002F0CB
:204350003F028A18521CC0F3800192B200F0030013F0A4FA00F5FA70A0840022797D01F064
:20437000FE0120460AF006F8707FAAF81A00707F401C451BE8B2012812DD07E0C9F83800E8
:20439000E17F707F451BCA06E8B209D5A28CD9F83810C03201EB82013960022189F87310AE
:2043B00088B3F969F27EE37FA57F1144F96159084FEA410AD8F8081049784A0748BF2AF0AB
:2043D000020A890748BF2AF0080A012807D1307FF8752AF0100A0020386089F8730050466B
:2043F00014F025FC05F0C00500F03F0005433D7587F815A000220AF0FC01204602B0BDE89B
:20441000F04709F0B7BFBDE8F38700BF6F4F00201D3D00202DE9F041A04EA1493046ADF17D
:20443000600D11F059FF9F4C0021204617F070FB9D48046013F072F89C4816F0D7FF9C4868
:204450000327002407709B489C4904709A480CF0B3F99B4D0FF2E818286078B92046009029
:20447000019040F25E2102903A46039078A3049040460BF0C5FB17F047FB2868914916F09C
:20449000F5FE70B120460090019040F2652102903A46039076A3049040460BF0B1FB17F033
:2044B00033FB27460D2000978849019086483222234611F051FC9A494FF4FA620125086042
:2044D0001346009583488449019711F045FC804922461523814C08601020814900940EF042
:2044F00087F98049102002233A460EF081F916A800908DF858508DF859504FF480628DF8C3
:204510005A70794C8DF85B502B46102021460EF06FF90DF1590040F2024200902B46214629
:2045300010200EF065F90DF15A0040F2034200902B46214610200EF05BF90DF15B0040F29B
:20455000064200902B46214610200EF051F9674910204FF0FF320EF04BF9654910204FF074
:20457000FF320EF045F915F0F3FA344620780DF03DFC20780AF0DAFF20780BF03FFA5D48A8
:204590000AF020FF5C480AF053FD5C480AF0ACFD05A8394628220EF05FFC59490FA81C2257
:2045B0000CF032FB38461C210FAA07F043F93846052105AA07F03EF93846294605AA02F00C
:2045D000D9FE38461C210FAA00F0BAFF2846142105AA00F0B5FF4B494B4A10200EF008F989
:2045F0002178502015F0ECF84849024610200EF0FFF82178502015F0E3F8454902461020CC
:204610000EF0F6F843491020FB2240F648030EF0EFF8414910200EF0EBF84FF6FD7015F00D
:204630001FF92178502015F0CBF80097034604223A49019710200EF0DBF818B0BDE8F08181
:2046500070726F6A6563745F7A65726F2E6300C04572726F7220696E697469616C697A6983
:204670006E6720627574746F6E2070696E7300C04572726F72207265676973746572696E99
:204690006720627574746F6E2063616C6C6261636B2066756E6374696F6E00C0543B0020A5
:2046B000583B0020543C00205C3B0020983C0020203D00204D390020603C0020700D002060
:2046D000643B0020F11801000C3B00209D320100703B0020E83A00209DF600003C0B0020C3
:2046F0007154010061890100716B00005D9E010079A30100680D0020580D0020600D00205D
:20471000B0CA010061A50100500D0020518801103181011021B10010351301006D840000C1
:204730006C3B00202DE9F04F09AFADF13C0D08900A92388809911E46ADF81800101C08BF0C
:20475000002000F06C81017800274FF0010B401C4FF0FF39B846DA460A9058E1252940F01F
:204770004D810178401C0A902D2918BFADF8068004D10178ADF806B0401C0A9030291CBFC1
:204790004246434604D10178401C5A465B460A902A29CDF800804D4617D1049330680A9B8C
:2047B000CDF80890C01C20F00300001D306050F8044C1978002C009403F101000A9018D58B
:2047D000ADF806A06442009413E044460AE0600000EBC4004018A0F130040A980178009402
:2047F000401C0A90302901DB3A29F0DBCDF8089004932E2929D10178401C2A290A9011D167
:204810003168CDF80880C91C21F00301091D316051F8045C002D48BF454601782B46401C43
:204830000A9011E0454643460AE0680000EBC5004018A0F130050A9801782B46401C0A9027
:20485000302901DB3A29F0DB02930AB1224604926C2904D04C2918BFADF8048004D101786B
:20487000ADF804A0401C0A900BA8CDF80C800FAB07906429059379D0692977D0BDF818C0C0
:20489000752965D0782961D06F295DD0702946D0632936D073291AD00A98401E0A9009989C
:2048B000012812D961490C68B5F1FF3F03D0A84288BF6D1C00D8099D029508A80AA9324655
:2048D0006B46A0473F18039865E0454617E03068C01C20F00300001D306050F8040CBCF13E
:2048F000010F014608B94FA00146079116F0CCFA0390B5F1FF3F4FD0A8424DD9039528464A
:204910004AE03068C01C20F00300001D306010F8040C8DF82C005D46039558463CE0082043
:2049300035680490E81C20F00300001D306050F8041C082210230FA80FF034F8401E0790D6
:2049500040210170079823E0082302E0102300E00A233068C01C20F00300001D306050F80A
:20497000041CAA42BCBF2A1C04920DE03068C01C20F00300001D306050F8041CAA42BCBFD4
:204990002A1C04926FF009030FA80FF00BF807900599081A0390009C241ABDF806500094A4
:2049B0005DB906E008A8202109AA14F0DFFE7F1C009C641E0094F5D50398401EB0F1FF3F77
:2049D00003900FD1BDF8060001281CD10098401E009018D408A8202109AA14F0C7FE00980C
:2049F0007F1CF4E70798017809AA08A814F0BEFE0798401C079003987F1CDEE708A809AA06
:204A100014F0B4FE7F1C0A980178401C0A9000297FF4A4AE089808B14146017038460FB0A8
:204A3000BDE8F08F286E756C6C2900C07CCD01002DE9F84306460D46707801071DD4D6F88D
:204A50000310B54821F07F41203981423FBFD6F8061021F07F412039814228BF112033D25D
:204A7000B01DF11C88425FD3B07A002818BF012803D0022818BF032856D1B07C002818BFAD
:204A9000012803D0022818BF03284DD1307D012818BF022803D0832818BF032844D1707A6A
:204AB00010F0070070723FD03078012109F02EFB04000AD1002012F047FC044616F064FD0D
:204AD000844214BF07200D2024E104F15402002016606072207A012808BF0C20F4D0002186
:204AF000E17500200121737A01FA00F73B4208D0E37D5B1CE375DBB2012B04BF00F1250316
:204B10002376401C0328EEDB7078C10618D5317D012909D1102810D012280CD0132804D011
:204B3000152804D01D2804D09FE0002006E0042004E0012002E0022000E00320A0735EE035
:204B5000FF20A073307D02281EBF717801F003000328E9D00B07E7D408B18806E4D4480783
:204B700007D516F10C00DFD0F07A002818BF01287BD100206075E077707810F0030F27D16B
:204B9000207D00F03F0020757078810605D45168002904BF9068002801D0182161757078CF
:204BB00081060DD4307D832818BF032804D1182060750120E07703E0607D40F00100607503
:204BD0007078410717D5E07F40F00200E07712E0217DC0074CBF0120022001F03F0141EAC0
:204BF00080111820607521750920E0777078410744BF0B21E177207D00F0C000A07796F947
:204C100013007F2806BF4548007810F017FE04F12907387045B14248416B48693978026826
:204C300001EB4101505C2870B07ADFF8F880DFF8F8903E4D002818BF012809D17875B07A76
:204C5000C10758BFC8460622414604F130002FE005F10D0016F06CFFB8B1B07AC10754BF92
:204C70004946414616F042F808B9122052E0B07AC10754BF49464146062204F1300015F03C
:204C90006DFFB07A00F0010006E00622E91D04F1300015F063FF03207875B07A00F00100B2
:204CB0002870B17AC80758BFC84606224146681C15F054FF7078410729D5B07A022818BF49
:204CD00003281BD1F17A06F10C0201F0010128460FF006FDFF2811D01E214843054405F1C9
:204CF0000D0016F025FF48B9E91D05F10D0016F017FF0120B8750622E91D04E0F07AB87550
:204D1000062206F10C0104F1380015F027FF012060720020BDE8F283E0FFFF00714F002014
:204D3000ACCD0100344E00202C4E0020843600202DE9F04F8946804609AF99F800003E79E9
:204D50001C4600254FF0FF0BADF11C0D02283F88059206D1D9F80400008842F602118142E2
:204D70007CD048460FF04AF960A371A10028069030D0401E1FD0401E0ED02846009001901C
:204D90004FF4257102900322039051A304904CA00AF036FF0A208FE00091CDF8048048A0E2
:204DB00002940122039740F28F2104960AF028FF8B4E0A201CE060A00090CDF8048040F2E9
:204DD00081210294012203973DA004960AF018FF844E0CE00091CDF8048039A0029401221C
:204DF000039740F2722104960AF00AFF7E4E1420B84215DD07EB040A50450BDBD9F80C0063
:204E100005992246C0190BF0FFFEDDF818B0A6F800A013E0284640F29F2149A30D2504E07B
:204E3000284640F29A214FA3072500900190029003900322049022A00AF0E2FEBBF1FF0F94
:204E50000AD06A48006838B106682EB10699059BE4194046A2B2B04728462DE0FE2E0CBF99
:204E700049A650A648460FF0C9F8009040F25121CDF80480012202964DA3039510A00495E6
:204E90000AF0BEFE009703200190059A23464946404610F08BFE0646544807685EB957B1E5
:204EB000786840B148460FF0A9F82246059B7C6801464046A047F0B207B0BDE8F08FC046C0
:204ED000646174615F736572766963652E6300C041747472696275746520776173206E6F6B
:204EF0007420666F756E642E00C046C05772697465417474724342203A20257320636F6E61
:204F10006E48616E646C6528256429206C656E28256429206F666673657428256429206DA6
:204F30006574686F64283078253032782900C046537472696E6700C053747265616D00C0EC
:204F5000496E76616C69642076616C7565206C656E6774682077617320726563656976652D
:204F7000642E00C0416E20696E76616C6964206F6666736574207761732072657175657352
:204F90007465642E00C046C02D20726573746F72696E6720626F6E646564207374617465D9
:204FB00000C046C02D204F5441207772697465005772697465417474724342202843434363
:204FD00044293A20706172616D3A20256420636F6E6E48616E646C653A2025642025730051
:204FF000760C0020720C00206E0C0020680C0020A3488078FF2800D170472DE9F84F15F03F
:205010001BFF054605F217100178012908BF417800F0A98005F17400817B022903D105F166
:2050300074020020907305F59274E18911B1207B08F03CFC6889DFF84CC2DFF84C9228819C
:2050500005F58D779CF80A009CF807209CF80C109CF80B30B7F800E000EB0208884498443E
:205070009CF80D309844C644A7F800E0BB88B7F802E05B1CBB808644A7F802E04FF01C0EB0
:205090002368E3B1D9F8006095F806B006F10E0A0EFB0BFB0E361AF80BA033F81AB0C34452
:2050B00023F81AB095F806A00EFB0AFA16F80A6003EB4606B6F84AA08244A6F84AA0002AF9
:2050D00004BF9CF80B20002A05D1002904BF9CF80D10002926D02989E88941180026A981B6
:2050F0002E74287F012804BF698CE9839CF8010068B1012105F1740229779078002804BF3B
:20511000917B002903D1107F08B9698CE983207D002832D0022804BF9CF80B00002827D152
:20513000002129E0E98340B1002028740126287F012806D1698CE98303E0F888401C022606
:20515000F880A8892989814206D08842CED2081A41F2AB029042C9DA287C08B1052901D00E
:20517000082100E03E212846BDE8F44F14F065BF9CF8090008B10221217544489CF80F20DB
:2051900001682868D30709D5DCF81020C26001F11400A97949010022425011E001F1140209
:2051B000A979490152582261D9F80010AB7901F108020EFB03F3D158C1600020E8832877D2
:2051D000334841690A78900703D59CF80E00802800D1812005F1740A8AF800002846FDF795
:2051F00017F8012849D0012128460DF0E7FE284614F088FCFDF796FA01283ED000F064FED9
:20521000DFF89090D9F80000B8B3B9F80400AA7990421CBF4FF6FD7188422ED11E48007A6A
:2052300015F058FF040028D02670A879608095F83900207195F8960160719AF90000A0717F
:20525000A4F808807888608115F034FF050004D1FF2020734FF0FF3008E02878207316F0E6
:2052700087FC0146A86816F04BFC800820612046D9F80010BDE8F44F0847BDE8F18F00BF8C
:20529000684E00205C4D0020E03C0020E43C0020ACCD0100A03C0020F40C00202DE9F84FF0
:2052B000DFF898920F460446F80B80F0FD809E4EDFF86882B80F80F0AE80B80880F0A280EA
:2052D0003809C0F02381082015F0E2FF002840F09480802015F0DCFF002840F08E8068461B
:2052F0000BF0A8FB012803D10098002800F0858000250124E8B215F081FD48B1837A3BB105
:20531000847290F9090004FA00F0C0B213F0B8FA6D1C032DEED345460320287405F1AC007A
:2053300016F0F4F87E480023016803607D4950F8082C98461A4640F8088C05F1340016F03A
:20535000FBF8404607F039F83068006B8047A968401A010BA869C1F1FF3282422CBF08446C
:205370004FF0FF30A861287F20B1E868A969B1EBC02F1ED914F018FF414600B12146081C6C
:2053900014D06A4840F60901018041464180427B64F303024273027B61F3030202734160A4
:2053B00015F02CFE418811F4406FFBD02C774146A96112F04BFC5E484446414604600220AC
:2053D00014F020FC022013F027FA112009F040FB287818B96868383016F0C2F85548007874
:2053F00010B90E2009F034FB687F18B16C77052013F012FA504868612C740FF0F9FB27F0AC
:20541000080783E007F03EFA45467435286808B927F002077AE016F085F8B3468246DBF8C5
:205430005400016804208847D8B1207CC8B1454608352868A8B10646DBF80000E568006B86
:205450008047801BE060000BE060A84202D240194008E06040F6C41181422CBFB0F5FA7FD9
:20547000E160504616F048FB12F00AFF90B1A56920466FF4807100224FF00073A847464699
:2054900006F16C052868002808BF47F0020701D00FF0AEFB2046646900214FF080630A4696
:2054B000A04727F0005731E016F03CF849460E6846B306F1280106C90A234FF0E0450B4073
:2054D000154008BF002B1DD106F1280191E8300006F1280393E8060006F12803AA43A14328
:2054F00083E8060016F008FBB16869B1002D08BF002C09D030692246B6F93C10B4682B466D
:20551000A04701E016F0F8FA27F4804727B148463946503016F030F8BDE8F88FE02E0020EC
:2055300014100440915101008C010010B03B00200000046092CC01007DDF0000602F00209A
:205550002DE9F04F9246024690480D460168002456A30FF2201B2746ADF1140D101C36D07B
:20557000401E22D0401E0ED000922046019740F25B11029043A303900322049058460AF005
:205590003FFB022073E050A000902646019540F25711029701220396584604960AF030FB7E
:2055B000DFF8EC917B4E0A2022E049A00090884601950122029740F24F1103975846049794
:2055D0000AF01EFBDFF8D091744E01270FE042A00090264601954FF4A27102970122039678
:2055F000584604960AF00CFBDFF8B4916D4E1420A8422EDB484651462A460BF005FB002FA5
:20561000358033D098F80200002808BF34A103D001280CBF39A13FA1B8F800002546009040
:205630000122019140A302955846039540F26D1104950AF0E5FA08205B4F00905B4E5C4B21
:2056500038784946224601904046029609F060FE0CE00095019440F27B11032202903DA322
:205670000394584604940AF0CBFA1824204605B0BDE8F08F646174615F7365727669636529
:205690002E6300C0536574506172616D657465723A20506172616D657465722023256420F5
:2056B0006E6F742076616C69642E00C0536574506172616D65746572203A202573206C659B
:2056D0006E3A20256400C04654696D6500C046C053747265616D00C0537472696E6700C0AB
:2056F0001B5B33336D4E6F74692F696E642064697361626C65641B5B306D00C04E6F746988
:205710006669636174696F6E20656E61626C656400C046C0496E6469636174696F6E2065F4
:205730006E61626C656400C0547279696E6720746F2073656E64206E6F74692F696E643A6B
:2057500020636F6E6E48616E646C652025782C20257300C04C656E677468206F7574736908
:20577000646520626F756E64733A204C656E3A202564204D696E4C656E3A202564204D6135
:20579000784C656E3A2025642E00C046D43C00202E0D0020760C0020CF0B0020720C002086
:2057B000E30B00206E0C00206C0C002055980000C80600202DE9FC47040045D0DFF82892BB
:2057D00099F80000092818BF0A2804D00B281CBF0C280D2801D1212003E1A078002108F07B
:2057F00095FC050008BF4220F6D0A0787F49087005F14806F068417801F01201022902BF77
:20581000706900280C2012D0687AE8B1A97B012904D1B4F8030008B1812815DA607840288B
:2058300012DA28460BF039FFB06808B90720D8E0B46105F12207A87B00281CBF0128042864
:2058500013D16B48007808B91220CAE069494A78824208BF0920F8D07A7F05F138018020D4
:2058700006F02EFC08B10B20BBE0607808B91120B7E02078DFF880A1012878D1287A002153
:20589000012829734FF00A0811D19AF80000402112F0D2FEB4F8030008FB00F1402014F034
:2058B00045FA010015D1B1696079487198E001202872E972697309F0F1FF68604F494161B1
:2058D000F0684178C80605D5284601F04DFA01000BD086E00020388015F0D4FB85F82100CD
:2058F0002846FDF759F901007BD1F0684178C8071CD505F14207B98800291CBF3068002882
:2059100014D03A788A4211D20F2014F0F3FE68B1F06801788DF80010B888ADF801000F207A
:2059300039788DF80310694614F0AEFC99F80010002955D1324A107800281EBFF16848789F
:2059500010F0030F1CBF2F4814F066F8112089F8000001202872B4F8030008FB00F1402001
:2059700014F0E4F901003CD100F0AEFA38E0287A002836D02449254E0868804704469AF8B5
:205990000000402112F058FE0020287215F0DAFC012804D015F08EFB6968884217D11C4A35
:2059B0001C481368006853F8385F0021A84740F2014016F0C5F818491848086001219AF88B
:2059D000000007F073FF31682046884708E0284613F096FD316820468847284615F06CF9EE
:2059F0000020BDE8F68700BF6F4F00201C3D00207B4F0020684E00206E4F002065690000D4
:205A1000784E0020CC4700200C0C0020100C0020F04E0020EC4E0020204F00203D63000002
:205A30002DE9F04F8246DAF800600C465FEA0208ADF11C0D14BF00214FF0FF3106F14800F9
:205A5000834615F05FFA002818BF0B2040F00D8100258848F460B8F1010F057007D0657004
:205A7000022013F061F9062013F05EF901E0012060702078012840F2AB80801E012868D91F
:205A9000801E012833D9801E012800F2DF8015F049FD06904FF0805000F5EE77D0F8DC011C
:205AB000A378466A009321782846062908BF0120019001200290A068228AE1686368B04757
:205AD0008146069816F018F8B9F1000F40F0C080B8F1000F02D014F0E1FF02E0504613F029
:205AF00012FB002800F0A4803868806A2AE015F019FD06904FF0805000F5EE77D0F8DC01FA
:205B1000012306680093A168A27860682478AC46042C08BF9C466346B0478146069815F0F4
:205B3000EBFFB9F1000F40F09380B8F1000F02D014F0B4FF02E0504613F0E5FA002877D065
:205B50003868406880474A49C1F8B0510D6081467EE015F0E7FC06904FF0805000F5EE7661
:205B7000D0F8DC01E38A87690093E0680190208B0290A0780390207D04900121059122783C
:205B90002846022A08BF081CE1786268A368B8478146069815F0B0FFB9F1000F58D1B8F19F
:205BB000000F02D014F07AFF02E0504613F0ABFA00283DD03068006A80475FEA000947D1EF
:205BD0003068C569A168E28A2369E078A847BEE715F0A8FC06904FF0805000F5EE76D0F893
:205BF000DC01E38AC7680093E0680190208B0290A0780390207D29460490012005902578D5
:205C100005B9014608466268A368E178B8478146069815F071FFB9F1000F19D1B8F1000FBF
:205C300002D014F03BFF02E0504613F06CFA08B914201AE03068406980475FEA000907D142
:205C5000306802692169E078904780E74FF0FF39B8F1010F05D0022012F0DEFD062012F0E5
:205C7000DBFD584615F07CFC484607B0BDE8F08F50450240133D00202DE9F24F054684B09B
:205C90002868D0F80490D9F8080015F031FF002805F59A7B40F0078129680498096915F067
:205CB0002FFF05F1820680463078002805F12E0440F6C41A00F0898070882989401E80B223
:205CD00015F05AFF3178074602290CBFBBF83000A088784300902868016900980AFB00116C
:205CF000049815F005FF002869D07F1C03973078009F02280CBFBBF83000A088C719039897
:205D1000029000210AFB07F0009001912868016900984118049815F0EBFE90B10098A8EBC1
:205D3000000830890AFB00F2B8FBF2F102FB1188B8F1000F18BF491C4843019003980918A3
:205D500002912989029841186981F1880198CF19C7193078012849D105F18601284614F05D
:205D7000A3FA70896989688400202877E883E8894118A9813289A188B0898A4204BF21892B
:205D9000884202BF7189E388994207D0000900907389A9795208002015F0F6FEA088ABF85C
:205DB0003000307920703089A0807089E080B0892081284614F0ACFC0220307016E03078E4
:205DD00001281CBF002014F03FFAA0880AFB00F0B8FBF0F700FB1788B8F1000F288918BFC1
:205DF0007F1C38186881BFB2A08847432968344A08690AFB0700C9F808000B78802B10D138
:205E1000C860D2F83080A388D8F8000043436420B3FBF0F3D9F814000AFB03F3A3F59663C9
:205E300043610B78402B36D1AF614FF4C873688A4743B7FBF3F0401C6861D9F80830181ABA
:205E5000C9F808006B69DBF8000000EB4300D9F8143058611B4833780068022B0CD1AB7922
:205E70005B0100F1140656F8038026780AFB068800F1140646F80380AB79126B00EB4316F8
:205E9000A388106843436420B3FBF0F30AFB03F0A0F59660F061D9F808008860E07AA072B3
:205EB000284611F059FE6989A88915F065FEE989814238BF0120ABF82E0005B0BDE8F08F8A
:205ED000ACCD0100E43C00202DE9F84F874E706884B0009020B905B0BDE8F04F15F004BEF1
:205EF0000178DFF80C92DFF80C82834FDFF80CB201291CBF0229042941F64C5A04D0402961
:205F100018BF80296FD0E8E015F01CFA0028FAD00098007805F068FB054615F075F904466D
:205F30009BF80100002840D000F00EFC14F084FF0290016800914968019194B100992846E9
:205F50000DF0BAFF02280CD029780129DBD118B915F00EFE5044A0600120B070112038706E
:205F7000B5E00098017880290CD108223A70019898F80010406901291ABFD9F828100A78A1
:205F900001220BE007203870019898F80010406901290EBF0122D9F828104A78C27202987F
:205FB000817900988BF8021092E0002DABD000992878A94208D1012802D1002C03D192E025
:205FD000002014F041F982E001289CD1002CF6D015F0CEFD00F5C241A068A83115F088FD36
:205FF000002870D16BE09BF80100002857D000F0ABFB14F021FF04462068019045689BF89D
:20601000020014F019FF039015F0A2F910F0070F21D0B07805F0E8FA009015F0F5F8029005
:20603000C8B1019900980DF047FF022813D000990A78012A0CD128B915F09AFD8244029855
:20605000C0F808A01121397001210098B1703FE0002014F0F9F80398A0421ED00198017869
:2060700080290BD108223A7098F80010686901291ABFD9F828100A7801220AE007203870DC
:2060900098F80010686901290EBF0122D9F828104A78C272A0798BF80200019818E015F032
:2060B00057F910F0070F1ED0B07805F09DFA054615F0AAF804462878012814D19CB115F08C
:2060D00057FD5044A060112038700120B070284605B0BDE8F04F0BF0DBBC05B0BDE8F04F7C
:2060F000002014F0B1B805B0BDE8F08F843C0020ACCD0100734F00206F4F0020684E00203A
:206110002DE9FE4F05467B48002400680094C00905D37948007810B9202012F0E9FC012DE6
:2061300040F0E280DFF80092D9F8DC00012840F0D8800220C9F8DC0013F0F6FF012012F01C
:20615000D7FC5FEA000805D00120C9F8DC0013F0FBFFCBE015F00CFAA34602906748684DE6
:20617000C0F800B0A86A016801208847012804D158460DF0F1FC012000906248624FC0F8F2
:2061900000B03868112015F07DF800B10124102015F078F808B144F002040F2015F072F8E8
:2061B00008B144F004040B2015F06CF820B12868564E016B308888470A2015F063F820B1F3
:2061D0002868534E016B308888475248012606602868816944F0200088474F48066015F0C5
:2061F0004BF800F001010191400814D2286A81684A4888478246BAF1040FF7D0BAF1010FB6
:2062100004D1286A42684548032190474449086820F003000860584600F090F92B68386813
:20623000986B8047019801280CD0BAF1010F04D1286A42683948314690473949086840F029
:20625000030008602F48066028684169204688470B2015F017F820B128682C4BC16A188895
:2062700088470A2015F00EF820B12868284BC16A18888847274806600322C9F8DC20264B74
:20629000C3F800B02868416B204688470128F9D13868042012F02CFC044618480660386881
:2062B000144800688009FBD30098012802D130460DF052FC14F0CEFF082012F019FC074601
:2062D0000298C9F8DC6015F00BFC164800880DF0ABF913F039FF57EA040018BF4FF0FF38B7
:2062F00004E06FF0040801E06FF001084046BDE8FE8FC04614100940340500200C400940DD
:20631000B8010010000222432C200940B0C70100ACC70100282008608001044300400340C1
:20633000242208402CCB01004C0400202DE9F84FDFF8F4A19AF80000002107F0E7FE0400FB
:2063500004F1500602D113F07FFFDDE0207A30B9204613F0D5F8204614F0AEFC1EE0207B6B
:20637000DFF8C881401C20730121E17230694079C0B1217B814215D198F80000402112F08E
:206390005BF900202072204613F0BAF8204614F093FCFF22432120460FF07CFABDE8F14F8E
:2063B000FFF792BD04F14509002089F8070015F093FB73682769D3F80320014622F07F4297
:2063D00040F6C41000FB02774FF00B0C91FBFCFC0B2202FB1C1189B24FF47A60414330688A
:2063F00089B200F10805C9192960216104F122075978CA0618D5A17B01290AD100202072E8
:20641000204613F07DF898F80000022107F04EFA66E090F8731001F0E00141F0860180F849
:206430007310434941675BE080460020A8F8020008F1600B207EA871607DC10606D5608B4D
:206450002968C03001EB8001CBF8001008F18800217D0170617D41700021C1708160388859
:20647000401C388080B214F00DFE84F821000022617D01F0FE01204607F07CFF0020E882C8
:20649000E07D68840020688508F13E0094F8211001F03F0101702A68618B02EB81022A6385
:2064B0000022028299F80010818371684A78910709D5B9887980A17F01F03F0141F0800133
:2064D000A17701218183E07FC10609D57988286BC03100EB8100CBF8140002208BF81300EA
:2064F0001449087880B1387F022818BF03280BD1114F07F10D0015F01BFB28B90622F91D20
:2065100004F1300014F02AFBFFF7DEFC4CB17068017E480605D55146BDE8F44F032013F02C
:20653000B3BEBDE8F18F00BF1D3D00206E4F002000204E00784E0020843600202DE9F84F14
:20655000DFF8F0B10746ABF13500DFF8DC910068800880F0D8807048006800688047794988
:206570000831D1F8008000254FEA28725FEA985102F101020AD2C0F13E0110F10A0F4FEA4A
:20659000E101D8BF08218A42B8BF0A1C634BD3F87C11C1F304611629A8BF20391B68C3F389
:2065B0000443162BA8BF203B9A465118162905DA11F10A0FB8BF6FF0090100E01521584B66
:2065D000584E01F01F0242F4F8521A80326812F0030F18BF0125D20828BF45F002050FB171
:2065F00045F004054A4692F90730C31A052B04DA9379AB4208BF918865D0DFF830E10F28E3
:20661000A0F10F0C25DB0CEB0013A3F1F00C4FEA2C26072E88BF07263446062C88BF0624D3
:206630005EF82470042303EB84037446E358DB1B03F0FF04EF0824BFC3F307273C44AF08EE
:2066500024BFC3F307473C446F0828BF04EB136401E0002426465EF826E0EF080EF0FF033B
:2066700024BFCEF307273B44AF0824BFCEF307473B446F0828BF03EB1E63A4B2ACEB0626AB
:20669000BAEB010104FB06F404F1800403EB1423D8BF0121342408F0FF074C437C43B4FBA0
:2066B000F3F14FF6FF738B4238BF191C802889B2918005DA10F1800FB8BF6FF07F0000E09E
:2066D0007F20D07195711A4800681F2910604FF0000008D340F2FF128A4206D24908401C94
:2066F0008A42FBD301E01F219180134F0F39090940EAC10047EA0001CBF8FB1F0026CBF81F
:20671000FF6FBDE8F88F0D490D4F4A4608200F60921D1070BDE8F88FEC0100103C11005001
:206730006E62084024220840B03C00209C130050082009403500094000E7A4803010094015
:20675000FDFDA400AC3F00502DE9FE4FDFF8F48198F8011011B9002013F076FD15F008FA99
:2067700007464FF0000907F6C4170026764D774C11E0304614F060FB417951B129688279E2
:2067900001F8092009F101015FFA81F93946FFF773FA761CF6B220788642EADB98F8010026
