:20000000004000208153010001C9011001C9011001C9011001C9011001C9011001C9011089
:1C00200001C9011001C9011001C9011001C9011001C9011001C901103FC9011089
:20003C0080B540F21C420FF2A00121480FF0D4F80121204801720221002241760270032279
:20005C001D490A700422CA700521417706201B491B4A08700721117001BD2DE9F0410FF250
:20007C00844218493820136854689568D6681769D2F814C0D2F818E0D2F81C800B604C6016
:20009C008D60CE600F61C1F814C0C1F818E0C1F81C8020322031401EE5D110685368946840
:2000BC00D26808604B608C60CA60BDE8F08100004804002151030021C1030021740300214C
:2000DC009803002100C0002115050021CB06002123070021750400218104002199040021F1
:2000FC00090800211D08002170B51D46004C204787B200007046000A054AC42804D01047D2
:20011C00034AE4320120049002490020087010479D670000DC01002103490888034A71468F
:20013C00904200D0891C08478A0100210414000010B5014800470000D509000070B5C00130
:20015C00004C2047D5460000F8B5B74CB748254660352F7B00262E7380472F73697B014304
:20017C0017D1002F15D0617E00290ED0214620310A7C5308DB0700D12676236A497B002B1D
:20019C0001D104231943114202D0217DC90600D4E675F8BD0188A64A8918032906D8A54867
:2001BC007C210185A449416201207047A34908479D4830B4014640310A7C022A16D10268D9
:2001DC00D2794A7502689368024680329360487D02280BD0002809D0C41E062C09D8954909
:2001FC00800040184038806B18189060944830BC00470320C002C8800220087230BC0320A1
:20021C00704770B5884804464034A57D012D12D0017D4906CA0F80210A54217C00290AD1E0
:20023C00603040788008C00702D0E07C000702D50120A07500E00020A07382488047A5750B
:20025C0070BD70B5784C8048254650358047022809D14034E1887D4A914204D1E97C8906A9
:20027C0001D4911DE18070BD70B56F490A8908465030D2B2282A07D10A68D2684261937A09
:20029C00D27A12029A1802830378714A002B10D08379012B0DD1037C5B09DB0709D0097D40
:2002BC006C4DC1746C7F20202043687790476C7770BDFF21C174904770BD10B566485A4C6E
:2002DC00804702280ED121464031CA885F4B9A4208D1CA7C5209D20704D0227D920601D44F
:2002FC009A1DCA8010BD70B54F485C494030C07C4009C00707D0574D59482C8B2043288316
:20031C0088472C8370BD884770BD70B5464C5549264640363579A8004018C06880470A2D0F
:20033C00214610D054310A789309DB0704D0B2730A7803231A430A702189CAB22B2A01D30E
:20035C002839218170BD5331EDE73749403108711E2822D008DC082813D00A2813D00B2818
:20037C0013D0182808D112E0252812D02A2812D03C2808D03D2812D03A4980004018C0680A
:20039C00704739487047394870473948704739487047394870473948704739487047394881
:2003BC007047F8B50746204C4E20005D8509EE07FB25002E17D0267D3407240F052C03D06C
:2003DC000124204202D012E00224FAE7C00905D0700603D54868800F012808D05B085B00C5
:2003FC005208520003E0002801D02B402A40062B03D01020022B10D010E002232A40384646
:20041C00FFF772FE002807DAC200B91A2039497E1422114200D10020F8BD02430343384664
:20043C00FFF762FEF8BD00004401002167A70000D5E7FFFFEC000021579600006396000074
:20045C0075D50000F3BC000037CB000004140000EBC80000A8000021F5B4000053AD000048
:20047C002020000080DF0000C90400218B060021670600213B060021E9050021C305002139
:20049C00830500213105002110B5034CFFF750FE20680028FAD110BD0011044010B50D4831
:2004BC00846B406B4101E004C00E014372B60A4B186882B2581510431860084880681A6033
:2004DC0062B6074A5379902253432207120FFFF735FE10BD80500440000004400040044067
:2004FC008002002168610000F825F965F9754500450045002600260057A3520052004C0086
:20051C00401F401F401F3F0000000000304000400140034007400F404F40CF40CF41CF43D9
:20053C00CF47CF4FCF3FCF2FCF1FCF0F000000000000000000000F00080000003F0000003D
:20055C0040003F000000040068000E00DC00060043001A0005000000000002000000000040
:20057C00000000000400C00000000400C000000007000000000000000000000000000000D0
:20059C0000000000304000400140034007400F404F40CF40CF7FCF6FCF5FCF4FCF3FCF2FF3
:2005BC00CF1FCF0F000000000000000050C00091007070C00091007082312100319110B1BA
:2005DC000070018101B100A18231329110B101911110418141227740F106007051C00191EA
:2005FC0030181039833108D01831416F3100319110B18314141683680070251050C0009123
:20061C00F4C340C12014036F311041045082F0229840512622C082312100319110B16339D2
:20063C003110410482C082312100319110B163393110A2C082312100319110B15010153143
:20065C00051405920070676452C0311031066131C1026A6412C13110213971065131E1029C
:20067C006A64007051C0019101CCE2C06A64676411C1C2C06A6450B054B0007140804022BC
:20069C00D6440022C94060B08180111EC944007054A064B0F0800022C9404012B09032B025
:2006BC0070C1DF6811C122C16A6470C1E46851C00191E2C0823160820200329110B130C254
:2006DC00EE68538253395339B16460C3F4688012B09032B00070676401C122C16A6401C103
:2006FC00C2C06A645382B164C012B09032B00070676472C281C06A6422C111C16A6402C0ED
:20071C0011C16A6462C031C36A6462C311C16A6402C311C16A6453825339B164E2C36F6421
:20073C0011221C4142C281C86A6452C211C16A6472C2E1CE6A6402C281C86A6402C201C825
:20075C006A64B0C030690070676442C201C86A6452C211C06A6472C2E1C06A6402C001C1F6
:20077C006A6462C001C36A6422C101C16A6462C301C16A6402C301C16A645382B164007004
:20079C008180111E5C4150B054B00071408040225D4154A064B0F180012251450070002277
:2007BC00514160B04E610000000000000000000000000000067305720B720E7250B000716E
:2007DC00818060B050A09280F0EFF19202936A6741228C458080F1C11004301601110114BB
:2007FC00016CB561B661B761B861B961BA61BB61BD61BF61C161C36126632D63F0C002046E
:20081C003231412A1214321601112114016CDA61C561E061C761CB61B561B561B561F4613F
:20083C00C561FA61C761CB61B561B561B561F461C561FA61C761CB61B561B561B561E761D1
:20085C00C561ED61C761CB61B561B561B561CF61CF61CF61CF61CF61CF61C064CF61F964A1
:20087C00CF610665CF613265CF617467CF611166CF61C0644E65F964CF610665116632653B
:20089C00CF618280E0DFF2926A67B0B0D661B1B00673057230B06C61D0CF6A6784C203C0E8
:2008BC00C0C37C64207851788278E3781579B6780062C0CF6A6784C203C0C0C37C64307871
:2008DC0061789278F3781579C6780062B0CF6A6784C203C0C0C37C6440787178A27803798D
:2008FC001579D67810922192329243925492659256911FC0FF914039F006011010311014FA
:20091C0000927067CF61E3B054A0F08050221A4640800022BE461262E3A000C860915981E9
:20093C0050B0918041228E46A0CF6A6712828231823942398B641282F2062F101F312F1449
:20095C001682D622334640C1346200C520140D6F6D39DE10F4C34E0482C082312E006D3900
:20097C00A2C082312D001A828A39FA062082803180390BC00B18BC10AC18038239149B14AF
:20099C001082F006011010311014518110140C14C622C94631D0C1266462021011C001306E
:2009BC0010C00118021882312100C126919103B013B063B053B041800122BE46B481C4913D
:2009DC00D581B51C774E95186591F080102269428C623D9110B13E9110B1E08000228146C9
:2009FC00E6228142E0B0951865910F925981F914F0805022114210228C464D6390CF6A673C
:200A1C0063B052A03082F2C02004021011C0013010C00118021882312100C1269191919117
:200A3C0013B003B063B053B064B054B0007141800122BE4663B064B0F08050221142B1810F
:200A5C00C191D1819118619131B0A4622967E0A059810582591480C0007163B0BA6A6962C3
:200A7C00E3A0018262818231823D80EFF19202936A6703A000703782473987393082803930
:200A9C00F006021011C0013010C00118021882312100C126819102B012B030824039F006CB
:200ABC00021011C0013010C00118021882312100C126919103B013B063B053B0007153A036
:200ADC0062B052B041800122BE46A481C491D581B51CFE4E95186591F0801022F0428C62AC
:200AFC00B481C491D4814518751C084FF0801022F0428C623D9110B13E9110B1E080002253
:200B1C001247E6221243E0B065910F925981F914F0805022114210228C4630632967E0A019
:200B3C00598105825914F0C0007162B0226BF062A2808B64CF6112824239F2068B6050B086
:200B5C000071CF6170CF6A67408241800122BE46A481C491D58195186591F18011228C4635
:200B7C00336B41800122BE46A481C491D581C51C1C4B95186591F08010223F438C6260CFD7
:200B9C006A67408241800122BE46B481C491D58195186591F18011228C46506B4180012226
:200BBC00BE46B481C491D581C51CB44A95186591F08010225C438C62E092D08200226B47EC
:200BDC00C0B20070A080F022874330B002C1623101C0A080001E8043F022814380F8603144
:200BFC00603981632010101A136F236E11161216826B00702DE9F047DFF8A0916849694E86
:200C1C0089F80000002008600921674801700D21418040F21311818064480660B77E64482C
:200C3C000770FF2FF17E417008BFFF29327F8270737FC370B57F0571F67F467114D1FF2A38
:200C5C0008BFFF2B10D1FF2D08BFFF2E0CD159490A7802704A7842708A788270CA78C27037
:200C7C000A7902714979417153490278534D544EDFF850810A7042784A7082788A70C278D2
:200C9C00CA7002790A7140794F4A4871FF2028706870A870E8702871687100204B49088050
:200CBC00776B4B497878087039781170B87849490870796908794849421E0A70F878474900
:200CDC0088F80000B869086008B917F04FFAF869434C206008B917F049FA2068DFF804A15F
:200CFC0001688847216851F8042F504690473E483E49CAF820003E48CAF82400386A0860C9
:200D1C0008B917F033FA786A3A4C206008B917F02DFAB86A3849086008B917F027FA0BF0FC
:200D3C0089FC07280CD10EF059FF99F800004FF480410CF027FDBDE8F047002017F016BA28
:200D5C002E480168884721680A6807469047226852F8041F00208847F16898F800000A8849
:200D7C00274B284902431A8038460A6890470C21254800F04DF8284600F04EF800F050F823
:200D9C002248002101604FF6FF7181804FF4005199F80000BDE8F0470CF0F4BC6E4F00200B
:200DBC00044F0020B63F0050604E0020084F00202C4E0020E81200503C4E0020344E0020EA
:200DDC0024A701006C4F00207B4F00200C4F00206D4F00206B4F0020724F0020F04E0020F6
:200DFC00F44E00207C4B0020598A0100F84E0020798A0100FC4E0020601D0020700C00209D
:200E1C00544F0020740C0020F84D0020301D0020DFF800F0E5710110DFF800F01D6E0110F0
:200E3C00DFF800F04D7101107CB56D4D0446A8680E4628B94FF0FF30002112F053FAA860A0
:200E5C0000213CA30A4616F092FA20463DA3801E08D0801E61D0401E4CD0401E37D0401ECC
:200E7C0022D00EE0A868012E05D000210A4616F07EFA37A357E000210A4616F078FA39A39D
:200E9C0051E0A86800210A4616F071FAA868022100223AA316F06BFA01208DF803009DF838
:200EBC0003000028FBD17CBDA86800210A4616F05EFAA8680221002236A316F058FA012060
:200EDC008DF802009DF802000028FBD17CBDA86800210A4616F04BFAA8680221002232A3B5
:200EFC0016F045FA01208DF801009DF801000028FBD17CBDA86800210A4616F038FAA8685E
:200F1C00022100222DA316F032FA01208DF800009DF800000028FBD17CBDA86800210A4685
:200F3C0016F025FA29A3A8680221002216F01FFA7CBDC0463E3E3E535441434B20415353BA
:200F5C00455254002A2A2A4552524F522A2A2A003E3E20494E5445524E414C204552524FB3
:200F7C00522100C03E3E20494E5445524E414C204657204552524F522100C0463E3E2044BB
:200F9C00454641554C54205350494E4C4F434B2100C046C03E3E2057524F4E4720415049E7
:200FBC002043414C4C2100C03E3E204943414C4C2054494D454F55542100C0463E3E2049A4
:200FDC0043414C4C2041424F525421003E3E204F5554204F46204D454D4F52592100C046B7
:040FFC0008020020C7
:20100000B41200001810000015AB0110FDB301106DC00110FDAE011099B5011059BA0110D3
:0810200039BA01102D00000097
:20102800B01200003C100000B1C00110A9BF011067C0011069B80110B9B9011099B901104F
:041048003000000074
:20104C00B012000060100000BDC00110CDB30110D9BD01106DB301108DB80110D9B9011062
:04106C00310000004F
:20107000000000005412002004000000000000000000000020000000E8C9011030000000C4
:20109000281000005C1200200400000000000000000000000C000000D8CA0110180000009F
:2010B0004C1000006412002004000000000000000000000024000000F0CA01101800000023
:2010D000000000006C1200200400000000000000000000001000000018CA01102C0000002F
:2010F000001000007C120020040000000000000000000000200000006CCA01102400000093
:20111000FFFFFFFF841200200400000000000000000000002800000090CA01102400000052
:20113000FFFFFFFF8C1200200400000000000000000000001400000008CB011018000000D1
:20115000FFFFFFFF9412002004000000000000000000000058000000B4C90110340000009F
:20117000FFFFFFFF9C1200200400000000000000000000001000000020CB0110180000006D
:20119000FFFFFFFFA41200200400000000000000000000001C000000B4CA0110240000009A
:2011B000FFFFFFFFAC1200200400000000000000000000003800000044CA011028000000C2
:2011D000FFFFFFFFB41200200400000000000000000000005400000078C901103C00000037
:0811F00001000000F4A601005B
:0411F80001000000F2
:0411FC0000000E00E1
:0412000000000F00DB
:0412040032000000B4
:0412080001000000E1
:04120C00201100208D
:0412100000020000D8
:0412140000000000D6
:0412180001C90110F7
:04121C0000000000CE
:0412200000000000CA
:0412240008000000BE
:0412280000002200A0
:04122C00180F002077
:0412300000000000BA
:0412340000000000B6
:0412380008000000AA
:04123C00AC100020D2
:0412400000000000AA
:0412440000000000A6
:04124800080000009A
:04124C00000000009E
:04125000000000009A
:041254000000000096
:041258000000000092
:04125C00010000008D
:04126000B40F0020A7
:041264000600000080
:041268000100000081
:04126C00800D0020D1
:04127000000000007A
:041274000000000076
:041278000002000070
:04127C00000000006E
:02128000290043
:02128200010069
:02128400250043
:02128600300036
:02128800310033
:02128A002D0035
:02128C0001005F
:01128E00015E
:08129000030000006CA6010040
:0812980000000000000000004E
:0412A0000000010049
:0412A4000000030043
:0412A80013C401105A
:0412AC0013870100A3
:0412B000B812000070
:0412B400B81200006C
:0412B8000000000032
:0412BC0004120020F8
:0412C000DF880100C2
:0412C4002000000006
:0412C800D0A50100AC
:0412CC004CA401002D
:0412D00029C101101F
:0412D400EB400100EA
:0412D8007F4501004D
:0412DC00A1C7011095
:0412E000A3C701108F
:0412E4000000000006
:0412E800F7A5010065
:0412EC0058A2010003
:0412F00070A20100E7
:0412F40040A2010013
:0212F8000200F2
:0212FA000900E9
:0212FC000100EF
:0212FE000000EE
:0113000001EB
:041304006D880100EF
:041308006964010013
:04130C006D7A0100F5
:04131000B1680100BF
:041314004B69010020
:04131800DD510100A2
:04131C00CD020100FD
:041320008D8B0100B0
:04132400F536010099
:0413280015C70110D4
:04132C0025C70110C0
:201330002DE9F04FADF13C0D18F086F913F0FEFA071C00F0988416F0B9FFCE4A002132F88F
:201350000C6F002E40F08B844FF6F87515805760C94C2170002696607968E16017F042F971
:2013700004F148073846314618F062F9C34841F28832C34927613346009004F1A00013F094
:20139000FBFAD04904F15400152332460090102008F04AFBCF4910200223324608F044FB1D
:2013B000B1460DF1210701208DF8210080468DF822004FF480628DF8239003460097CA4E77
:2013D0008DF824801020314608F02EFB0DF1220040F20242009043463146102008F024FB9F
:2013F0000DF123000090314640F203424346102008F01AFB09A8314640F2064243460090BD
:20141000102008F011FBC64910204FF0FF3208F00BFBC44910204FF0FF3208F005FBC34F24
:20143000C14E10201323C24A00903146019708F0FBFA042017F01EFD0146CA48816061B1FD
:20145000E81D15F025F8C74AC7491020112300901C320191314608F0E7FAC44A04A8511DE8
:201470000B68496803600427416006AE8DF82570484611681379316004AA337108210DF09F
:2014900049F9032041460DF125020DF043F9052106AA38460DF03EF9B24904F114004860BE
:2014B000B34904F14002102008F0BEFA207815F06BFDB0490246102008F0B6FA207815F04E
:2014D00063FDAD490246102008F0AEFAAB491020FB2240F6480308F0A7FAA949102008F019
:2014F000A3FAA84E06F1180006F10C010DF0C8FEA549B06017F067FBA44FB0684FF4E021BD
:201510003A46521E15F012F8B0684FF4E0213A4615F00CF89E4FB0684FF0C0513A46521E92
:2015300015F004F8B0684FF0C0513A4614F0FEFFCC49CDF8009006F12400C8224B4613F0AE
:201550001BFAC9487060681D13F048FC207815F01BFDCDF8009003460422C449CDF80490DA
:20157000102008F061FA04F16C00494618220FF0A3FEBF48EF1D494607804FF0FF3011F076
:20159000B7FEC94EA06049466FF07842BBA03060304615F09BFBA068C44F60B1716811F0C5
:2015B000784F08D0F86004203870C14DBD60304614F036FFA0683E4631784A46B4A315F05D
:2015D000DCFEE06800214FF040424FF0FF3318F02BF800280A90F4D00020029008A902AAC6
:2015F00003A811F0F7FD002840F0B8819DF80C000DF10E0115F01AFA002840F0AC81BDF8A9
:201610000E00ADF80C0016F01DFDBDF80C00102840F09F8120789DF82010884240F0998121
:20163000029908884FF6FF72824200F092810D462878913826D01F3803D0203800F08681C7
:2016500087E12B79A06832787E2B04D07F2B0AD10989B6A301E0297AB8A30091521CD1B26E
:20167000002215F08AFE297905F1080017F0D8FF6FE1C046B00C002008020020F5120020AA
:201690004166010068780E3854D0401E2ED0401E00F046812E3840F05C81A8780C2840F0E0
:2016B0005881EF78A0683178B7B9EA79012A0BD0022A08BFCCA208D0032A0CBFCBA2CDA243
:2016D00003E0C04645190100D0A20092891CD0A304E0C046A9660100491CD2A3C9B2002225
:2016F00015F04BFE0C2016E049790000A88842F23201814240F02D81AA78A06831781A2A59
:201710001ABF0092CCA3D4A3491C0022C9B215F034FE42F2320029460FF01AFB19E1C04646
:20173000DD790100017A01005972010048A601006C060020A968AF88087841F20542BF1A5E
:2017500028D0A7F62B47002F40F00381002840F00081C8780090087901903178CAA3C91DD8
:20177000D8E0C0469C07002054A60100F8A101001D800100518801103181011021B1001016
:201790003DFA0000CC0D0020096001000E0005800E000010A968491C91F902A0002840F0F4
:2017B000D8804A78087800EB022017F007F8071C40F00681BAF17F0F00F09F802C4D2C4B5A
:2017D000F80000EB07102D18697C4A1C6A744118C91881F80CA0697C05231A4691FBF2F255
:2017F0005A43891A224A697411180C31002011F9012B5B1E024410B2F9D1052190FBF1F0B7
:2018100040B2A874EB7C002B77D110F11E0F4FF0000904DB2B7D022B18BF002B4AD195F9FB
:20183000120010F11E0F07DA10F1280F04DB2B7D012B18BF002B1DD110F1320F04DB10F17A
:20185000280F5ADA2B7D33B910F1320F55DA04214FF002092FE004214FF001094FF00608CF
:201870002BE0C046418701005F7B010059860000740200204FF0010841461EE053696D70C8
:201890006C65205065726970686572616C00C0463D3D3D3D3D3D3D3D3D3D3D3D3D3D3D3D65
:2018B0003D3D3D3D00C046C04C11002074110020DDD9000002214FF00208687D804502D19D
:2018D000AB7D022B01DB804517D028880A464B4614F096F90120E874687D80451CBF0020D5
:2018F000A875B9F1000F06D0B9F1010F14BF4FF002084FF0060885F81580C549F800CDF82C
:2019100000A000EB0710401890F9120001903178B7A3491DA068C9B2002215F02EFD18E05B
:2019300008200021FFF786FA13E0C0464D54552053697A653A20256400C046C04643205686
:20195000696F6C617465643A20256400084601F0F3FE029810B1029817F033FA0A98C00FE8
:20197000FFF42FAE206917F057FE00287FF429AE2069054617F04CFE854208BF002502D086
:20199000856814F09FFD002D0B95EBD028460078AB46401E082800F25981DFE810F03B01EE
:2019B000E700C00096007F00570155014E010900584640680C90408816F000FF0D9008B150
:2019D00016F094FE0D99924FC80000EB0110C019C07D012840F03A810C98A549428810205E
:2019F00008F022F832E1C046324D00C0434F44454400C046556E6578706563746564205083
:201A100048592056616C756500C046C0314D00C0504859205570646174656420746F2025D4
:201A30007300C046504859204368616E6765206661696C75726500C0504859205570646163
:201A5000746520537461747573204576656E743A203078257800C046504859204368616EA7
:201A70006765206661696C7572652C207065657220646F6573206E6F7420737570706F7285
:201A900074207468697300C0525850683A2025642C20545850683A20256400C0DBF804506B
:201AB000687A48B1734800903178A068002273A3C91CC9B215F061FC6E4800906E49EA88D6
:201AD0000023102007F0B0FFC0E0DBF804301879A26831781B78D3B15B1E12D05B1E08D04F
:201AF0005B1E40F0B380002808BF68A310D06CA304E0002808BF70A30AD074A3C91C0090C5
:201B100007E0002808BF77A302D07AA3F6E77EA3C91C1046C9B2002215F02FFC96E0DBF887
:201B30000450A16830782A68521E0CD0521E08D00E3A13D16A6813780093528876A30192C8
:201B500005E07EA300E082A36A6812780092001DC2B208461146002215F00FFC2868B0F1E3
:201B7000004F73D0686814F0ADFC6FE0DBF804000078010922D2400968D30E2016F0ECFD09
:201B9000002863D17068717842680B46B3EBD26F12D01A46FF2A59D000EBC202D7682FB9D4
:201BB00000EBC100006914F03BFC4FE000EBC10002691846904749E08068F4E70D2016F02B
:201BD000CBFD002842D1716870784968B0EBD16F07D0FF2809D0401CC0B214F079F9FF2863
:201BF00002D1002014F074F9707009F02DFD2DE0525353493A25642064426D2C2041564700
:201C100020525353493A25642064426D00C046C074020020DBF80400A26831780778AFB990
:201C3000534B11331D680DF1260005605B6843609DF82600491C4BA361E7DBF80400B0F869
:201C500001000EF079FE06E011F0B0FEDBF8040008B114F037FC0B9814F034FC82E6491CFE
:201C70000629FFF46CAB17F025F90FB0BDE8F08F25AB001040E201007D6901005061737392
:201C9000636F64653A20256400C046C0426F6E642073617665207375636365737300C0467F
:201CB000426F6E642073617665206661696C65643A20256400C046C0456E63727970746946
:201CD0006F6E207375636365737300C0456E6372797074696F6E206661696C65643A20250F
:201CF0006400C04650616972696E6720737563636573730050616972696E67206661696C01
:201D10003A20256400C046C050616972696E672073746172746564004164762053657420A2
:201D300025642064697361626C656420616674657220636F6E6E20256400C04641647620C8
:201D50005365742025642044697361626C6564004164762053657420256420456E61626C54
:201D7000656400C04368617220313A20256400C09C0700202DE9F04F85B0804611F8010B30
:201D9000DFF8FC27009008F1FD00009B182B08F1E70508F1660A08F20D1B08F5B07408F14B
:201DB000860908F59C7608F5C67700F2D683DFE813F019006E007F018B00D403D403F400F2
:201DD000AF0306011C01F70003014601D403D4039F01D40383016901BB03060306035E0298
:201DF000D403A90211F8010B89F80000022208F1880017F009FC0146022208F18A0017F015
:201E100003FC0146022208F18C0017F0FDFB0146022208F18E0017F0F7FB99F80010B9F887
:201E30000220490089F800105200B9F80410A9F802204900A9F804100222B9F808100901C7
:201E5000A9F80810014608F1840017F0DDFBBAF81E10B8F80800091A89B247F6FF7291429F
:201E700029DAB9F80600B9F80410B9F80820401C49004843904201D33B201AE101208AF82B
:201E90001C000020A8F81E000120307074E3052208F1610017F0B8FB0146022208F19200EF
:201EB00017F0B2FBB9F80C10B8F80800091A89B247F6FF72914280F25082012189F80A10F9
:201ED0000020A8F81E0078E2A87DC20709D4687B1A210128A97302D1FF220D213BE00D2121
:201EF0000AE200208AF8000008220120687408F1A80408F1B00017F087FB0146022208F1E2
:201F1000B80017F081FB01460822204617F07CFB06460821204617F073FB08F19C04042212
:201F30003146204617F070FB0421204617F068FB08F1A00017F060FB08F1980017F058FB67
:201F5000DFF84006018841F080010180687B012807D1FF220421404605B0BDE8F04F0FF050
:201F7000EDB89AF811500F2D18BF142D03D00E2D18BF0C2D0FD19AF81040404611F076FE8A
:201F90000421404610F004FA012C12BF29468AF81A50FD21B0E10421AEE10120E873EBE283
:201FB00000208AF800008AF8060028700B2101206873002068709FE101202874DCE2002311
:201FD00002F10904CD5CE45C2543CD54541CE45C2540C5545B1C082BF2DB9AF8060000289A
:201FF00046D0404610F040FABCE2002302F10907CE5CFF5C3E43CE54571CFF5C3E40C654A9
:202010005B1C082BF2DB02206875E87D010703D440F64800A081E08150788106CED520895B
:202030001B2804BF61891B2907D1A089B0F5A47F04BFE189B1F5A47FC0D014215CE19BF808
:202050000000012811D011F8012B8BF8032008F58970022217F0D8FA0146022208F58A7036
:2020700017F0D2FA01208BF800009AF80600002800F0AB819BF8021000292CD140460FF0AD
:202090001FFC6FE2A87DDFF80045C10609D412218BF80C10404611F09FFF00281BD120783C
:2020B00063E2404612F0A4FB002814D120785CE208788BF80B008BE10878207048786070A7
:2020D0009AF8100001280DD19AF811100F39012902D9C91F02D04FE270734DE2387B40F067
:2020F000010038E205B0BDE8F04F002016F044B8A87DDFF89444820709D40F218BF80C10F1
:20211000404611F069FF0028E7D120782DE208784A7800EB02203082CA78887800EB0220E9
:2021300070824A79087900EB0220B082CA79887900EB0220F082087A30768A7A487A00EB7E
:20215000022070830A7BC87A00EB0220B0838A7B487B00EB0220F0830A7CC87B00EB022035
:2021700030848A7C487C00EB022070840A7DC87C00EB0220B084487D897D00EB0120F08479
:20219000DFF8080401788A0658BF1A2213D508F5AA700490708B0390307E0290B8F80800D7
:2021B0000190F08A0090B38A728A318A40460FF003F8A0B11E22A87D410709D40F218BF872
:2021D0000C10404611F008FF00284DD12078CCE1404605B0BDE8F04F0F2114F05DB8708A58
:2021F000A9F80400B08AA9F80600F08AA9F80800022089F800000020A9F80200B8F83400DC
:20221000C01DAAF81E00B8F83210B9F80400B0EB510F02BFB9F80600B8F83410884202BF78
:20223000B9F80800B8F83610B0EB111F1DD09AF81000012804BF9AF811100F2907D09AF845
:20225000150020B10F218AF81A10FE2154E0FC21404610F09DF8F08A0090B38A728A318A23
:2022700098F8060017F0C0F986E1102144E0E87D10F0090F03D116218BF80C106FE1487805
:202290000A7800F0070002400A7008787A7B0240FA7210D0501E02420BD0510704D5B87B05
:2022B00010B10421F97204E00220024219D14008FBD1F87A08B9B97AF972F87A042803D132
:2022D000404611F057F9A083F87A17F089F93871A28BB97B012312F0E9FE218B814202D29F
:2022F00008E0F872E5E7A28BB97B3879012312F0DDFE014679801721404605B0BDE8F04F06
:2023100010F046B848780A78824207D100F00700104008702ED0431E18420FD01E22182101
:20233000404613F0B9FF98F80610012301221E200BF066FC387B40F040000CE1F87247F60D
:20235000FF728878C97800EB012038813989B8F80800091A89B2914201DB282136E00120EF
:20237000B871F87A042803D1404611F003F9A083F87A0BE09AF81100162806D1BB7A98F832
:2023900006101A4600200BF03BFCB87A3871A28BB97B3879012312F089FE218B814206D383
:2023B000A28BB97B3879012312F080FE014679800121387B40F0400038733170DCE0142B8B
:2023D00004BF9AF80600002806D13D218BF80B1001208BF80A00CFE008784A7800EB0220EB
:2023F0006082CA78887800EB0220E0824A79087900EB022020828879C97900EB0120A082D6
:2024100008F5B07108F5B0708A8AC089B97A904288BF1046042905D140F691229042B8BF3D
:202430004FF42960E28BE0839042B87A14BF01250025042803D1404611F09CF808E008F5CE
:20245000B07008F5B0718089CA8A904288BF1046A28BA08308F5B071904208F5B0704A8A31
:20247000008918BF0125904288BF1046228B2083904218BF0125A28BB97BB87A012312F07F
:2024900015FE218B814206D3A28BB97BB87A012312F00CFE0146798008F5B07008F5B07292
:2024B0004189108A628B814288BF01466183914298F8063014BF0120002005438A42344948
:2024D0000A6802EB4311628B8041121DC00F0A7610B1404614F048F9009814280ED145B1D8
:2024F000E08B0090638BA28B218B98F8060017F073F8152140460EF0DBF933E01DB13878E3
:2025100040F008003870397841F02001397033E008780E280ED00F2809D0122804D014281E
:202530000BD0162811D027E00020307224E00120307321E0032068751EE0387840F002001F
:20255000387040F01000387016E0387B40F00200387340F0100038730EE08BF80C30404637
:2025700011F03AFD40B9084800784FF4804105B0BDE8F04F0BF00CB905B0BDE8F08F00BF5D
:20259000BC1C0020524F00206E4F0020144E00205C1D00202DE9F84F012014F033F90128A3
:2025B00019D1DFF87046207800210AF0D1FD5FEA000804BF002015F0DFFD002088F8080056
:2025D00008F1040010F0A6FD05F08AFD050003D1812016F0FDFF18E301206871DFF8380649
:2025F0004178491C4170A879DFF8301688F80A002078087005F5977440200BF087FE2860B7
:20261000D8F854104A78D8F85000D1061AD5806D01680A79032A1CBF002015F0ADFDD8F84E
:202630005000816D90F87C000A6802F1080601281CBF002015F0A0FDD8F85000D0F8841093
:20265000286845E0C16E08680279032A1CBF002015F092FDD8F85000C16E90F898000A68FE
:2026700002F1080601281CBF002015F085FDD8F85000DFF8AC25D0F8A0102868DFF8A495BE
:20269000C16096F826701388032F21D8DFE807F00205101801F5B06101E001F53471C1608E
:2026B000B9F80000E087B9F80000A5F8740112E0E3871188A5F87411C16801F5355109E08A
:2026D000E3871188A5F87411C16801F6B87101E001F5B061C1603078DFF84C95DFF84CB53B
:2026F000C0F3801020700622B11C05F5947015F00FFF042206F10E0105F1240015F008FF9F
:20271000D9F80000AF7900F10C03042206F10E0103EB471015F0FCFED9F80000AB7900EB60
:202730004310032206F11201103015F0F1FE05F12C07707DB870022206F1160105F130003D
:2027500015F0E6FE022206F1180105F1320015F0DFFE022206F11A0105F1340015F0D8FE07
:2027700038896884022206F11C0105F1360015F0CFFEB87879894000B8700901B888798188
:202790004000B88089B2F8884000F88003046A8C521CDB0B5A438A4201D280B230B99BF803
:2027B000000080210AF0F4FF3B2142E105F12E01284615F001FB0520A881284615F006FDA4
:2027D000052206F11E0105F1610015F0A1FE96F823004009387015F0B1F86882B8F82A108D
:2027F000401AA08105F1610196F82300DFF8404400F01F00F873284612F0EBFED8F85410E3
:202810004A78D8F85000D10647BF0021806D0021C06E1C260268117141F62102A97920685A
:20283000714342520022A97971430144001D4A80A97971434250D8F85410DFF8F8034A78EC
:20285000D1060DD5DFF8F0138A7851060AD5DFF8EC130A8841F20A439A4208BFDFF8E00358
:20287000C5F89C01D5F89C11284688472168AB7901F10E027343D054A97920687143084404
:202890000021C173DFF8BC03017881B1B88870B9002179730120288168812846D5F89C1181
:2028B00088472168AB7901F10E027343D054A8792168704301F10E02125C7A73D8F85410C2
:2028D0004A78D1061CD505F5CB7A9AF8000008B915F052FCA9792068714308449AF800102D
:2028F0004A1E0274A979206871430844002141742068AA7900F112017243002088522AE002
:20291000D8F85010236891F8402018440274A979206871430844D8F8501091F841204274B7
:20293000D8F850002168AB79403001F1120273434188D15205F5CB710078012200F00300DE
:2029500082400A70D8F8502092F84000800814BF012002200871A979D9F800002268DFF8B6
:20297000E8A200EB411302F1140C71434CF80130A97971431144B54A8A61DAF814100978B6
:2029900095F806E0CA074CBF102200228B074CBF202300235FEA417C4CBF4FF0400C4FF0A6
:2029B000000C09074CBF8021002113434CEA030308304FEA4E1E0B4343F00F0300F80E30E6
:2029D000D9F80000A97900EB41100B224272D9F80010A87901EB401104228A729C4A137805
:2029F000D9F80000A979012B00EB411002D10121C17203E0DAF828104A78C272D9F8000090
:202A1000A97900EB41101F220276D9F80010A87901EB401100224A76A8790BF01FFCA97915
:202A3000D9F8002049015050A9794B01D05820B90721284615F0ADF8E7E08648026802EB10
:202A5000011016F0C1FD834AA8791368D9F8001003EB00130A1D40011350081DAA795201E0
:202A70008058F863A87940010958796404219BF800000AF08DFED8F8540042782168D006F9
:202A900048BF4FF0020B0BD4A87970430844007C00F00300022814BF4FF0040B4FF0060BCA
:202AB000684BBA881878934410B10AB9F8888344688A00FB0BF04FF4C872B0FBF2F2521C7D
:202AD000C5F818B06A6140F6C41CA8792B687043009001F1080ED8680CFB0B0B0098ABEBF6
:202AF0000202A2F5A8624EF8002001F10800AA7972438058986001F10C02A87970430C3108
:202B1000125C02F0EF020A54A8792168704301F10C020C31125C02F07F020A54A879216873
:202B3000704301F10C020C31125C02F0F00242F002020A54A979206871430844417B01F058
:202B5000F00141F0010141732068AA7900F1080172438858296808616B69D9F80000A97992
:202B700097F802E05B0000F1140249010CFB0E3303F5F663535095F89611042907D1A97991
:202B9000490100F11403525802F561625A50A97900EB4110C27C02F0F00242F00402C274D7
:202BB000FB88D9F80010A879DAF8307001EB4012386843436427B3FBF7F30CFB03F0A0F5F8
:202BD0009660D061A87901EB4010C17E01F0F00141F00401C176A97920684E43296880196E
:202BF00048600E2128460FF0D3FB1B4907200870404615F04FFDAA790021404611F00AF80C
:202C100028681649416116498161BDE8F14F03F037BD00BF961D0020684E0020981D0020C9
:202C3000881D0020861D00205C1D00206E4F0020581D0020DB440100BC1C0020504F00201A
:202C50002D3D0100784E002024A701005C4D0020734F00208C4E00206F4F00206559010005
:202C7000020480802DE9F04FBA4CADF1240DDFF8E08220780591C90BCF032CD10599A06963
:202C9000C90811D20598000938BF0020C0F0C382A07B012804D14146087808B90CF07CFE67
:202CB000059880F00800B5E288B115F049FA071C0DD0F87A58B9384616F098F87A68B97A2B
:202CD000388907F039FA786808B115F0CDFE059880F004009EE20CF0D1FF0028069000F085
:202CF00096820546012007902878B03800F0F281401E00F0E5811F3840F07C82A97860699B
:202D100000270A290FDC0A2900F0B280002900F0AA81491F00F09B81491E00F06B81C81E28
:202D300000F05181CAE10B3900F08C80C91E7FD0491E0DD0481E40F0C181227815F000FAEB
:202D5000002800F05581104604210AF021FD4FE12E4628B143681BB1A88839460A46984710
:202D70006078002861D0B08812F054FD051C00F0A581B07A40080FD36B796BB1012B0BD0F5
:202D9000F068800A08D203F00103A81D3A4619460DF0DCFA002843D1207A022802D1B07AFC
:202DB00000093DD3B6F804806D790C2015F04CFE06F10809061C00F01B81A6F80880B57254
:202DD00039463160B9F1000FF77209D04846082115F042FA706020B9304615F045FE07E191
:202DF0007160A369002B08BFA66102D01A68AAB91E60304615F0FAFF4A462946404607F0C8
:202E10009BF96069002800F0F3804368002B00F0EF80394640460A469847E9E01346E5E763
:202E3000B088032116F0CCFB48E1B08805211CE0002800F0DD804368002B00F0D9806A7860
:202E50000221BEE015F0C4FD002800F0D180606948B107683FB12869009069892A7B6B7BB3
:202E7000E81CB847C4E06889079916F0A9FBBFE0B9466F78002F40F09980A9794908C0F040
:202E9000958002A84946082216F020F8A88812F0C1FC061C09D1227815F052F9002865D05A
:202EB000104604210AF074FC60E06F69002F53D007F111004946062215F039FAC84600B3FA
:202ED0003846062215F033FAB8B9387C07F1110A4F4600F0010B7F1C504659464A46FFB230
:202EF0008AF800700DF032FA10B9002FF3D104E01FB1B8F1010F02D006E0DDF81C804F46C0
:202F10006F61B8F1010F27D0686978B30746387C062207F1110100F001008DF80E0002A8C4
:202F300015F0F6FA707907F11108012805D106F10C00B11D062215F0EBFAB01D4146062234
:202F500015F0E6FA387C40F0020070710EE0C0465A4F0020F00A00207079B11D062200F00F
:202F700001008DF80E0002A815F0D2FAA8799DF80F10C0F3800008438DF80F00A879000921
:202F900005D39DF80F0040F008008DF80F0002A8294605F08FF95FEA000903D1A88811F0EC
:202FB000D1FF02E0A88813F05DFB606900B34368F3B1A8886A780799984760694A460321EB
:202FD0004368A88828E7E978281D0DF1110201F001010DF0BBF958B99DF81110480005F197
:202FF0000C0200EB810025300421C0B208F010FF079F63E0A88813F035FB16F0DDFA002803
:203010005CD1E07A012814D0207B01280DD0834C3D4614F8010F012803D1284608F0E6FFB5
:2030300027706D1C062DF4DB0CE00FF089FA277308E015F024FB394604F120000622E1723B
:2030500015F044FF14F042FB11F010FF36E06878002833D1E8786A892B7B291D00F0010075
:203070000AF044F92AE0687840BB16F0A1FA814616F09AFA804616F093FA8DF81000102103
:203090004A46022008F0C4FE03201021424608F0BFFE0799042004AA08F0BAFE9DF810005C
:2030B000012803D09DF81000032807D1079813F04DFD02460620014608F0AAFE079799E004
:2030D0002879002840F096806888E9882A8910F0F1FC8FE02879401E40D0083802D0743894
:2030F0007BD082E068781A2873D06888804614F013FE801E18D0401E77D1288901280AD102
:203110006889032807D1E9688A784046042110F038FF024600E018226069002865D0436843
:20313000002B62D0042116E029896888079A0129804609D16989032906D1E9688F781FB9D5
:20315000102110F01EFF0246606900284DD04368002B4AD005214046984746E0297A688887
:2031700005F108060829824633D114F0D5FD801E0ED0401E2DD168890421002210F001FF58
:203190000246606928B343681BB3688904211FE070881021002210F0F4FE8146504612F009
:2031B00039FB70B141460F784FB94179079A871D01F001010846394615F09FF801E00798B9
:2031D000A073606928B143681BB1708805214A469847688811F0B6FE07E06C88204614F03C
:2031F0009BFD0146204610F0F7FF297905F1080016F016FA079838B909480078FF2806D078
:20321000069914F029FE02E0069814F015FE059880F4004080B209B0BDE8F08F0F0B0020A3
:20323000F61200202DE9F843040014D1002014F0A3FF10E0204610F0CFFE012808D063E0EF
:203250008A0740F1578101F0FD0101700020B071204610F00BFD04F16605687D002853D025
:20327000697CDFF8CC94022904F1EC0704F59E7804F5B07604F5C67035D0042947D005293B
:203290005DD0062900F08B800729D3D0092900F0EF800B2900F0C3800C2900F00B810D2915
:2032B00000F0D3800E2900F0ED800F2900F02B81102900F04581112900F05F81122900F02F
:2032D0001181142900F08A81162900F05D81172900F07881FC2917D0FD2900F09881FE297C
:2032F00000F0A481A2E7297C012909D199F80300002813D01621204614F04BFC012004E0EB
:2033100020460FF0C5FF28740020BDE8F283297C012940F0A78199F80200002800F0EA8062
:203330000021A971FF22FC2120460DF007FFA07904F1B80204F1B00116F02EF98BE7297CE9
:20335000012910D199F8020020B184F89410002038607860B87A01286AD1FF2206212046FA
:203370000DF0ECFE77E704F1E7063078012808D1204612F006FE0128C6D10020B8720120D5
:20339000C1E770780028BFD004F1C70204F1A00104F1D70016F0FCF8012030705BE7297C14
:2033B000012940F0668199F80200002840D0618CE183204610F05AFC01202870204612F0C3
:2033D000E7F80120A871397A787C012900F010000FD148B1002088F80500D8F8001098F805
:2033F000060049080FF0EAFAA079002116F0CCF80FE048B1D8F80020DFF8380304F5A17388
:203410005208214615F068FCA0790122002116F0B7F8002038723873F872B8721BE7287CB1
:20343000012806D1F97A012904BFFF22FC2196D060E020460FF05AFA01289DD10020F8725E
:2034500084F894000120287405E7297C012940F0148199F80200002809D0002184F894103A
:2034700001202870204612F093F80120A87188E0297C012940F0058199F80200D0B3618C66
:20349000E183E5E6287C012840F0FF80387C022804F1FD0204D1A179002016F06DF8D7E668
:2034B000032840F0FB80A1791A2016F065F800203874CDE6287C012804F20D1140F0F98066
:2034D0000B78012B04F5897240F0F9804878012807D15388009300201388CA78A17916F044
:2034F00047F8B5E6297C012940F0F88099F802000028F6D1298B481E288380B200287FF457
:2035100003AF2221F7E6287C012840F0EB8098F80910012902D130780F281BE098F8080049
:20353000012826D1002188F80810288D000900901A20AA8CEB8CA179520816F015F887E679
:20355000287C012840F0D28098F80910012910D1307810281CBF002014F00EFE002088F8CD
:203570000900288D00090090AA8CEB8CA1797078E2E7287F0028E2D1BCE7297C012940F048
:20359000B98099F80300F5E7297C012940F0B680017B4A061DD4CA0709D501F0FE0101736D
:2035B0000123A179707801220AF02AFB50E68A0740F1A98001F0FD0101730123A1790122AE
:2035D0001A20F1E7297C012940F0AA80027B510690D5017B01F0BF01017339E6297C0129D8
:2035F00040F0A08001788A067FF52AAE01F0DF010A0701700AD501F0F7010170F08B00907F
:20361000738BB28B318BA07915F0E6FF1EE6A97EFF2220460DF092FD14E7FF2220460DF0E3
:203630008DFDACE6002014F0A7FD6DE6A97E0C2918BF0E29F1D00F2902D01429EDD0F1E73C
:20365000FF22FC2120460DF079FDB8F812000090B8F81030B8F80E20B8F80C10A07915F039
:20367000C3FF51E620460CF02FFC2874E88A28834AE6204610F0ACFEF7E7204612F04AF932
:20369000F3E720460EF0F0FEEFE720460EF0B6FE2874E88A28830120387435E6288B401E4E
:2036B000288380B20028F8D1A179222015F064FF27E70120887020460EF002F9D5E7288B73
:2036D000401E288380B20028E7D15088009022201388CA78A17915F04BFF12E7204611F06F
:2036F0005FF8C2E720460BF009FABEE720460BF057FABAE720460FF0DDFCB6E716212046E6
:203710000AF05EFFB1E7288B401E288380B20028C3D1A1790123012222200AF071FAF0E622
:203730001721ECE7142120460DF0C2F89DE700BF5C4D00205D1801002DE9F04FB54C0546F9
:20375000ADF14C0DA068DFF8C8921290B24880460678A878761C002800F06081AB49401F4B
:203770000FF2902B00F0AA80401E4DD0401E1DD00A3840F01082A888ADF80800688960B9B2
:20379000ADF80E00A889ADF81000E988ADF80A102F89ADF80C70012000E0002099498DF8EF
:2037B000130002AA102006F03FF9FAE19649AA88102002AB06F038F998F80070A668E8787E
:2037D000BF1C30B90DF10A0010F0DCFC74A3009007E00DF10A0010F0D5FCA978009176A303
:2037F0000190F9B23046002213F0C7FD04F1380014F069F9041C00F0D48120890DF09CF8EC
:20381000204612F05FFECCE1102006F00DF9C7B298F80010A068002270A3491CC9B213F0C1
:20383000ACFD009798F80010A06800225B46891CC9B213F0A2FDA888824614F0BFFF012828
:203850001CD0C50005EB00152D196C35AE687EB1304615F041FB10B1304615F029FB3046E9
:2038700015F07EFE304612F02DFE686812F02AFE504612F0F9FB504611F0B0FA47B904F158
:20389000A00015F015FBC8480021012213F01EFA002500956278494610202B4606F0C4F87E
:2038B0000095A278494610202B4606F0BDF898F80060A0682A46F61C12906EE1102006F0DD
:2038D000B3F85FFA80FACDF800A098F80010A06800225B46891CC9B213F04FFD6878002813
:2038F0003DD104F16C066F8930884FF6FF7181421ED13780032015F0BDFA7060B0B108213C
:2039100001707068A0F80170242015F0B3FAB06018B9706812F0D6FD08E070680090AE497A
:20393000B06841F27072012311F026F80120307598F80060A768281D10F024FC761C0090BB
:2039500000229AA3F1B2384613F017FD96480121002213F0BBF904F1A00015F0A7FAA27892
:20397000BAF1000F0FD1002500956278494610202B4606F059F82B460093A27849461020B5
:2039900006F052F80DE1DFF854920025102000952B46494606F048F82B4600936278EDE75A
:2039B0004C696E6B20506172616D20557064617465643A20257300C04C696E6B20506172EE
:2039D000616D20557064617465204661696C656420307825783A20257300C046446576693C
:2039F000636520446973636F6E6E65637465642100C046C04E756D20436F6E6E733A202545
:203A10006400C04661D80000E54F01001167010025E5000008020020741100206878002864
:203A300040F0BF80EB792A7AE97A8DF80930A81D8DF80A2000278DF80F1083468DF80C70D5
:203A5000AB7A8DF80B7000788DF80E306A7A8DF8080063498DF80D2002AB1A680A605868CE
:203A70004860129855A3F1B23A4613F086FC5D481030B0E82C100BA9A1E82C100DC8651CBC
:203A900081E80D000BAB1020DFF860A156490095524605F0C9FFC0B200287AD1072304F155
:203AB00028020093524D01926278102029463B4605F0BAFFC0B200286BD11B23009304F1C3
:203AD00084020192627829461020012305F0ACFFC0B200285DD1474962781020922305F074
:203AF000A3FF00976278494610203B4605F09CFFC0B200284DD13B482C30B0E80C5004A99B
:203B1000A1E80C500DC881E80D00A01C04AB524635490090102005F087FFC0B2002838D106
:203B3000354B072000900193A278294610203B4605F07AFFC0B200282BD1304B1B20009026
:203B50000193A27829461020012305F06DFFC0B2F8B92849A2781020922305F065FF009700
:203B7000A278494610203B4605F05EFF98F80050A468C0B268B9584610F004FBAD1D15A1ED
:203B900000913A4610A30190E9B2204613F0F5FB07E014F0ABFD701CC2B21298F1B214F0E8
:203BB000F4FF13B0BDE8F08F4C110020436F6E6E656374656420746F20257300496E6974BC
:203BD00069616C697A656400257320416464723A202573004465760041660100C55C0100E5
:203BF000D7050020F8A10100819500002D77010039BC0000214A0100300200208C02002003
:203C10002DE9F84FDFF84444A178FF2904BF002014F0B2FAA07814F0EFFD044604F168064F
:203C300004F5C9753168086804F1900710B10022E28310E0B17B002904BFB07E00280AD127
:203C50003978002904BF2878002804D1217F012904BF608CE0832189E08B4118491C618189
:203C7000204613F0B8FF01281EBFDFF8E4030178012904D120890022401CE28360814FF626
:203C9000FF78B07E01280DD1B28B6189208915F063FC38B1218960894A1C93B298422CD037
:203CB000B08B20E0387801280DD17A886189208915F052FC38B1218960894A1C93B2984219
:203CD0001BD078880FE02878012816D16A886189208915F041FC80B1218960894A1C93B214
:203CF00098420AD0688892B2904206D04044608180B215F02DFC4044E083287801280DD1D1
:203D100020896988401C80B2814207D16A792A71002028701346A17909F072FF04F59A71B9
:203D3000087920B120890021401CE183608104F12E07B07E01283ED12289B08B521C92B28E
:203D5000904238D1608104F18601204614F034F8B08C6189608400202077E083E08941189F
:203D7000A181B08B218915F0F3FB8046B988308C728C01FB0808F08C8A4204BF39898842D5
:203D900002BFB18CFB88994207D000090090B38CA1795208002015F0E7FBB07F3870708CBA
:203DB000B880B08CF880F08C3881204614F00EFA0220B07601E0B7F80480E28BDFF894929A
:203DD000501C00FB08F040F6C41808FB00F100912368D3F80CC06144DFF87CC2D960DCF8F4
:203DF00000E09E499EF800A00B884FEA9A1ABAF1030F15D199F80FC05FEACC7E48BF002376
:203E10000ED45B1C1FFA83FCBCF1010F11BFB4F812C004F59A7CBCF806C00CF2DC5C01E0F6
:203E3000B4F812C00CFB00FC4FF4C87EBCFBFEFCDFF82CA20CF1010CC4F814C00B8084F871
:203E500020204FF01C0BA379A0610BFB03F3DAF800102268D2F80CE001F10800C0581061EE
:203E700001F10803A0790BFB00FC6069AEEB000043F80C0001F10800A3790BFB03F3C05847
:203E9000906001F10C02A0790BFB00F00C31125C02F0F00242F002020A54DAF80000A27903
:203EB000811C0BFB02F200208852287908B914F063F9DAF80000A27900F1100128790BFB09
:203ED00002F240088854A079DAF800100BFB00F00844002141742879042814D1A079DAF80A
:203EF00000100BFB00F001F110022B7A125C103142EA83020A54A179DAF800000BFB01F161
:203F1000084420214174DAF80000A27900F112010BFB02F200238B525249A27909685201EA
:203F300001F11403D4F814C09B5801F1140E03EB4C034EF80230B27E022A0AD1A279520167
:203F500001F114033E789B5808FB063301F11406B35099F80F20D3074CD5A2790BFB02F284
:203F700000F1080300F108069B58A3F5A863B3500830A27923680BFB02F282589A60009859
:203F9000121A1A6101F11402A079400101F11403125802F5F6621A502879042807D1A0791E
:203FB000400101F11402125802F561621A5001F11400A27952018058C4F834012A4ABE8823
:203FD000176B3868A57946436420B6FBF0F601F11C036D0108FB06F0A0F596605851A07928
:203FF00001EB401021490B78012B0EBF0122916A4A7819E02879A37904280CBF4FF4AA50C5
:204010004FF4E66001F114025B01D258101ABA8808FB02F2A2F516729042CFD308212046F4
:2040300013F0B7FD01200FE0C272A179DAF800000F4A0BFB01F10844216848600720107014
:20405000204611F064FD0020BDE8F28F684E0020784F00205C4D0020084F00208A1D00207E
:20407000581D00205C1D002024A70100734F00206F4F00202DE9F84F040004BF002014F02E
:204090007BF804F1500941F62300D9F8006030800020708015F058FA00F57A60B06082202C
:2040B000307302207073B0682061207EB0730020F073D9F80400017D022904BF002014F006
:2040D0005BF8D9F80400007D012802D10020002104E083280CBF0620022020213074717482
:2040F00004F1240BD9F80400DFF878834178480615D5D8F8340041690A689BF80510501CC0
:2041100001EB4101405A7082607DC10604D5E07F40F04000E07702E040F04000607506F114
:204130005805002028714FF01E0A9BF81A00800000F00400287104F130002861607DC106E6
:2041500044D506F130013162D9F8040041788A060BD5617D01F0FE016175407810F0030F0F
:2041700003D1E07F00F0FE00E077607D12F0CCFB0246A275521C307CC0F38001002392B2FD
:2041900000F0030011F0A6FBA0831E23A08BE27D00F5FA7100F5FA7090FBF3F34A430AFBCA
:2041B00013006283C0B208B1C0F11E008018A183608380B2B168C03001EB8001A96002208B
:2041D000E871E07F40F00800E07714E000213162607D40F001006075D9F804104A785107FE
:2041F00044BF40F002006075607D12F08DFBA0750020A860E871A07D217D60F3050106F19D
:2042100088002175017006F12807617D4170032181709BF81A10890001F0040141F00301C4
:2042300081709BF81B20D20002F00802114381700021C1708160BBF81C00C0F30B00ABF839
:204250001C00D9F80410CA7D40EA0230ABF81C000022617D01F0FE01204609F0ADF840F6C1
:204270001200B0830020F083A020706207203870607DC1064CBF002002207870E07D7880C7
:2042900041F62400388100207881618BB06800EB810038610021822038750220787594F8CD
:2042B000210000F03F00B875F975D9F80400807D012818BF022803D100F07F00401E04E082
:2042D00083280CBF06200220202179763876D8F8340041690A689BF80510501C01EB4101D0
:2042F000405A788300206861D9F80400417811F0030F1BD012F050FF6861D8F8180000782A
:20431000C1074CBF1021002182074CBF2022002243074CBF4023002300074CBF80200020C3
:2043300011431943014341F00F01297600206876D9F80400807C00F0030068769BF81A103C
:20435000890001F00401084368769BF81B10C90001F0080141F010010843687642490878AE
:2043700038B1697E41F040016976287E00F0FE002876E07F12F0C8FA84F82000204609F0BC
:20439000A7F9E07FC1063AD5D9F8040094F820204178521C88074EBFD21E9BF81F00821898
:2043B000387EC0F380010023D2B200F0030011F091FAABF80000BBF8000000F59671C1F1D9
:2043D0001E0291FBFAF10AFB012A8BF804A0D9F804104A7891074CBF00214FF4FA710818A6
:2043F000ABF80000ABF80200BBF800209BF8040039698218C03201EB8201022001E000213A
:204410000020E961E87604F13000A862D9F804104A78687E510747BF04F1380140F020002C
:20443000124900F0DF00E9626876A17F94F8200060F30501A17740F60B00B8840020F884C3
:20445000F86228700220687094F845006880D9F804004178880744BF012068800020BDE8B9
:20447000F28F00BF24A70100784E0020D04700202DE9F84F0D46680688B028D5C84A107816
:20449000002108F065FE040021D0C64908688047064614F003FC012804D014F0CDFA616875
:2044B000884203D140F2014015F04AF800202072201D0EF02FFEBC490A6830469047204650
:2044D00014F0E8F8FF22432120460FF0A3FBE8070BD514F0B1FA28B100218160B3480068A4
:2044F00000B1804785F0010057E1A80710D500200690002104900023029000900591039316
:20451000019101223C2015F017F885F0020044E11E266807DFF8988240F1A080002007901E
:204530008346A4480078002108F012FEA24904468878FF2804BF002013F01EFEA07A14F099
:204550005BF90746606D807A97F82E91022818BF032807F5947A06D108F10D0014F0E8FF97
:2045700008B908F1070B5146484614F0DDFF88B3606D807C002818BF012804D1414650463C
:2045900012F077FC04E05246494640460EF0B0FAFF283ED006FB00F908EB0906062251466D
:2045B000F01D13F0B5FF18F8090040F00209F01D07900622606DC17A01F0010187F82E114E
:2045D00006F1010A606D00F10C0107F5947013F09FFF1EE05146484614F072F8C8B15246BB
:2045F000494640460EF084FAFF2812D0464308EB060404F10D0014F09BFF40B904F10D00F0
:2046100014F096FF002804BF607F012801D149F0020907F12C004B46017806914189090947
:2046300005917A8C079904920122C088029140080390CDF804B0CDF800A00020B97914F08B
:204650007BFFD7F89C015D498842B8790CBF002101210CF061F885F004009EE0280610D556
:20467000002006900021049000230290009005910393019101223B2014F05EFF85F08000E8
:204690008BE0E80443D54E48046808F1070108F10D0014F045FF29E0207A012825D1616DBA
:2046B0004878410721D504F13E000178022918BF03291AD1417804F1380240460EF018FAA9
:2046D000FF2812D0704308EB000707F10D0014F02FFF50B9F91D07F10D0014F021FF06226D
:2046F000F91D04F1380013F013FF2468002CD3D134484268344800784FF4805110F004FFC5
:2047100010B18E200CF0DCFC85F4805045E0A80505D514F046FA2D4901200860FEE76905BB
:2047300004D50AF046F985F4806036E0680405D581200CF0C5FC85F480402EE0A8042BD551
:20475000234C206810B1002013F016FD4FF0FF30206000201F4C0DF0B1FA216851F8202F19
:20477000684690471C48016B426B00910192C06A24681A491A4A02910392ADF810006B46F8
:204790002668184A18491948B0471949086004F0CFFA85F4005000E0002009B0BDE8F08F33
:2047B000961D0020700C0020740C0020204F002030190020981D0020684E00202D3D0100CC
:2047D0006C1D0020784E00206E4F0020FC002043044F0020F04E0020A00E0020298A0100AB
:2047F000398A0100481C0020B411002088490020EC4E00202DE9FC47B14CB24D2678DFF867
:20481000C882B24FB249002E4FF4A05900F01781072E14D0092E18BF0A2E00F012810B2E35
:2048300018BF0C2E00F021810D2E00F0E480112E54D1A84A1078002108F08AFC002871D050
:20485000C5F80080426D5378016DA34CDFF88C82DB0657D50B4641F2044EB3F802C0F445C6
:204870001FBF5E8B7645B3F832A0F24506D041F20A4EF4451CBF7645F24502D1A7F800E039
:2048900048E04FF0000E40F601044FF4806A182606FB0EFC9E1C36F80C603E8016F47F4FF8
:2048B000F5D0022E40F20681B6EB0A0617D0B6EB0A0611D04FF44064361B01D0B61E012E04
:2048D00040F2DD80361FFBD040F2FA34361BE9D0761E00F0E680F61E00F0D980A7E01E883B
:2048F000A64240F0CC800EF1010EBEF1020FCEDD58E0981C20F80C9011E0C96E0A68002071
:2049100010710CE0488E388041F20441401A01D0801F01D12C6045E041F206403880C5F8D9
:2049300000803FE06E488078FF2810D0C5F800806C4A12681C214143931C5B5A3B8013F4BF
:204950007F4FF5D040F204441B1B012B664876D94FF47F741B1B15D00A3B012B17D940F6F3
:20497000F6341B1B032B84BF5B1F012B12D99B1E012B64D940F2FD341B1B0BD05B1E012B8A
:2049900005D909E0921C41F20143535202E0921C22F80190286005E0002013F0EDFB85201E
:2049B00014F016FEBDE8FC4750480078012108F0EFBE4F4C4F4A25684F4800680023CDE977
:2049D000002355F8089F4D4B0222C8474C49088035E0092E4ED14B490A685089002849D03D
:2049F000494908780FF06EF90021002014F094FD0020207023E04888388002280DD940F2DC
:204A10000442801A1BD040F6FC72801A05D0083815D04FF47F72801A2CD1887B801CC2B2A5
:204A3000B52AA8BF662088730020488007E0002013F0A2FB8420BDE8F64714F0C9BDBDE85B
:204A5000F3874888388010F47F4FFAD040F20442801AF4D040F6FC72801ABAD00838EED00C
:204A70004FF47F72801AA4D004E04888388010F47F4FFAD0002013F07FFB8520DBE7807BDD
:204A9000012818BF042801D0A7F8009047E7807B01287FF42EAF9A1C41F2024122F80C10D6
:204AB0003DE75078C2067FF528AF886D016800220A7134E7002013F05FFB8320BBE700BF50
:204AD0006F4F0020204F0020158E0100504F00208C1C0020961D0020A5250000156D00000F
:204AF000684E0020581D0020D15C00006E4F0020F04E002002000080EC4E002005510100A0
:204B1000424F0020641D0020714F0020BB482DE9F84F0025BA4CB849056094F8E2000028CC
:204B300000F06581012800F02F81B64E02283CD0032840F05C8151F8250CD4F8B81000291D
:204B5000A0F5C060C4F8D400B8BF49420028B8BF4042814226DA4FF08057D7F8A4014568E3
:204B7000B4F8BC0030214FF47F42082300903046A847D7F8A4014568B4F8C00004214FF453
:204B9000F802122300903046A847D7F8A401B4F8D070456820214FF440620A233046009774
:204BB000A847012584F8D8501CE151F8258C13F0F8FF2F4600B901273946934F38680028BC
:204BD000FCD0B146012609F10409D9F82CA03E6009B113F0ECFFCAF30720C4F8BC0013F092
:204BF000E0FFAA4600B9B2463B68002BFCD0D9F800B0BAF1000F3E6001D013F0D8FFCBF349
:204C10008440C4F8C00013F0CCFFAA4600B9B2463B68002BFCD0D9F81C90BAF1000F3E6066
:204C300001D013F0C4FFC9F38120C4F8D000B8F5C061C4F8B81000F09C8094F8D80068B901
:204C5000C4F8D410D4F8C000C4F8C800D4F8BC70C4F8C470D4F8D030C4F8CC30D4F8D40088
:204C7000D4F8BC30002854BF02226FF0010204F1C8010F6800EB40008018421000EB927272
:204C900007EBA2000860D4F8C810C4F8C43000291CDD1E293CDDD4F8CC0030B93429B4BFE1
:204CB00015391E21C4F8C81025E02A29BABFD4F8C8000B381E20C4F8C800D4F8C4003F2862
:204CD000B4BF401C3F20C4F8C4001FE0D4F8CC00032812D011F10B0FC6BFD4F8C8000B3002
:204CF000301CC4F8C800D4F8C4000028C4BF401E051CC4F8C450032508E011F1150FC6BF8F
:204D1000D4F8C8001530301CC4F8C800C4F8CC504FF08057D7F8A401B4F8C43030214FF444
:204D30007F424568374800930823A847D7F8A40104214FF400321123456832480096A847DB
:204D5000B4F8C860D7F8A40104214FF4F802122345682C480096A847D7F8A40120214FF4C6
:204D700040620A23B4F8CC60456826480096A84701E084F8D85040F2FF50404502D8801CDB
:204D900040452FD2082030E051F8251C1F4F4BF2F5204843060A3868C0F3814001280CD146
:204DB0001B4800680068804710F0D0FE13F005FF3111C010484306EBE03694F8E50030B916
:204DD0001448006820F07F403618760801E084F8E5501148310C0660012741600F4D8760CA
:204DF000287808B90B2000E0052084F8E40004F053FDBDE8F88FC0462D400C402C500C40BB
:204E1000DC09002000A00C4000800C40B43F0050EC010010102009403C600C4089A50100F5
:204E30002DE9FC47C1480278112A47D1C04B1878002108F08DF904000AD1002013F09CF962
:204E5000002013F099F9BDE8F647FF2014F0C0BB04F14C0898F8000008B90121E172451C9D
:204E700088F80050E9B2E07DD8F80490814209F1400A24D299F80E00401C89F80E00D8F89F
:204E900008104A7AD9F80810520802F0010282F00102101889F80E00A08B01EB8001C9F869
:204EB0000810627DD30609D5628B98F8003000FB1320C03001EB8001CAF8201033E104F101
:204ED000280609F174074ED1A07F3875E17F7975D8F808205278930710D5E27FD30604D592
:204EF000C01E387501F0EF0179750020386089F873000022797D01F0FE010EE1900607D434
:204F1000F08B00B1F07EF875F08B00B1306AF861D8F808004178C8070BD5F18B00291CBF9B
:204F3000306A002805D0F861B07E884238BF0146F975E07FC1060CD5D9F83800317800EB29
:204F50008100C9F83800A18CC03100EB8100022101E000200021386089F873100022E17FDA
:204F700001F0FC01D9E0D8F808104978CA0716D5787D397D00F0F700891E01F03F01820722
:204F90005CBF891D40F00200420644BF491E00F0BF00787539750020F861F875C3E0A28C5B
:204FB0002D1AD9F838008907EDB200EB820075D5012D41D1C9F83800A07F00F03F00A0770D
:204FD0003875801EE17F7975387501F0F7017975D8F8082053785A0704D5801F387501F06A
:204FF000FD01797500233A7DF17E9AF8000002F03F028A18521CC0F3800192B200F003002C
:2050100010F068FC00F5FA70A0841E21A08C90FBF1F18AB2797D01F0FE01204608F0CCF97C
:20503000002089F87300F08B00B1F07EF875F08B00B1306AF86176E0022DC9F8380026D1B1
:20505000E07FC10706D5387D811F3975787D00F0FE00787500233A7DF17E9AF8000002F09E
:205070003F028A18521CC0F3800192B200F0030010F030FC00F5FA70A0840022797D01F0AC
:20509000FE01204608F098F9707FAAF81A00707F401C451BE8B2012812DD07E0C9F838002A
:2050B000E17F707F451BCA06E8B209D5A28CD9F83810C03201EB82013960022189F8731081
:2050D00088B3F969F27EE37FA57F1144F96159084FEA410AD8F8081049784A0748BF2AF07E
:2050F000020A890748BF2AF0080A012807D1307FF8752AF0100A0020386089F8730050463E
:2051100011F002FC05F0C00500F03F0005433D7587F815A000220AF0FC01204602B0BDE893
:20513000F04708F049B9BDE8F38700BF6F4F0020961D00202DE9F04F09AFADF13C0D089013
:205150000A92388809911E46ADF81800101C08BF002000F06C81017800274FF0010B401CF1
:205170004FF0FF39B846DA460A9058E1252940F04D810178401C0A902D2918BFADF80680A4
:2051900004D10178ADF806B0401C0A9030291CBF4246434604D10178401C5A465B460A9096
:2051B0002A29CDF800804D4617D1049330680A9BCDF80890C01C20F00300001D306050F8B7
:2051D000044C1978002C009403F101000A9018D5ADF806A06442009413E044460AE0600056
:2051F00000EBC4004018A0F130040A9801780094401C0A90302901DB3A29F0DBCDF808906E
:2052100004932E2929D10178401C2A290A9011D13168CDF80880C91C21F00301091D31605B
:2052300051F8045C002D48BF454601782B46401C0A9011E0454643460AE0680000EBC5000F
:205250004018A0F130050A9801782B46401C0A90302901DB3A29F0DB02930AB122460492ED
:205270006C2904D04C2918BFADF8048004D10178ADF804A0401C0A900BA8CDF80C800FABF5
:2052900007906429059379D0692977D0BDF818C0752965D0782961D06F295DD0702946D07A
:2052B000632936D073291AD00A98401E0A900998012812D961490C68B5F1FF3F03D0A842B8
:2052D00088BF6D1C00D8099D029508A80AA932466B46A0473F18039865E0454617E0306815
:2052F000C01C20F00300001D306050F8040CBCF1010F014608B94FA00146079113F0A4FA76
:205310000390B5F1FF3F4FD0A8424DD9039528464AE03068C01C20F00300001D306010F86B
:20533000040C8DF82C005D46039558463CE0082035680490E81C20F00300001D306050F842
:20535000041C082210230FA80CF0CEFD401E079040210170079823E0082302E0102300E0B9
:205370000A233068C01C20F00300001D306050F8041CAA42BCBF2A1C04920DE03068C01CB0
:2053900020F00300001D306050F8041CAA42BCBF2A1C04926FF009030FA80CF0A5FD07903B
:2053B0000599081A0390009C241ABDF8065000945DB906E008A8202109AA12F032F87F1CAA
:2053D000009C641E0094F5D50398401EB0F1FF3F03900FD1BDF8060001281CD10098401E2F
:2053F000009018D408A8202109AA12F01AF800987F1CF4E70798017809AA08A812F011F8D5
:205410000798401C079003987F1CDEE708A809AA12F007F87F1C0A980178401C0A900029B6
:205430007FF4A4AE089808B14146017038460FB0BDE8F08F286E756C6C2900C000A7010071
:205450002DE9F84306460D46707801071DD4D6F80310B54821F07F41203981423FBFD6F8D4
:20547000061021F07F412039814228BF112033D2B01DF11C88425FD3B07A002818BF0128D4
:2054900003D0022818BF032856D1B07C002818BF012803D0022818BF03284DD1307D01288F
:2054B00018BF022803D0832818BF032844D1707A10F0070070723FD03078012107F048FE5D
:2054D00004000AD100200FF0DBFF044613F0F4FC844214BF07200D2024E104F1540200204A
:2054F00016606072207A012808BF0C20F4D00021E17500200121737A01FA00F73B4208D0ED
:20551000E37D5B1CE375DBB2012B04BF00F125032376401C0328EEDB7078C10618D5317D84
:20553000012909D1102810D012280CD0132804D0152804D01D2804D09FE0002006E0042047
:2055500004E0012002E0022000E00320A0735EE0FF20A073307D02281EBF717801F003001B
:205570000328E9D00B07E7D408B18806E4D4480707D516F10C00DFD0F07A002818BF0128EC
:205590007BD100206075E077707810F0030F27D1207D00F03F0020757078810605D451680F
:2055B000002904BF9068002801D018216175707881060DD4307D832818BF032804D1182038
:2055D00060750120E07703E0607D40F0010060757078410717D5E07F40F00200E07712E0B2
:2055F000217DC0074CBF0120022001F03F0141EA80111820607521750920E07770784107A8
:2056100044BF0B21E177207D00F0C000A07796F913007F2806BF454800780EF0CFFA04F1C0
:205630002907387045B14248416B48693978026801EB4101505C2870B07ADFF8F880DFF8C8
:20565000F8903E4D002818BF012809D17875B07AC10758BFC8460622414604F130002FE03E
:2056700005F10D0013F064FFB8B1B07AC10754BF4946414613F024F808B9122052E0B07ABF
:20569000C10754BF49464146062204F1300012F03FFFB07A00F0010006E00622E91D04F158
:2056B000300012F035FF03207875B07A00F001002870B17AC80758BFC84606224146681C5F
:2056D00012F026FF7078410729D5B07A022818BF03281BD1F17A06F10C0201F00101284652
:2056F0000DF006FAFF2811D01E214843054405F10D0013F01DFF48B9E91D05F10D0013F053
:205710000FFF0120B8750622E91D04E0F07AB875062206F10C0104F1380012F0F9FE012001
:2057300060720020BDE8F283E0FFFF00714F002024A70100344E00202C4E0020301900201E
:205750002DE9FE4F0F469E4C0168E16241688068E0609C48A16080479B48E16A0160A168D6
:20577000DFF884B24160E168DFF8788281609749002FA246C1606ED03D68E8788DF8080088
:2057900028798DF8090002A813F0C2FEA86808B18F490160E86808B18E4901608E4C2878A0
:2057B000207068786070A878BE68A0703178E1707368636072696261B168A160F168E16059
:2057D00031692A6A21617B68A2632E69E6621868A06168692063A8696063786886681EB9F4
:2057F000002012F0C9FC00E026627868C06818B9002012F0C1FC00E060627868006918B9D6
:20581000002012F0B9FC00E0A0627868406818B9002012F0B1FC00E0E0612869E062F86843
:2058300081680E6806B96E4E6C494FF001094E60C66881F801902EB9002012F09DFCF86898
:20585000454601E045462E6000685C46FE68A0617068E06106E0002012F08EFC4FF001094E
:205870005C464546286861494668621C04F114035020B04710B1286880688047DAF8080038
:2058900080475C4F0026834669467E7058483E7004222061304611F081F80098B0F5801F39
:2058B0000CD020B911F036FC05F09CFB08E00FF051FF12F0BFFF0420788001E011F02AFC49
:2058D0004D4FB0462868C7F808808069A660804778604A48468080F80090142013F0B4F87E
:2058F000FF211422A06213F0F1FAE01CFF21022213F0ECFA142013F0A7F8414908600868F1
:205910001422314613F0E2FA3046FBF779F9484610F00CFA3B480188FF2906D102210180CE
:205930007822001D314613F0D1FA032013F0ECFD042013F0E5FD052013F0DEFD062013F017
:20595000D7FD07200AF070FF2F4E0820307006F12C0013F079F93178062010F09DFE0FF08D
:2059700085FA263605200621324612F03FFB38B14046C0F10501401C06F8011B0628F8DB9F
:205990002F68224909200DF10A0201AB7D68087010204146A847A06ADAF80C10E2690A279F
:2059B0000A309DF80A307F1E00F8013BF9D1921E5846E261884702F027FFBDE8FE8FC04683
:2059D000680C002041490010F844002050960100F970010061840100A00E00201C120020DA
:2059F000F71E0100D412002014100020B9790100D9840100D0120020041D0020140E002021
:205A10007C1D0020040D0020F00A00209B1D00202DE9FC47DFF8A4A20F460546F80B80F011
:205A30001681DFF87482B80880F007819D4EDFF87892B80F80F0B580B80B80F0A28038096C
:205A5000C0F02181082013F0D1F8002840F09480802013F0CBF8002840F08E80684609F011
:205A70005BFC012803D10098002800F0858000250124E8B212F08CFC48B1837A3BB18472C7
:205A900090F9090004FA00F0C0B210F09DFD6D1C032DEED34546032028746868703013F033
:205AB000CDF97E480023016803607D4950F8082C98461A4640F8088C05F1340013F0D2F917
:205AD000404607F024FF3068006B80470146AA68A869891A090BC1F1FF3282422CBF08444D
:205AF0004FF0FF30A8612E7F1EB1E968B0EBC12F1ED912F001F9414600B12146081C14D02D
:205B1000484640F60901018041464180427B64F303024273027B61F303020273416012F022
:205B30002FFF418811F4406FFBD02C774146A96110F02AF85D48444641460460022011F04C
:205B5000C1FC022010F00CFD112007F0E1FE287818B96868383013F097F95548007810B92C
:205B70000E2007F0D5FE687F18B16C77052010F0F7FC2C744F4868610DF044FC27F008070F
:205B900081E046467C36366846B1B06830B13069B6F92C10B46800222023A04727F400576A
:205BB00071E03446606D016804208847D0B1287CC0B1464608363068A0B106462068006B59
:205BD0008047E968801BE860000B8842E86002D240184008E86040F6C41181422CBFB0F583
:205BF000FA7FE96049460D310978002011F00F0F18BF0120464660B9688C40F609018142B2
:205C100007D1AC6928466FF4807100224FF00073A047294906F13400002213F023F902200A
:205C300030740DF0EFFB6C69002128464FF080630A46A04727F0005725E005F07BFF45469F
:205C500005F17406306808B927F002071BE013F0FFF851460E6896B1B16A89080FD2B46A57
:205C7000B16AA143B16213F03FFCB06848B130692246B6F92C10B4680023A04701E013F0BD
:205C900033FC27F4804727B1504639462C3013F007F9BDE8FC87C0460813002014100440C6
:205CB000AD7401008C010010A81C00200000046032A6010091D000009584000088130020BF
:205CD000A3488078FF2800D170472DE9F84F12F093FD054605F217100178012908BF4178A7
:205CF00000F0A98005F17400817B022903D105F174020020907305F59274E18911B1207BC0
:205D100007F046FD6889DFF84CC2DFF84C92288105F58D779CF80A009CF807209CF80C10FE
:205D30009CF80B30B7F800E000EB0208884498449CF80D309844C644A7F800E0BB88B7F830
:205D500002E05B1CBB808644A7F802E04FF01C0E2368E3B1D9F8006095F806B006F10E0A49
:205D70000EFB0BFB0E361AF80BA033F81AB0C34423F81AB095F806A00EFB0AFA16F80A606A
:205D900003EB4606B6F84AA08244A6F84AA0002A04BF9CF80B20002A05D1002904BF9CF8A7
:205DB0000D10002926D02989E88941180026A9812E74287F012804BF698CE9839CF80100A0
:205DD00068B1012105F1740229779078002804BF917B002903D1107F08B9698CE983207D22
:205DF000002832D0022804BF9CF80B00002827D1002129E0E98340B1002028740126287FAC
:205E1000012806D1698CE98303E0F888401C0226F880A8892989814206D08842CED2081AAA
:205E300041F2AB029042C9DA287C08B1052901D0082100E03E212846BDE8F44F11F0A9BE7B
:205E50009CF8090008B10221217544489CF80F2001682868D30709D5DCF81020C26001F10B
:205E70001400A97949010022425011E001F11402A979490152582261D9F80010AB7901F155
:205E900008020EFB03F3D158C1600020E8832877334841690A78900703D59CF80E00802815
:205EB00000D1812005F1740A8AF800002846FDF7B9F9012849D0012128460BF0EBFA284636
:205ED00011F03FFCFDF79CFE01283ED000F0D8FBDFF89090D9F80000B8B3B9F80400AA79E3
:205EF00090421CBF4FF6FD7188422ED11E48007A12F0B2FD040028D02670A879608095F8B8
:205F10003900207195F8960160719AF90000A071A4F808807888608112F08EFD050004D1A2
:205F3000FF2020734FF0FF3008E02878207313F00BFB0146A86813F0D3FA80082061204677
:205F5000D9F80010BDE8F44F0847BDE8F18F00BF684E00205C4D0020581D00205C1D002068
:205F700024A70100301D0020E01100202DE9FC47040045D0DFF8289299F80000092818BF2B
:205F90000A2804D00B281CBF0C280D2801D1212003E1A078002107F0DBF8050008BF42204C
:205FB000F6D0A0787F49087005F14806F068417801F01201022902BF706900280C2012D05F
:205FD000687AE8B1A97B012904D1B4F8030008B1812815DA6078402812DA284609F02BFF56
:205FF000B06808B90720D8E0B46105F12207A87B00281CBF0128042813D16B48007808B95A
:206010001220CAE069494A78824208BF0920F8D07A7F05F13801802005F094FA08B10B2075
:20603000BBE0607808B91120B7E02078DFF880A1012878D1287A0021012829734FF00A0879
:2060500011D19AF80000402110F0CEF9B4F8030008FB00F1402011F05FFC010015D1B16934
:206070006079487198E001202872E972697308F04DF968604F494161F0684178C80605D51B
:20609000284601F053F901000BD086E00020388012F0BAFC85F821002846FDF7EBFF010088
:2060B0007BD1F0684178C8071CD505F14207B98800291CBF3068002814D03A788A4211D22A
:2060D0000F2012F075F868B1F06801788DF80010B888ADF801000F2039788DF80310694686
:2060F00011F05AFE99F80010002955D1324A107800281EBFF168487810F0030F1CBF2F48C1
:2061100011F0A8FA112089F8000001202872B4F8030008FB00F1402011F0FEFB01003CD154
:2061300000F0AEFA38E0287A002836D02449254E0868804704469AF80000402110F054F92E
:206150000020287212F0AAFD012804D012F074FC6968884217D11C4A1C481368006853F8E2
:20617000385F0021A84740F2014013F0E9F918491848086001219AF8000007F009FB31689F
:206190002046884708E0284611F032F8316820468847284612F07EFA0020BDE8F68700BF82
:2061B0006F4F0020971D00207B4F0020684E00206E4F002031710000784E0020CC470020C5
:2061D000700C0020740C0020F04E0020EC4E0020204F0020156D00002DE9F04F8246DAF8BB
:2061F00000600C465FEA0208ADF11C0D14BF00214FF0FF3106F14800834612F056FB0028DD
:2062100018BF0B2040F00D8100258848F460B8F1010F057007D06570022010F037FC062010
:2062300010F034FC01E0012060702078012840F2AB80801E012868D9801E012833D9801EB5
:20625000012800F2DF8012F003FE06904FF0805000F5EE77D0F8DC01A378466A0093217816
:206270002846062908BF0120019001200290A068228AE1686368B0478146069813F034F9F1
:20629000B9F1000F40F0C080B8F1000F02D012F0EBF802E0504610F0A7FD002800F0A480FE
:2062B0003868806A2AE012F0D3FD06904FF0805000F5EE77D0F8DC01012306680093A16896
:2062D000A27860682478AC46042C08BF9C466346B0478146069813F007F9B9F1000F40F074
:2062F0009380B8F1000F02D012F0BEF802E0504610F07AFD002877D03868406880474A4939
:20631000C1F8B0510D6081467EE012F0A1FD06904FF0805000F5EE76D0F8DC01E38A876981
:206330000093E0680190208B0290A0780390207D04900121059122782846022A08BF081CF1
:20635000E1786268A368B8478146069813F0CCF8B9F1000F58D1B8F1000F02D012F084F8EA
:2063700002E0504610F040FD00283DD03068006A80475FEA000947D13068C569A168E28AB5
:206390002369E078A847BEE712F062FD06904FF0805000F5EE76D0F8DC01E38AC768009342
:2063B000E0680190208B0290A0780390207D2946049001200590257805B9014608466268FC
:2063D000A368E178B8478146069813F08DF8B9F1000F19D1B8F1000F02D012F045F802E00F
:2063F000504610F001FD08B914201AE03068406980475FEA000907D1306802692169E078F3
:20641000904780E74FF0FF39B8F1010F05D0022010F0A6F8062010F0A3F8584612F034FDD7
:20643000484607B0BDE8F08F504502408D1D00202DE9F24F054684B02868D0F80490D9F8AF
:20645000080013F049F8002805F59A7B40F0078129680498096913F043F805F182068046D0
:206470003078002805F12E0440F6C41A00F0898070882989401E80B213F06AF83178074672
:2064900002290CBFBBF83000A088784300902868016900980AFB0011049813F01DF800281C
:2064B00069D07F1C03973078009F02280CBFBBF83000A088C7190398029000210AFB07F0ED
:2064D000009001912868016900984118049813F003F890B10098A8EB000830890AFB00F2E1
:2064F000B8FBF2F102FB1188B8F1000F18BF491C484301900398091802912989029841185C
:206510006981F1880198CF19C7193078012849D105F18601284611F04FFC708969896884AE
:2065300000202877E883E8894118A9813289A188B0898A4204BF2189884202BF7189E388E7
:20655000994207D0000900907389A9795208002013F00AF8A088ABF8300030792070308956
:20657000A0807089E080B0892081284611F02EFE0220307016E0307801281CBF002011F098
:20659000FBFDA0880AFB00F0B8FBF0F700FB1788B8F1000F288918BF7F1C38186881BFB21D
:2065B000A08847432968344A08690AFB0700C9F808000B78802B10D1C860D2F83080A388E8
:2065D000D8F8000043436420B3FBF0F3D9F814000AFB03F3A3F5966343610B78402B36D136
:2065F000AF614FF4C873688A4743B7FBF3F0401C6861D9F80830181AC9F808006B69DBF81C
:20661000000000EB4300D9F8143058611B4833780068022B0CD1AB795B0100F1140656F815
:20663000038026780AFB068800F1140646F80380AB79126B00EB4316A38810684343642038
:20665000B3FBF0F30AFB03F0A0F59660F061D9F808008860E07AA07228460FF058FA6989E7
:20667000A88912F075FFE989814238BF0120ABF82E0005B0BDE8F08F24A701005C1D002007
:206690002DE9F84F874E706884B0009020B905B0BDE8F04F12F01CBF0178DFF80C92DFF808
:2066B0000C82834FDFF80CB201291CBF0229042941F64C5A04D0402918BF80296FD0E8E0D7
:2066D00012F0ECFA0028FAD00098007804F0F6FB054612F04CFA04469BF80100002840D032
:2066F00000F018FC12F088F80290016800914968019194B1009928460BF0ECFE02280CD0FE
:2067100029780129DBD118B912F01EFF5044A0600120B07011203870B5E000980178802905
:206730000CD108223A70019898F80010406901291ABFD9F828100A7801220BE0072038704B
:20675000019898F80010406901290EBF0122D9F828104A78C2720298817900988BF802106D
:2067700092E0002DABD000992878A94208D1012802D1002C03D192E0002011F0FDFC82E008
:2067900001289CD1002CF6D012F0DEFE00F5C241A068A83112F0A0FE002870D16BE09BF8C3
