:20000000004000207952010001C9011001C9011001C9011001C9011001C9011001C9011092
:1C00200001C9011001C9011001C9011001C9011001C9011001C901103FC9011089
:20003C0080B540F21C420FF2A00121480FF0BAF90121204801720221002241760270032292
:20005C001D490A700422CA700521417706201B491B4A08700721117001BD2DE9F0410FF250
:20007C00844218493820136854689568D6681769D2F814C0D2F818E0D2F81C800B604C6016
:20009C008D60CE600F61C1F814C0C1F818E0C1F81C8020322031401EE5D110685368946840
:2000BC00D26808604B608C60CA60BDE8F08100004804002151030021C1030021740300214C
:2000DC009803002100C0002115050021CB06002123070021750400218104002199040021F1
:2000FC00090800211D08002170B51D46004C204787B200007046000A054AC42804D01047D2
:20011C00034AE4320120049002490020087010479D670000DC01002103490888034A71468F
:20013C00904200D0891C08478A0100210414000010B5014800470000D509000070B5C00130
:20015C00004C2047D5460000F8B5B74CB748254660352F7B00262E7380472F73697B014304
:20017C0017D1002F15D0617E00290ED0214620310A7C5308DB0700D12676236A497B002B1D
:20019C0001D104231943114202D0217DC90600D4E675F8BD0188A64A8918032906D8A54867
:2001BC007C210185A449416201207047A34908479D4830B4014640310A7C022A16D10268D9
:2001DC00D2794A7502689368024680329360487D02280BD0002809D0C41E062C09D8954909
:2001FC00800040184038806B18189060944830BC00470320C002C8800220087230BC0320A1
:20021C00704770B5884804464034A57D012D12D0017D4906CA0F80210A54217C00290AD1E0
:20023C00603040788008C00702D0E07C000702D50120A07500E00020A07382488047A5750B
:20025C0070BD70B5784C8048254650358047022809D14034E1887D4A914204D1E97C8906A9
:20027C0001D4911DE18070BD70B56F490A8908465030D2B2282A07D10A68D2684261937A09
:20029C00D27A12029A1802830378714A002B10D08379012B0DD1037C5B09DB0709D0097D40
:2002BC006C4DC1746C7F20202043687790476C7770BDFF21C174904770BD10B566485A4C6E
:2002DC00804702280ED121464031CA885F4B9A4208D1CA7C5209D20704D0227D920601D44F
:2002FC009A1DCA8010BD70B54F485C494030C07C4009C00707D0574D59482C8B2043288316
:20031C0088472C8370BD884770BD70B5464C5549264640363579A8004018C06880470A2D0F
:20033C00214610D054310A789309DB0704D0B2730A7803231A430A702189CAB22B2A01D30E
:20035C002839218170BD5331EDE73749403108711E2822D008DC082813D00A2813D00B2818
:20037C0013D0182808D112E0252812D02A2812D03C2808D03D2812D03A4980004018C0680A
:20039C00704739487047394870473948704739487047394870473948704739487047394881
:2003BC007047F8B50746204C4E20005D8509EE07FB25002E17D0267D3407240F052C03D06C
:2003DC000124204202D012E00224FAE7C00905D0700603D54868800F012808D05B085B00C5
:2003FC005208520003E0002801D02B402A40062B03D01020022B10D010E002232A40384646
:20041C00FFF772FE002807DAC200B91A2039497E1422114200D10020F8BD02430343384664
:20043C00FFF762FEF8BD00004401002167A70000D5E7FFFFEC000021579600006396000074
:20045C0075D50000F3BC000037CB000004140000EBC80000A8000021F5B4000053AD000048
:20047C002020000080DF0000C90400218B060021670600213B060021E9050021C305002139
:20049C00830500213105002110B5034CFFF750FE20680028FAD110BD0011044010B50D4831
:2004BC00846B406B4101E004C00E014372B60A4B186882B2581510431860084880681A6033
:2004DC0062B6074A5379902253432207120FFFF735FE10BD80500440000004400040044067
:2004FC008002002168610000F825F965F9754500450045002600260057A3520052004C0086
:20051C00401F401F401F3F0000000000304000400140034007400F404F40CF40CF41CF43D9
:20053C00CF47CF4FCF3FCF2FCF1FCF0F000000000000000000000F00080000003F0000003D
:20055C0040003F000000040068000E00DC00060043001A0005000000000002000000000040
:20057C00000000000400C00000000400C000000007000000000000000000000000000000D0
:20059C0000000000304000400140034007400F404F40CF40CF7FCF6FCF5FCF4FCF3FCF2FF3
:2005BC00CF1FCF0F000000000000000050C00091007070C00091007082312100319110B1BA
:2005DC000070018101B100A18231329110B101911110418141227740F106007051C00191EA
:2005FC0030181039833108D01831416F3100319110B18314141683680070251050C0009123
:20061C00F4C340C12014036F311041045082F0229840512622C082312100319110B16339D2
:20063C003110410482C082312100319110B163393110A2C082312100319110B15010153143
:20065C00051405920070676452C0311031066131C1026A6412C13110213971065131E1029C
:20067C006A64007051C0019101CCE2C06A64676411C1C2C06A6450B054B0007140804022BC
:20069C00D6440022C94060B08180111EC944007054A064B0F0800022C9404012B09032B025
:2006BC0070C1DF6811C122C16A6470C1E46851C00191E2C0823160820200329110B130C254
:2006DC00EE68538253395339B16460C3F4688012B09032B00070676401C122C16A6401C103
:2006FC00C2C06A645382B164C012B09032B00070676472C281C06A6422C111C16A6402C0ED
:20071C0011C16A6462C031C36A6462C311C16A6402C311C16A6453825339B164E2C36F6421
:20073C0011221C4142C281C86A6452C211C16A6472C2E1CE6A6402C281C86A6402C201C825
:20075C006A64B0C030690070676442C201C86A6452C211C06A6472C2E1C06A6402C001C1F6
:20077C006A6462C001C36A6422C101C16A6462C301C16A6402C301C16A645382B164007004
:20079C008180111E5C4150B054B00071408040225D4154A064B0F180012251450070002277
:2007BC00514160B04E610000000000000000000000000000067305720B720E7250B000716E
:2007DC00818060B050A09280F0EFF19202936A6741228C458080F1C11004301601110114BB
:2007FC00016CB561B661B761B861B961BA61BB61BD61BF61C161C36126632D63F0C002046E
:20081C003231412A1214321601112114016CDA61C561E061C761CB61B561B561B561F4613F
:20083C00C561FA61C761CB61B561B561B561F461C561FA61C761CB61B561B561B561E761D1
:20085C00C561ED61C761CB61B561B561B561CF61CF61CF61CF61CF61CF61C064CF61F964A1
:20087C00CF610665CF613265CF617467CF611166CF61C0644E65F964CF610665116632653B
:20089C00CF618280E0DFF2926A67B0B0D661B1B00673057230B06C61D0CF6A6784C203C0E8
:2008BC00C0C37C64207851788278E3781579B6780062C0CF6A6784C203C0C0C37C64307871
:2008DC0061789278F3781579C6780062B0CF6A6784C203C0C0C37C6440787178A27803798D
:2008FC001579D67810922192329243925492659256911FC0FF914039F006011010311014FA
:20091C0000927067CF61E3B054A0F08050221A4640800022BE461262E3A000C860915981E9
:20093C0050B0918041228E46A0CF6A6712828231823942398B641282F2062F101F312F1449
:20095C001682D622334640C1346200C520140D6F6D39DE10F4C34E0482C082312E006D3900
:20097C00A2C082312D001A828A39FA062082803180390BC00B18BC10AC18038239149B14AF
:20099C001082F006011010311014518110140C14C622C94631D0C1266462021011C001306E
:2009BC0010C00118021882312100C126919103B013B063B053B041800122BE46B481C4913D
:2009DC00D581B51C774E95186591F080102269428C623D9110B13E9110B1E08000228146C9
:2009FC00E6228142E0B0951865910F925981F914F0805022114210228C464D6390CF6A673C
:200A1C0063B052A03082F2C02004021011C0013010C00118021882312100C1269191919117
:200A3C0013B003B063B053B064B054B0007141800122BE4663B064B0F08050221142B1810F
:200A5C00C191D1819118619131B0A4622967E0A059810582591480C0007163B0BA6A6962C3
:200A7C00E3A0018262818231823D80EFF19202936A6703A000703782473987393082803930
:200A9C00F006021011C0013010C00118021882312100C126819102B012B030824039F006CB
:200ABC00021011C0013010C00118021882312100C126919103B013B063B053B0007153A036
:200ADC0062B052B041800122BE46A481C491D581B51CFE4E95186591F0801022F0428C62AC
:200AFC00B481C491D4814518751C084FF0801022F0428C623D9110B13E9110B1E080002253
:200B1C001247E6221243E0B065910F925981F914F0805022114210228C4630632967E0A019
:200B3C00598105825914F0C0007162B0226BF062A2808B64CF6112824239F2068B6050B086
:200B5C000071CF6170CF6A67408241800122BE46A481C491D58195186591F18011228C4635
:200B7C00336B41800122BE46A481C491D581C51C1C4B95186591F08010223F438C6260CFD7
:200B9C006A67408241800122BE46B481C491D58195186591F18011228C46506B4180012226
:200BBC00BE46B481C491D581C51CB44A95186591F08010225C438C62E092D08200226B47EC
:200BDC00C0B20070A080F022874330B002C1623101C0A080001E8043F022814380F8603144
:200BFC00603981632010101A136F236E11161216826B00702DE9F047DFF8A0916849694E86
:200C1C0089F80000002008600921674801700D2141804FF48A71818064480660B77E644844
:200C3C000770FF2FF17E417008BFFF29327F8270737FC370B57F0571F67F467114D1FF2A38
:200C5C0008BFFF2B10D1FF2D08BFFF2E0CD159490A7802704A7842708A788270CA78C27037
:200C7C000A7902714979417153490278534D544EDFF850810A7042784A7082788A70C278D2
:200C9C00CA7002790A7140794F4A4871FF2028706870A870E8702871687100204B49088050
:200CBC00776B4B497878087039781170B87849490870796908794849421E0A70F878474900
:200CDC0088F80000B869086008B917F0F5F9F869434C206008B917F0EFF92068DFF804A115
:200CFC0001688847216851F8042F504690473E483E49CAF820003E48CAF82400386A0860C9
:200D1C0008B917F0D9F9786A3A4C206008B917F0D3F9B86A3849086008B917F0CDF90BF00D
:200D3C004FFB07280CD10EF0A7FF99F800004FF480410CF017FDBDE8F047002017F0BCB980
:200D5C002E480168884721680A6807469047226852F8041F00208847F16898F800000A8849
:200D7C00274B284902431A8038460A6890470C21254800F04DF8284600F04EF800F050F823
:200D9C002248002101604FF6FF7181804FF4005199F80000BDE8F0470CF0E4BC6E4F00201B
:200DBC00044F0020B63F0050604E0020084F00202C4E0020E81200503C4E0020344E0020EA
:200DDC0050A601006C4F00207B4F00200C4F00206D4F00206B4F0020724F0020F04E0020CB
:200DFC00F44E00207C4B0020B9890100F84E0020D9890100FC4E0020F01D0020C80B0020F8
:200E1C00544F0020CC0B0020F84D0020C01D0020DFF800F0E5710110DFF800F01D6E011009
:200E3C00DFF800F04D7101107CB56D4D0446A8680E4628B94FF0FF30002112F0F5F9A860FF
:200E5C0000213CA30A4616F052FA20463DA3801E08D0801E61D0401E4CD0401E37D0401E0C
:200E7C0022D00EE0A868012E05D000210A4616F03EFA37A357E000210A4616F038FA39A31D
:200E9C0051E0A86800210A4616F031FAA868022100223AA316F02BFA01208DF803009DF8B8
:200EBC0003000028FBD17CBDA86800210A4616F01EFAA8680221002236A316F018FA0120E0
:200EDC008DF802009DF802000028FBD17CBDA86800210A4616F00BFAA8680221002232A3F5
:200EFC0016F005FA01208DF801009DF801000028FBD17CBDA86800210A4616F0F8F9A868DF
:200F1C00022100222DA316F0F2F901208DF800009DF800000028FBD17CBDA86800210A46C6
:200F3C0016F0E5F929A3A8680221002216F0DFF97CBDC0463E3E3E535441434B204153533C
:200F5C00455254002A2A2A4552524F522A2A2A003E3E20494E5445524E414C204552524FB3
:200F7C00522100C03E3E20494E5445524E414C204657204552524F522100C0463E3E2044BB
:200F9C00454641554C54205350494E4C4F434B2100C046C03E3E2057524F4E4720415049E7
:200FBC002043414C4C2100C03E3E204943414C4C2054494D454F55542100C0463E3E2049A4
:200FDC0043414C4C2041424F525421003E3E204F5554204F46204D454D4F52592100C046B7
:040FFC0008020020C7
:20100000B41200001810000015AB0110FDB301106DC00110FDAE011099B5011059BA0110D3
:0810200039BA01102D00000097
:20102800B01200003C100000B1C00110A9BF011067C0011069B80110B9B9011099B901104F
:041048003000000074
:20104C00B012000060100000BDC00110CDB30110D9BD01106DB301108DB80110D9B9011062
:04106C00310000004F
:20107000000000007012002004000000000000000000000020000000E8C9011030000000A8
:2010900028100000781200200400000000000000000000000C000000D8CA01101800000083
:2010B0004C1000008012002004000000000000000000000024000000F0CA01101800000007
:2010D00000000000881200200400000000000000000000001000000018CA01102C00000013
:2010F0000010000098120020040000000000000000000000200000006CCA01102400000077
:20111000FFFFFFFFA01200200400000000000000000000002800000090CA01102400000036
:20113000FFFFFFFFA81200200400000000000000000000001400000008CB011018000000B5
:20115000FFFFFFFFB012002004000000000000000000000058000000B4C901103400000083
:20117000FFFFFFFFB81200200400000000000000000000001000000020CB01101800000051
:20119000FFFFFFFFC01200200400000000000000000000001C000000B4CA0110240000007E
:2011B000FFFFFFFFC81200200400000000000000000000003800000044CA011028000000A6
:2011D000FFFFFFFFD01200200400000000000000000000005400000078C901103C0000001B
:0811F0000100000018A6010037
:0411F80001000000F2
:0411FC0000000E00E1
:0412000000000F00DB
:0412040032000000B4
:0412080001000000E1
:04120C00DC100020D2
:0412100000020000D8
:0412140000000000D6
:0412180001C90110F7
:04121C0000000000CE
:0412200000000000CA
:0412240008000000BE
:0412280000002200A0
:04122C00080F002087
:0412300000000000BA
:0412340000000000B6
:0412380008000000AA
:04123C006810002016
:0412400000000000AA
:0412440000000000A6
:04124800080000009A
:04124C00000000009E
:04125000000000009A
:041254000000000096
:041258000000000092
:04125C00010000008D
:04126000700F0020EB
:041264000600000080
:041268000100000081
:04126C00BC0D002095
:04127000000000007A
:041274000000000076
:041278000002000070
:04127C00000000006E
:02128000290043
:02128200010069
:02128400250043
:02128600300036
:02128800310033
:02128A002D0035
:02128C0001005F
:01128E00015E
:081290000300000098A5010015
:0812980000000000000000004E
:0412A0000000010049
:0412A4000000030043
:0412A80013C401105A
:0412AC004786010070
:0412B000B812000070
:0412B400B81200006C
:0412B8000000000032
:0412BC0028120020D4
:0412C000278801007A
:0412C4002000000006
:0412C800FCA4010081
:0412CC0080A30100FA
:0412D00029C101101F
:0412D400675101005D
:0412D8007F5F010033
:0412DC00A1C7011095
:0412E000A3C701108F
:0412E4000000000006
:0412E8004CA601000F
:0412EC0024A1010038
:0412F0003CA101001C
:0412F4000CA1010048
:0212F8000200F2
:0212FA000900E9
:0212FC000100EF
:0212FE000000EE
:0113000001EB
:04130400B5870100A8
:041308001964010063
:04130C009D790100C6
:041310002D68010043
:04131400C7680100A5
:0413180091500100EF
:04131C00D9020100F1
:04132000ED8A010051
:04132400F13601009D
:0413280015C70110D4
:04132C0025C70110C0
:201330002DE9F04FADF1340D18F03CF913F056FA071C00F0998416F05FFFC74A002132F8E9
:201350000C6F002E40F08C844FF6F87515805760C24C2170002696607968E16017F0DCF8DE
:2013700004F148073846314618F018F9CE4841F28832CE4927613346009004F1A00013F0C8
:2013900079FACF4904F15400152332460090102008F084FACB4910200223324608F07EFA32
:2013B000B1460DF1190701208DF8190080468DF81B904FF4806203468DF81A80C24E8DF831
:2013D0001C8010203146009708F068FA0DF11A0040F20242009043463146102008F05EFA2B
:2013F0000DF11B000090314640F203424346102008F054FA07A8314640F20642434600908E
:20141000102008F04BFAC94910204FF0FF3208F045FAC74910204FF0FF3208F03FFAC54F71
:20143000C54E10201323C54A00903946019608F035FA042017F0CCFCC74E0146B16061B1D5
:20145000E81D14F0FDFFBE49102006F11402009011230191394608F021FA03208DF81D8006
:201470004FF0020A8DF81F0004278DF81EA0B5498DF8207004AB48460A6809791A600DF143
:201490001D02197141460CF0B3F840460DF11E0201460CF0ADF841460DF11F0250460CF0A1
:2014B000A7F80320414608AA0CF0A2F8052104AA38460CF09DF804F1140004F14002A2497D
:2014D0007060102008F0EAF9207815F033FD9F490246102008F0E2F9207815F02BFD9C4977
:2014F0000246102008F0DAF99A491020FB2240F6480308F0D3F9CA49102008F0CFF9C94E0A
:2015100006F1100006F108010DF0DAFCC949F06017F009FBC849CDF8009006F11C00C82211
:201530004B4613F0A7F9C5487060681D13F0B0FB207815F0FFFCCDF8009003463A46C04998
:20155000CDF80490102008F0A9F904F16C00494618220FF02BFECB48EF1D494607804FF092
:20157000FF3011F067FEC44EA06049466FF07842B6A03060304615F07FFBA068BF4F60B10A
:20159000716811F0784F08D0F86004203870BC4DBD60304614F01CFFA0683E4631784A461E
:2015B000AFA315F0AAFEE06800214FF040424FF0FF3317F0EFFF00280990F4D00020029055
:2015D00006A902AA03A811F0A7FD002840F0B0819DF80C000DF10E0115F0E6F9002840F0DD
:2015F000A481BDF80E00ADF80C0016F0C3FCBDF80C00102840F0978120789DF8181088421D
:2016100040F09181029908884FF6FF72824200F08A810D462878913822D01F3803D02038A8
:2016300000F07E817FE12B79A06832787E2B04D07F2B0AD10989B2A301E0297AB4A30091A0
:20165000521CD1B2002215F058FE297905F1080017F09CFF67E1C046080C0020080200201E
:2016700068780E384BD0401E30D0401E00F042812E3840F05881A8780C2840F05481EF787B
:20169000A0683178A7B9EA79012A08D0022A08BFBCA205D0032A0CBFBBA2BDA200E0C2A2A5
:2016B0000092891CC1A305E03D120020BD650100491CC3A3C9B2002215F01FFE0C201AE058
:2016D00081350100256601009D790000A88842F23201814240F02781AA78A06831781A2A58
:2016F0001ABF0092C9A3D1A3491C0022C9B215F004FE42F2320029460FF066FA13E1A9684D
:20171000AF88087841F20542BF1A27D0A7F62B47002F40F00881002840F00581C878009013
:20173000087901903178D5A3C91DDDE031790100B97D0100D971010074A501006C060020EA
:2017500080A50100E0A101004D7F0100518801103181011021B100109C070020A968491C3C
:2017700091F902A0002840F0DE804A78087800EB022016F0C7FF071C40F03481BAF17F0F1B
:2017900000F0A5803F4D3F4BF80000EB07102D18697C4A1C6A744118C91881F80CA0697C62
:2017B00005231A4691FBF2F25A43891A354A697411180C31002011F9012B5B1E024410B248
:2017D000F9D1052190FBF1F040B2A874EB7C002B7DD110F11E0F4FF0000904DB2B7D022B85
:2017F00018BF002B50D195F9120010F11E0F07DA10F1280F04DB2B7D012B18BF002B21D128
:2018100010F1320F04DB10F1280F60DA2B7D5BB910F1320F5BDA04214FF0020935E0C04668
:20183000D9FA0000500E002004214FF001094FF006082CE039880100758601008F7A0100B8
:20185000058300004FF00108414620E053696D706C65205065726970686572616C00C04685
:201870003D3D3D3D3D3D3D3D3D3D3D3D3D3D3D3D3D3D3D3D00C046C00811002088110020DC
:20189000BDD900007402002002214FF00208687D804502D1AB7D022B01DB804517D0288896
:2018B0000A464B4614F068F90120E874687D80451CBF0020A875B9F1000F06D0B9F1010F4A
:2018D00014BF4FF002084FF0060885F81580C049F800CDF800A000EB0710401890F9120022
:2018F00001903178B2A3491DA068C9B2002215F004FD18E008200021FFF79CFA13E0C04672
:201910004D54552053697A653A20256400C046C046432056696F6C617465643A2025640099
:20193000084601F013FF029810B1029817F0F9F90998C00FFFF437AE206917F023FE002837
:201950007FF431AE2069054617F018FE854208BF002502D0856814F08DFD002D0A95EBD0AD
:2019700028460078AB46401E082800F27081DFE810F04B01F600CF00A6008F0075006C0120
:2019900065013100324D00C0434F44454400C046556E657870656374656420504859205660
:2019B000616C756500C046C0314D00C0504859205570646174656420746F20257300C046D3
:2019D000504859204368616E6765206661696C75726500C0584640680B90408816F092FE99
:2019F0000C9008B116F01CFE0C99794FC80000EB0110C019C07D012840F029810B989D498F
:201A10004288102007F04AFF21E1C046504859205570646174652053746174757320457681
:201A3000656E743A203078257800C046504859204368616E6765206661696C7572652C20FF
:201A50007065657220646F6573206E6F7420737570706F7274207468697300C002200DF199
:201A7000210113F0DFFB002840F0F180032001210DF121020BF0BCFDE9E0C0465258506843
:201A90003A2025642C20545850683A20256400C0DBF80450687A48B1774800903178A068FE
:201AB000002277A3C91CC9B215F027FC724800907249EA880023102007F0F0FEC7E0DBF829
:201AD00004100879A56837780978F9B1491E16D0491E0ED0491E40F0BA8038B96CA3FF1CFC
:201AF000F9B22846002215F008FCB0E000906DA3F5E7002808BF71A3F1D075A304E000289E
:201B100008BF79A3EBD07CA3FF1C95E07FA3E6E7DBF80450A16830782A68521E0CD0521E53
:201B300008D00E3A13D16A681378009352887BA3019205E082A300E086A36A681278009215
:201B5000001DC2B208461146002215F0D6FB2868B0F1004F7BD0686814F08CFC77E0DBF8F6
:201B700004000078010935D2400970D3032016F08DFD00286BD17068717842680B46B3EBCB
:201B9000D26F12D01A46FF2A61D000EBC202D7682FB900EBC100006914F01AFC57E000EB31
:201BB000C10002691846904751E08068F4E7C046525353493A25642064426D2C2041564759
:201BD00020525353493A25642064426D00C046C074020020042016F059FD002837D17168B9
:201BF00070784968B0EBD16F07D0FF2809D0401CC0B214F029F9FF2802D1002014F024F95B
:201C1000707009F059FC22E0DBF804003778A56803787F1C43B19B1E19D102200DF1220101
:201C300013F000FB50A305E000200DF1220113F0F9FA50A39DF82200009051E7DBF804003E
:201C5000B0F801000FF0BEF806E011F0ADFEDBF8040008B114F00EFC0A9814F00BFC6BE6E8
:201C7000491C0629FFF46BAB17F0D2F80DB0BDE8F08FC04625AB001040E20100F96801009A
:201C900050617373636F64653A20256400C046C0426F6E6420736176652073756363657361
:201CB0007300C046426F6E642073617665206661696C65643A20256400C046C0456E637293
:201CD000797074696F6E207375636365737300C0456E6372797074696F6E206661696C652C
:201CF000643A20256400C04650616972696E6720737563636573730050616972696E6720BA
:201D10006661696C3A20256400C046C050616972696E672073746172746564004164762052
:201D30005365742025642064697361626C656420616674657220636F6E6E20256400C046B7
:201D5000416476205365742025642044697361626C656400416476205365742025642045B6
:201D70006E61626C656400C04368617220333A20256400C04368617220313A202564000007
:201D90002DE9F04F85B0804611F8010BDFF8FC27009008F1FD00009B182B08F1E70508F192
:201DB000660A08F20D1B08F5B07408F1860908F59C7608F5C67700F2D683DFE813F0190061
:201DD0006E007F018B00D403D403F400AF0306011C01F70003014601D403D4039F01D4039B
:201DF00083016901BB03060306035E02D403A90211F8010B89F80000022208F1880017F0F1
:201E1000B9FB0146022208F18A0017F0B3FB0146022208F18C0017F0ADFB0146022208F158
:201E30008E0017F0A7FB99F80010B9F80220490089F800105200B9F80410A9F802204900EA
:201E5000A9F804100222B9F808100901A9F80810014608F1840017F08DFBBAF81E10B8F82A
:201E70000800091A89B247F6FF72914229DAB9F80600B9F80410B9F80820401C49004843E3
:201E9000904201D33B201AE101208AF81C000020A8F81E000120307074E3052208F1610000
:201EB00017F068FB0146022208F1920017F062FBB9F80C10B8F80800091A89B247F6FF72BD
:201ED000914280F25082012189F80A100020A8F81E0078E2A87DC20709D4687B1A210128D4
:201EF000A97302D1FF220D213BE00D210AE200208AF8000008220120687408F1A80408F1F8
:201F1000B00017F037FB0146022208F1B80017F031FB01460822204617F02CFB06460821FF
:201F3000204617F023FB08F19C0404223146204617F020FB0421204617F018FB08F1A0000A
:201F500017F010FB08F1980017F008FBDFF84006018841F080010180687B012807D1FF22E6
:201F70000421404605B0BDE8F04F0FF061B89AF811500F2D18BF142D03D00E2D18BF0C2D90
:201F90000FD19AF81040404611F06EFE0421404610F03EF9012C12BF29468AF81A50FD2123
:201FB000B0E10421AEE10120E873EBE200208AF800008AF8060028700B2101206873002079
:201FD00068709FE101202874DCE2002302F10904CD5CE45C2543CD54541CE45C2540C554DB
:201FF0005B1C082BF2DB9AF80600002846D0404610F07AF9BCE2002302F10907CE5CFF5C42
:202010003E43CE54571CFF5C3E40C6545B1C082BF2DB02206875E87D010703D440F648006F
:20203000A081E08150788106CED520891B2804BF61891B2907D1A089B0F5A47F04BFE18949
:20205000B1F5A47FC0D014215CE19BF80000012811D011F8012B8BF8032008F58970022213
:2020700017F088FA0146022208F58A7017F082FA01208BF800009AF80600002800F0AB8162
:202090009BF8021000292CD140460FF093FB6FE2A87DDFF80045C10609D412218BF80C104A
:2020B000404611F097FF00281BD1207863E2404612F0F6FA002814D120785CE208788BF8A4
:2020D0000B008BE108782070487860709AF8100001280DD19AF811100F39012902D9C91F48
:2020F00002D04FE270734DE2387B40F0010038E205B0BDE8F04F002015F0E4BFA87DDFF860
:202110009444820709D40F218BF80C10404611F061FF0028E7D120782DE208784A7800EB07
:2021300002203082CA78887800EB022070824A79087900EB0220B082CA79887900EB0220A6
:20215000F082087A30768A7A487A00EB022070830A7BC87A00EB0220B0838A7B487B00EB55
:202170000220F0830A7CC87B00EB022030848A7C487C00EB022070840A7DC87C00EB02208D
:20219000B084487D897D00EB0120F084DFF8080401788A0658BF1A2213D508F5AA700490DE
:2021B000708B0390307E0290B8F808000190F08A0090B38A728A318A40460EF077FFA0B1AF
:2021D0001E22A87D410709D40F218BF80C10404611F000FF00284DD12078CCE1404605B04A
:2021F000BDE8F04F0F2114F02FB8708AA9F80400B08AA9F80600F08AA9F80800022089F88A
:2022100000000020A9F80200B8F83400C01DAAF81E00B8F83210B9F80400B0EB510F02BF07
:20223000B9F80600B8F83410884202BFB9F80800B8F83610B0EB111F1DD09AF81000012826
:2022500004BF9AF811100F2907D09AF8150020B10F218AF81A10FE2154E0FC2140460FF0A0
:20227000D7FFF08A0090B38A728A318A98F8060017F070F986E1102144E0E87D10F0090F3B
:2022900003D116218BF80C106FE148780A7800F0070002400A7008787A7B0240FA7210D03C
:2022B000501E02420BD0510704D5B87B10B10421F97204E00220024219D14008FBD1F87A12
:2022D00008B9B97AF972F87A042803D1404611F021F9A083F87A17F039F93871A28BB97BA4
:2022F000012312F03DFE218B814202D208E0F872E5E7A28BB97B3879012312F031FE01465E
:2023100079801721404605B0BDE8F04F0FF080BF48780A78824207D100F007001040087082
:202330002ED0431E18420FD01E221821404613F08BFF98F80610012301221E200BF050FCF7
:20235000387B40F040000CE1F87247F6FF728878C97800EB012038813989B8F80800091AA2
:2023700089B2914201DB282136E00120B871F87A042803D1404611F0CDF8A083F87A0BE07C
:202390009AF81100162806D1BB7A98F806101A4600200BF025FCB87A3871A28BB97B387911
:2023B000012312F0DDFD218B814206D3A28BB97B3879012312F0D4FD014679800121387BA7
:2023D00040F0400038733170DCE0142B04BF9AF80600002806D13D218BF80B1001208BF83C
:2023F0000A00CFE008784A7800EB02206082CA78887800EB0220E0824A79087900EB0220E1
:2024100020828879C97900EB0120A08208F5B07108F5B0708A8AC089B97A904288BF10465F
:20243000042905D140F691229042B8BF4FF42960E28BE0839042B87A14BF0125002504286D
:2024500003D1404611F066F808E008F5B07008F5B0718089CA8A904288BF1046A28BA08374
:2024700008F5B071904208F5B0704A8A008918BF0125904288BF1046228B2083904218BF7D
:202490000125A28BB97BB87A012312F069FD218B814206D3A28BB97BB87A012312F060FD89
:2024B0000146798008F5B07008F5B0724189108A628B814288BF01466183914298F8063071
:2024D00014BF0120002005438A4234490A6802EB4311628B8041121DC00F0A7610B1404621
:2024F00014F000F9009814280ED145B1E08B0090638BA28B218B98F8060017F023F8152176
:2025100040460EF053F933E01DB1387840F008003870397841F02001397033E008780E28F5
:202530000ED00F2809D0122804D014280BD0162811D027E00020307224E00120307321E0C7
:20255000032068751EE0387840F00200387040F01000387016E0387B40F00200387340F045
:20257000100038730EE08BF80C30404611F032FD40B9084800784FF4804105B0BDE8F04FCF
:202590000BF0F6B805B0BDE8F08F00BF4C1D0020524F00206E4F0020144E0020EC1D002018
:2025B0002DE9F84F012014F0EBF8012819D1DFF87046207800210AF0F7FC5FEA000804BF4C
:2025D000002015F07FFD002088F8080008F1040010F012FD05F0BCFC050003D1812016F069
:2025F000ADFF18E301206871DFF838064178491C4170A879DFF8301688F80A00207808706E
:2026100005F5977440200BF073FE2860D8F854104A78D8F85000D1061AD5806D01680A799C
:20263000032A1CBF002015F04DFDD8F85000816D90F87C000A6802F1080601281CBF00206A
:2026500015F040FDD8F85000D0F88410286845E0C16E08680279032A1CBF002015F032FD81
:20267000D8F85000C16E90F898000A6802F1080601281CBF002015F025FDD8F85000DFF826
:20269000AC25D0F8A0102868DFF8A495C16096F826701388032F21D8DFE807F00205101849
:2026B00001F5B06101E001F53471C160B9F80000E087B9F80000A5F8740112E0E387118896
:2026D000A5F87411C16801F5355109E0E3871188A5F87411C16801F6B87101E001F5B061E4
:2026F000C1603078DFF84C95DFF84CB5C0F3801020700622B11C05F5947015F0A3FE0422DF
:2027100006F10E0105F1240015F09CFED9F80000AF7900F10C03042206F10E0103EB471080
:2027300015F090FED9F80000AB7900EB4310032206F11201103015F085FE05F12C07707DB6
:20275000B870022206F1160105F1300015F07AFE022206F1180105F1320015F073FE022276
:2027700006F11A0105F1340015F06CFE38896884022206F11C0105F1360015F063FEB878F7
:2027900079894000B8700901B88879814000B88089B2F8884000F88003046A8C521CDB0B3F
:2027B0005A438A4201D280B230B99BF8000080210AF0DEFF3B2142E105F12E01284615F090
:2027D00083FA0520A881284615F0A6FC052206F11E0105F1610015F035FE96F82300400943
:2027F000387015F055F86882B8F82A10401AA08105F1610196F82300DFF8404400F01F000D
:20281000F873284612F083FED8F854104A78D8F85000D10647BF0021806D0021C06E1C26BA
:202830000268117141F62102A9792068714342520022A97971430144001D4A80A979714356
:202850004250D8F85410DFF8F8034A78D1060DD5DFF8F0138A7851060AD5DFF8EC130A88DB
:2028700041F20A439A4208BFDFF8E003C5F89C01D5F89C11284688472168AB7901F10E02AB
:202890007343D054A9792068714308440021C173DFF8BC03017881B1B88870B90021797398
:2028B0000120288168812846D5F89C1188472168AB7901F10E027343D054A87921687043B8
:2028D00001F10E02125C7A73D8F854104A78D1061CD505F5CB7A9AF8000008B915F0F2FB49
:2028F000A9792068714308449AF800104A1E0274A979206871430844002141742068AA7973
:2029100000F112017243002088522AE0D8F85010236891F8402018440274A9792068714316
:202930000844D8F8501091F841204274D8F850002168AB79403001F1120273434188D15286
:2029500005F5CB710078012200F0030082400A70D8F8502092F84000800814BF01200220BF
:202970000871A979D9F800002268DFF8E8A200EB411302F1140C71434CF80130A97971439F
:202990001144B54A8A61DAF81410097895F806E0CA074CBF102200228B074CBF20230023CB
:2029B0005FEA417C4CBF4FF0400C4FF0000C09074CBF8021002113434CEA030308304FEA40
:2029D0004E1E0B4343F00F0300F80E30D9F80000A97900EB41100B224272D9F80010A879A0
:2029F00001EB401104228A729C4A1378D9F80000A979012B00EB411002D10121C17203E091
:202A1000DAF828104A78C272D9F80000A97900EB41101F220276D9F80010A87901EB40117F
:202A300000224A76A8790BF00BFCA979D9F8002049015050A9794B01D05820B9072128467F
:202A500015F03FF8E7E08648026802EB011016F071FD834AA8791368D9F8001003EB00136E
:202A70000A1D40011350081DAA7952018058F863A87940010958796404219BF800000AF05B
:202A900077FED8F8540042782168D00648BF4FF0020B0BD4A87970430844007C00F00300B3
:202AB000022814BF4FF0040B4FF0060B684BBA881878934410B10AB9F8888344688A00FB57
:202AD0000BF04FF4C872B0FBF2F2521CC5F818B06A6140F6C41CA8792B687043009001F122
:202AF000080ED8680CFB0B0B0098ABEB0202A2F5A8624EF8002001F10800AA797243805870
:202B1000986001F10C02A87970430C31125C02F0EF020A54A8792168704301F10C020C3153
:202B3000125C02F07F020A54A8792168704301F10C020C31125C02F0F00242F002020A54C6
:202B5000A979206871430844417B01F0F00141F0010141732068AA7900F1080172438858FC
:202B7000296808616B69D9F80000A97997F802E05B0000F1140249010CFB0E3303F5F663CE
:202B9000535095F89611042907D1A979490100F11403525802F561625A50A97900EB411069
:202BB000C27C02F0F00242F00402C274FB88D9F80010A879DAF8307001EB4012386843431A
:202BD0006427B3FBF7F30CFB03F0A0F59660D061A87901EB4010C17E01F0F00141F0040158
:202BF000C176A97920684E432968801948600E2128460FF00DFB1B4907200870404615F04F
:202C1000E3FCAA790021404611F002F828681649416116498161BDE8F14F03F05BBD00BF7F
:202C3000221E0020684E0020241E0020141E0020121E0020EC1D00206E4F0020E81D00201F
:202C50002B4401004C1D0020504F0020293D0100784E002050A601005C4D0020734F0020BD
:202C70008C4E00206F4F0020A1580100020480802DE9F04FBA4CADF1240DDFF8E082207871
:202C90000591C90BCF032CD10599A069C90811D20598000938BF0020C0F0C682A07B012897
:202CB00004D14146087808B90CF0C4FE059880F00800B8E288B115F0E9F9071C0DD0F87A68
:202CD00058B9384616F03FF87A68B97A388907F06DF9786808B115F077FE059880F00400C1
:202CF000A1E20DF019F80028069000F099820546012007902878B03800F0F581401E00F02B
:202D1000E8811F3840F07F82A978606900270A290FDC0A2900F0B280002900F0AD81491F7F
:202D300000F09E81491E00F06E81C81E00F05481CDE10B3900F08C80C91E7FD0491E0DD01B
:202D5000481E40F0C481227815F0A0F9002800F05881104604210AF00BFD52E12E4628B162
:202D700043681BB1A88839460A4698476078002861D0B08812F0ECFC051C00F0A881B07A37
:202D900040080FD36B796BB1012B0BD0F068800A08D203F00103A81D3A4619460DF0DCFAC8
:202DB000002843D1207A022802D1B07A00093DD3B6F804806D790C2015F0F6FD06F10809A9
:202DD000061C00F01E81A6F80880B57239463160B9F1000FF77209D04846082115F0E2F943
:202DF000706020B9304615F0EFFD0AE17160A369002B08BFA66102D01A68AAB91E60304647
:202E100015F0A1FF4A462946404607F0CFF86069002800F0F6804368002B00F0F2803946AC
:202E300040460A469847ECE01346E5E7B088032116F07CFB4BE1B08805211CE0002800F065
:202E5000E0804368002B00F0DC806A780221C1E015F06EFD002800F0D480606948B107682D
:202E70003FB12869009069892A7B6B7BE81CB847C7E06889079916F059FBC2E0B9466F7897
:202E9000002F40F09980A9794908C0F0958002A84946082215F0C8FFA88812F059FC061C9A
:202EB00009D1227815F0F2F8002865D0104604210AF05EFC60E06F69002F53D007F1110000
:202ED0004946062215F0D9F9C84600B33846062215F0D3F9B8B9387C07F1110A4F4600F05F
:202EF000010B7F1C504659464A46FFB28AF800700DF032FA10B9002FF3D104E01FB1B8F171
:202F1000010F02D006E0DDF81C804F466F61B8F1010F27D0686978B30746387C062207F136
:202F3000110100F001008DF80E0002A815F08AFA707907F11108012805D106F10C00B11DEE
:202F5000062215F07FFAB01D4146062215F07AFA387C40F0020070710EE0C0465A4F002042
:202F7000E80A00207079B11D062200F001008DF80E0002A815F066FAA8799DF80F10C0F335
:202F9000800008438DF80F00A879000905D39DF80F0040F008008DF80F0002A8294605F042
:202FB000C1F85FEA000903D1A88811F025FF02E0A88813F015FB606918B343680BB3A8887B
:202FD0006A7807999847A87940081AD3606903214A464368A88825E7E978281D0DF111020F
:202FF00001F001010DF0B8F958B99DF81110480005F10C0200EB810025300421C0B208F0BD
:20301000B5FE079F63E0A88813F0EAFA16F08AFA00285CD1E07A012814D0207B01280DD006
:20303000834C3D4614F8010F012803D1284608F015FF27706D1C062DF4DB0CE00FF0C0F9D5
:20305000277308E015F0B5FA394604F120000622E17215F0E9FE14F0D1FA11F061FE36E0EA
:203070006878002833D1E8786A892B7B291D00F001000AF067F82AE0687840BB16F04EFA78
:20309000814616F047FA804616F040FA8DF8100010214A46022008F069FE03201021424659
:2030B00008F064FE0799042004AA08F05FFE9DF81000012803D09DF81000032807D10798F7
:2030D00013F01AFD02460620014608F04FFE079799E02879002840F096806888E9882A8992
:2030F00010F0E6FC8FE02879401E40D0083802D074387BD082E068781A2873D068888046DA
:2031100014F092FD801E18D0401E77D1288901280AD16889032807D1E9688A784046042139
:2031300010F02DFF024600E018226069002865D04368002B62D0042116E029896888079A65
:203150000129804609D16989032906D1E9688F781FB9102110F013FF0246606900284DD0D7
:203170004368002B4AD005214046984746E0297A688805F108060829824633D114F054FDB5
:20319000801E0ED0401E2DD168890421002210F0F6FE0246606928B343681BB368890421A0
:2031B0001FE070881021002210F0E9FE8146504612F0CEFA70B141460F784FB94179079A15
:2031D000871D01F001010846394615F03CF801E00798A073606928B143681BB17088052178
:2031F0004A469847688811F007FE07E06C88204614F01AFD0146204610F096FF297905F124
:20321000080016F0C3F9079838B90A480078FF2806D0069914F0A8FD02E0069814F094FD20
:20323000059880F4004080B209B0BDE8F08FC046070B0020E51200202DE9F843040014D195
:20325000002014F03FFF10E0204610F0C3FE012808D063E08A0740F1578101F0FD010170A7
:203270000020B071204610F0FFFC04F16605687D002853D0697CDFF8CC94022904F1EC07DD
:2032900004F59E7804F5B07604F5C67035D0042947D005295DD0062900F08B800729D3D020
:2032B000092900F0EF800B2900F0C3800C2900F00B810D2900F0D3800E2900F0ED800F2910
:2032D00000F02B81102900F04581112900F05F81122900F01181142900F08A81162900F025
:2032F0005D81172900F07881FC2917D0FD2900F09881FE2900F0A481A2E7297C012909D10E
:2033100099F80300002813D01621204614F0D9FB012004E020460FF05DFF28740020BDE862
:20333000F283297C012940F0A78199F80200002800F0EA800021A971FF22FC2120460DF0F0
:2033500077FEA07904F1B80204F1B00116F0DAF88BE7297C012910D199F8020020B184F8A0
:203370009410002038607860B87A01286AD1FF22062120460DF05CFE77E704F1E706307886
:20339000012808D1204612F0B8FD0128C6D10020B8720120C1E770780028BFD004F1C702CE
:2033B00004F1A00104F1D70016F0A8F8012030705BE7297C012940F0668199F80200002851
:2033D00040D0618CE183204610F04EFC01202870204612F07BF80120A871397A787C01292D
:2033F00000F010000FD148B1002088F80500D8F8001098F8060049080FF054FAA0790021F1
:2034100016F078F80FE048B1D8F80020DFF8380304F5A1735208214615F00EFCA079012223
:20343000002116F063F8002038723873F872B8721BE7287C012806D1F97A012904BFFF22CA
:20345000FC2196D060E020460FF0C4F901289DD10020F87284F894000120287405E7297CF8
:20347000012940F0148199F80200002809D0002184F8941001202870204612F027F8012017
:20349000A87188E0297C012940F0058199F80200D0B3618CE183E5E6287C012840F0FF8068
:2034B000387C022804F1FD0204D1A179002016F019F8D7E6032840F0FB80A1791A2016F017
:2034D00011F800203874CDE6287C012804F20D1140F0F9800B78012B04F5897240F0F9807E
:2034F0004878012807D15388009300201388CA78A17915F0F3FFB5E6297C012940F0F8806D
:2035100099F802000028F6D1298B481E288380B200287FF403AF2221F7E6287C012840F0B8
:20353000EB8098F80910012902D130780F281BE098F80800012826D1002188F80810288D6A
:20355000000900901A20AA8CEB8CA179520815F0C1FF87E6287C012840F0D28098F809103D
:20357000012910D1307810281CBF002014F0AAFD002088F80900288D00090090AA8CEB8C06
:20359000A1797078E2E7287F0028E2D1BCE7297C012940F0B98099F80300F5E7297C0129B4
:2035B00040F0B680017B4A061DD4CA0709D501F0FE0101730123A179707801220AF010FB77
:2035D00050E68A0740F1A98001F0FD0101730123A17901221A20F1E7297C012940F0AA80BB
:2035F000027B510690D5017B01F0BF01017339E6297C012940F0A08001788A067FF52AAE4E
:2036100001F0DF010A0701700AD501F0F7010170F08B0090738BB28B318BA07915F092FF5D
:203630001EE6A97EFF2220460DF002FD14E7FF2220460DF0FDFCACE6002014F043FD6DE60B
:20365000A97E0C2918BF0E29F1D00F2902D01429EDD0F1E7FF22FC2120460DF0E9FCB8F81D
:2036700012000090B8F81030B8F80E20B8F80C10A07915F06FFF51E620460CF073FC2874CE
:20369000E88A28834AE6204610F04AFEF7E7204612F0DEF8F3E720460EF026FEEFE7204665
:2036B0000EF0ECFD2874E88A28830120387435E6288B401E288380B20028F8D1A179222037
:2036D00015F010FF27E70120887020460EF072F8D5E7288B401E288380B20028E7D150886F
:2036F000009022201388CA78A17915F0F7FE12E7204610F0ADFFC2E720460BF047FABEE7FC
:2037100020460BF095FABAE720460FF045FCB6E7162120460AF09CFFB1E7288B401E28833F
:2037300080B20028C3D1A1790123012222200AF057FAF0E61721ECE7142120460DF036F8F6
:203750009DE700BF5C4D0020511701002DE9F04FBB4C0546ADF14C0DA068DFF8E092129053
:20377000B84880460678A878761C002800F06C81B149401F0FF2A82B00F0B880401E4BD070
:20379000401E1BD00A3840F01C82A888ADF80800688960B9ADF80E00A889ADF81000E988CF
:2037B000ADF80A102F89ADF80C70012000E000209F498DF8130002AA0D4602E19D49AA88C6
:2037D000102002AB06F06AF898F80070A668E878BF1C30B90DF10A0010F07CFC7BA3009044
:2037F00007E00DF10A0010F075FCA97800917DA30190F9B23046002213F07FFD04F1380007
:2038100014F0F9F8041C00F0E28120890DF0DAFA204612F02FFEDAE1102006F03FF8C6B291
:2038300098F80010A068002277A3491CC9B213F064FD009698F80010A06800225B46891CAA
:20385000C9B213F05AFDA888824614F05BFF01282CD0C50005EB00152D196C35AF687FB110
:20387000384615F0E7FA10B1384615F0CFFA384615F02CFE384612F0FDFD686812F0FAFDD7
:2038900004F138000768554657B183463889854203D15846394613F011FF3F68002FF5D1E8
:2038B000284612F0B9FB284611F0F2F946B904F1A00015F0ABFAC7480021012213F0DCF911
:2038D000002500956278494610202B4605F0E6FF0095A278494610202B4605F0DFFF98F8F8
:2038F0000060A0682A46F61C12906CE1102005F0D5FF5FFA80FACDF800A098F80010A06806
:2039100000225B46891CC9B213F0F7FC687800283DD104F16C066F8930884FF6FF71814219
:203930001ED13780032015F053FA7060B0B1082101707068A0F80170242015F049FAB06014
:2039500018B9706812F096FD08E070680090AD49B06841F27072012310F08CFF0120307531
:2039700098F80060A768281D10F0B4FB761C0090002299A3F1B2384613F0BFFC95480121E6
:20399000002213F079F904F1A00015F03DFAA278BAF1000F0FD100250095627849461020A8
:2039B0002B4605F07BFF2B460093A2784946102005F074FF0BE1944D1020294605F06EFF04
:2039D00062782946102005F069FF00E14C696E6B20506172616D20557064617465643A2040
:2039F000257300C04C696E6B20506172616D20557064617465204661696C656420307825EB
:203A1000783A20257300C04644657669636520446973636F6E6E65637465642100C046C0FC
:203A30004E756D20436F6E6E733A20256400C04641D80000994E01008D660100B5E50000AD
:203A500008020020881100206878002840F0BF80EB792A7AE97A8DF80930A81D8DF80A205F
:203A700000278DF80F1083468DF80C70AB7A8DF80B7000788DF80E306A7A8DF80800634924
:203A90008DF80D2002AB1A680A6058684860129855A3F1B23A4613F030FC5D480830B0E8FA
:203AB0002C100BA9A1E82C100DC8651C81E80D000BAB1020DFF860A156490095524605F0F6
:203AD000EDFEC0B200287AD1072304F128020093524D01926278102029463B4605F0DEFE2D
:203AF000C0B200286BD11B23009304F184020192627829461020012305F0D0FEC0B2002807
:203B10005DD1474962781020922305F0C7FE00976278494610203B4605F0C0FEC0B2002860
:203B30004DD13B482430B0E80C5004A9A1E80C500DC881E80D00A01C04AB5246354900909E
:203B5000102005F0ABFEC0B2002838D1354B072000900193A278294610203B4605F09EFE4E
:203B7000C0B200282BD1304B1B2000900193A27829461020012305F091FEC0B2F8B92849D0
:203B9000A2781020922305F089FE0097A278494610203B4605F082FE98F80050A468C0B2D6
:203BB00068B9584610F096FAAD1D15A100913A4610A30190E9B2204613F09FFB07E014F048
:203BD0002FFD701CC2B21298F1B214F08EFF13B0BDE8F08F08110020436F6E6E656374657C
:203BF0006420746F20257300496E697469616C697A656400257320416464723A20257300FB
:203C100044657600BD6501003D5C0100D7050020E0A10100899500005D760100B5B90000DA
:203C30001D490100300200208C0200202DE9F84FDFF84444A178FF2904BF002014F042FAED
:203C5000A07814F07DFD044604F1680604F5C9753168086804F1900710B10022E28310E00D
:203C7000B17B002904BFB07E00280AD13978002904BF2878002804D1217F012904BF608C38
:203C9000E0832189E08B4118491C6181204613F03AFF01281EBFDFF8E4030178012904D11E
:203CB00020890022401CE28360814FF6FF78B07E01280DD1B28B6189208915F003FC38B1D9
:203CD000218960894A1C93B298422CD0B08B20E0387801280DD17A886189208915F0F2FB47
:203CF00038B1218960894A1C93B298421BD078880FE02878012816D16A886189208915F09F
:203D1000E1FB80B1218960894A1C93B298420AD0688892B2904206D04044608180B215F01C
:203D3000CDFB4044E083287801280DD120896988401C80B2814207D16A792A710020287024
:203D50001346A17909F04CFF04F59A71087920B120890021401CE183608104F12E07B07E83
:203D700001283ED12289B08B521C92B2904238D1608104F18601204613F0A6FFB08C6189F7
:203D9000608400202077E083E0894118A181B08B218915F093FB8046B988308C728C01FBFC
:203DB0000808F08C8A4204BF3989884202BFB18CFB88994207D000090090B38CA1795208CD
:203DD000002015F087FBB07F3870708CB880B08CF880F08C3881204614F09EF90220B076EF
:203DF00001E0B7F80480E28BDFF89492501C00FB08F040F6C41808FB00F100912368D3F8E9
:203E10000CC06144DFF87CC2D960DCF800E09E499EF800A00B884FEA9A1ABAF1030F15D1DF
:203E300099F80FC05FEACC7E48BF00230ED45B1C1FFA83FCBCF1010F11BFB4F812C004F560
:203E50009A7CBCF806C00CF2DC5C01E0B4F812C00CFB00FC4FF4C87EBCFBFEFCDFF82CA24B
:203E70000CF1010CC4F814C00B8084F820204FF01C0BA379A0610BFB03F3DAF80010226866
:203E9000D2F80CE001F10800C058106101F10803A0790BFB00FC6069AEEB000043F80C0018
:203EB00001F10800A3790BFB03F3C058906001F10C02A0790BFB00F00C31125C02F0F0023A
:203ED00042F002020A54DAF80000A279811C0BFB02F200208852287908B914F0F3F8DAF89D
:203EF0000000A27900F1100128790BFB02F240088854A079DAF800100BFB00F00844002178
:203F100041742879042814D1A079DAF800100BFB00F001F110022B7A125C103142EA830230
:203F30000A54A179DAF800000BFB01F1084420214174DAF80000A27900F112010BFB02F202
:203F500000238B525249A2790968520101F11403D4F814C09B5801F1140E03EB4C034EF8A4
:203F70000230B27E022A0AD1A279520101F114033E789B5808FB063301F11406B35099F8CC
:203F90000F20D3074CD5A2790BFB02F200F1080300F108069B58A3F5A863B3500830A279EB
:203FB00023680BFB02F282589A600098121A1A6101F11402A079400101F11403125802F58D
:203FD000F6621A502879042807D1A079400101F11402125802F561621A5001F11400A27959
:203FF00052018058C4F834012A4ABE88176B3868A57946436420B6FBF0F601F11C036D0178
:2040100008FB06F0A0F596605851A07901EB401021490B78012B0EBF0122916A4A7819E04F
:204030002879A37904280CBF4FF4AA504FF4E66001F114025B01D258101ABA8808FB02F205
:20405000A2F516729042CFD30821204613F039FD01200FE0C272A179DAF800000F4A0BFB66
:2040700001F108442168486007201070204611F0ECFC0020BDE8F28F684E0020784F0020C8
:204090005C4D0020084F0020161E0020E81D0020EC1D002050A60100734F00206F4F002077
:2040B0002DE9F84F040004BF002014F00BF804F1500941F62300D9F800603080002070800C
:2040D00015F0F8F900F57A60B0608220307302207073B0682061207EB0730020F073D9F803
:2040F0000400017D022904BF002013F0EBFFD9F80400007D012802D10020002104E0832815
:204110000CBF0620022020213074717404F1240BD9F80400DFF878834178480615D5D8F826
:20413000340041690A689BF80510501C01EB4101405A7082607DC10604D5E07F40F0400005
:20415000E07702E040F04000607506F15805002028714FF01E0A9BF81A00800000F004003C
:20417000287104F130002861607DC10644D506F130013162D9F8040041788A060BD5617D94
:2041900001F0FE016175407810F0030F03D1E07F00F0FE00E077607D12F074FB0246A2755A
:2041B000521C307CC0F38001002392B200F0030011F02EFBA0831E23A08BE27D00F5FA71CF
:2041D00000F5FA7090FBF3F34A430AFB13006283C0B208B1C0F11E008018A183608380B2AA
:2041F000B168C03001EB8001A9600220E871E07F40F00800E07714E000213162607D40F012
:2042100001006075D9F804104A78510744BF40F002006075607D12F035FBA0750020A86063
:20423000E871A07D217D60F3050106F188002175017006F12807617D4170032181709BF81E
:204250001A10890001F0040141F0030181709BF81B20D20002F00802114381700021C1704C
:204270008160BBF81C00C0F30B00ABF81C00D9F80410CA7D40EA0230ABF81C000022617DBA
:2042900001F0FE01204608F0C3FF40F61200B0830020F083A020706207203870607DC106EB
:2042B0004CBF002002207870E07D788041F62400388100207881618BB06800EB810038612E
:2042D0000021822038750220787594F8210000F03F00B875F975D9F80400807D012818BF06
:2042F000022803D100F07F00401E04E083280CBF06200220202179763876D8F834004169B5
:204310000A689BF80510501C01EB4101405A788300206861D9F80400417811F0030F1BD0CF
:2043300012F0FAFE6861D8F818000078C1074CBF1021002182074CBF2022002243074CBFD8
:204350004023002300074CBF8020002011431943014341F00F01297600206876D9F804004E
:20437000807C00F0030068769BF81A10890001F00401084368769BF81B10C90001F008017A
:2043900041F01001084368764249087838B1697E41F040016976287E00F0FE002876E07FE5
:2043B00012F070FA84F82000204609F081F9E07FC1063AD5D9F8040094F820204178521C0F
:2043D00088074EBFD21E9BF81F008218387EC0F380010023D2B200F0030011F019FAABF8BA
:2043F0000000BBF8000000F59671C1F11E0291FBFAF10AFB012A8BF804A0D9F804104A78B7
:2044100091074CBF00214FF4FA710818ABF80000ABF80200BBF800209BF80400396982180C
:20443000C03201EB8201022001E000210020E961E87604F13000A862D9F804104A78687E63
:20445000510747BF04F1380140F02000124900F0DF00E9626876A17F94F8200060F30501F8
:20447000A17740F60B00B8840020F884F86228700220687094F845006880D9F804004178C8
:20449000880744BF012068800020BDE8F28F00BF50A60100784E0020D04700202DE9F84FFB
:2044B0000E46700688B02AD5DFF854231078002108F07AFD040022D0DFF848130868804726
:2044D000054614F09BFB012804D014F065FA6168884203D140F2014014F0E8FF0020207210
:2044F000201D0EF089FDC8490A6828469047204614F06AF8FF22432120460FF089FBF007F2
:204510000BD514F049FA28B100218160BF48006800B1804786F001006FE1B00710D500201F
:2045300006900021049000230290009005910393019101223C2014F0B5FF86F002005CE131
:204550001E277007DFF8C88240F1A080002007908346B0480078002108F026FDAE490446B0
:204570008878FF2804BF002013F0ACFDA07A14F0E7F80546606D807A95F82E91022818BF19
:20459000032805F5947A06D108F10D0014F086FF08B908F1070B5146484614F07BFF88B3C8
:2045B000606D807C002818BF012804D14146504612F035FC04E05246494640460EF00CFA40
:2045D000FF283ED007FB00F908EB090706225146F81D13F037FF18F8090040F00209F81D22
:2045F00007900622606DC17A01F0010185F82E1107F1010A606D00F10C0105F5947013F066
:2046100021FF1EE05146484613F0F4FFC8B15246494640460EF0E0F9FF2812D0474308EBCE
:20463000070404F10D0014F039FF40B904F10D0014F034FF002804BF607F012801D149F0F1
:20465000020905F12C004B46017806914189090905916A8C079904920122C0880291400898
:204670000390CDF804B0CDF800A00020A97914F019FFD5F89C0169498842A8790CBF002168
:2046900001210CF04FF886F00400B6E0300610D50020069000210490002302900090059134
:2046B0000393019101223B2014F0FCFE86F08000A3E0F0045BD55A48046808F10D0014F091
:2046D000EDFE002842D108F1070108F10D0014F0DDFE3BE0606D4178480704F13E0523D59E
:2046F000287802281EBF0328687801281CD1697804F1380240460EF06FF9FF2814D0784320
:2047100008EB000909F10D0014F0C8FE60B909F1070109F10D0014F0B9FE062209F10701B5
:2047300004F1380013F08EFE2878022818BF03280BD108F10D0014F0B1FE30B9062208F142
:20475000070104F1300013F07DFE2468002CC1D134484268344800784FF4805110F072FEB6
:2047700010B18E200CF026FC86F4805045E0B00505D514F0C6F92D4901200860FEE7710581
:2047900004D50AF05EF986F4806036E0700405D581200CF00FFC86F480402EE0B0042BD57D
:2047B000234C206810B1002013F08CFC4FF0FF30206000201F4C0DF0C1F9216851F8202F35
:2047D000684690471C48016B426B00910192C06A24681A491A4A02910392ADF810006B4698
:2047F0002568184A18491948A8471949086004F0ABFA86F4005000E0002009B0BDE8F08FFF
:20481000221E0020C80B0020CC0B0020204F0020E0190020241E0020684E0020293D0100F7
:20483000FC1D0020784E00206E4F0020FC002043044F0020F04E0020900E0020898901006B
:2048500099890100F81C0020C811002088490020EC4E00202DE9FC47B14CB24D2678DFF8E3
:20487000C882B24FB249002E4FF4A05900F01781072E14D0092E18BF0A2E00F012810B2ED5
:2048900018BF0C2E00F021810D2E00F0E480112E54D1A84A1078002108F086FB002871D0F5
:2048B000C5F80080426D5378016DA34CDFF88C82DB0657D50B4641F2044EB3F802C0F44566
:2048D0001FBF5E8B7645B3F832A0F24506D041F20A4EF4451CBF7645F24502D1A7F800E0D9
:2048F00048E04FF0000E40F601044FF4806A182606FB0EFC9E1C36F80C603E8016F47F4F98
:20491000F5D0022E40F20681B6EB0A0617D0B6EB0A0611D04FF44064361B01D0B61E012EA3
:2049300040F2DD80361FFBD040F2FA34361BE9D0761E00F0E680F61E00F0D980A7E01E88DA
:20495000A64240F0CC800EF1010EBEF1020FCEDD58E0981C20F80C9011E0C96E0A68002010
:2049700010710CE0488E388041F20441401A01D0801F01D12C6045E041F206403880C5F879
:2049900000803FE06E488078FF2810D0C5F800806C4A12681C214143931C5B5A3B8013F45F
:2049B0007F4FF5D040F204441B1B012B664876D94FF47F741B1B15D00A3B012B17D940F693
:2049D000F6341B1B032B84BF5B1F012B12D99B1E012B64D940F2FD341B1B0BD05B1E012B2A
:2049F00005D909E0921C41F20143535202E0921C22F80190286005E0002013F063FB852048
:204A100014F09CFDBDE8FC4750480078012108F0AFBE4F4C4F4A25684F4800680023CDE9D1
:204A3000002355F8089F4D4B0222C8474C49088035E0092E4ED14B490A685089002849D0DC
:204A5000494908780FF03CF90021002014F01AFD0020207023E04888388002280DD940F227
:204A70000442801A1BD040F6FC72801A05D0083815D04FF47F72801A2CD1887B801CC2B245
:204A9000B52AA8BF662088730020488007E0002013F018FB8420BDE8F64714F04FBDBDE8FF
:204AB000F3874888388010F47F4FFAD040F20442801AF4D040F6FC72801ABAD00838EED0AC
:204AD0004FF47F72801AA4D004E04888388010F47F4FFAD0002013F0F5FA8520DBE7807B08
:204AF000012818BF042801D0A7F8009047E7807B01287FF42EAF9A1C41F2024122F80C1076
:204B10003DE75078C2067FF528AF886D016800220A7134E7002013F0D5FA8320BBE700BF7A
:204B30006F4F0020204F00206F8D0100504F00201C1D0020221E0020B1250000696D0000D7
:204B5000684E0020E81D0020815A00006E4F0020F04E002002000080EC4E0020B94F01004F
:204B7000424F0020F41D0020714F0020BB482DE9F84F0025BA4CB849056094F8E2000028DC
:204B900000F06581012800F02F81B64E02283CD0032840F05C8151F8250CD4F8B8100029BD
:204BB000A0F5C060C4F8D400B8BF49420028B8BF4042814226DA4FF08057D7F8A401456883
:204BD000B4F8BC0030214FF47F42082300903046A847D7F8A4014568B4F8C00004214FF4F3
:204BF000F802122300903046A847D7F8A401B4F8D070456820214FF440620A233046009714
:204C1000A847012584F8D8501CE151F8258C13F078FF2F4600B901273946934F38680028DB
:204C3000FCD0B146012609F10409D9F82CA03E6009B113F06CFFCAF30720C4F8BC0013F0B1
:204C500060FFAA4600B9B2463B68002BFCD0D9F800B0BAF1000F3E6001D013F058FFCBF3E8
:204C70008440C4F8C00013F04CFFAA4600B9B2463B68002BFCD0D9F81C90BAF1000F3E6086
:204C900001D013F044FFC9F38120C4F8D000B8F5C061C4F8B81000F09C8094F8D80068B921
:204CB000C4F8D410D4F8C000C4F8C800D4F8BC70C4F8C470D4F8D030C4F8CC30D4F8D40028
:204CD000D4F8BC30002854BF02226FF0010204F1C8010F6800EB40008018421000EB927212
:204CF00007EBA2000860D4F8C810C4F8C43000291CDD1E293CDDD4F8CC0030B93429B4BF81
:204D100015391E21C4F8C81025E02A29BABFD4F8C8000B381E20C4F8C800D4F8C4003F2801
:204D3000B4BF401C3F20C4F8C4001FE0D4F8CC00032812D011F10B0FC6BFD4F8C8000B30A1
:204D5000301CC4F8C800D4F8C4000028C4BF401E051CC4F8C450032508E011F1150FC6BF2E
:204D7000D4F8C8001530301CC4F8C800C4F8CC504FF08057D7F8A401B4F8C43030214FF4E4
:204D90007F424568374800930823A847D7F8A40104214FF400321123456832480096A8477B
:204DB000B4F8C860D7F8A40104214FF4F802122345682C480096A847D7F8A40120214FF466
:204DD00040620A23B4F8CC60456826480096A84701E084F8D85040F2FF50404502D8801C7B
:204DF00040452FD2082030E051F8251C1F4F4BF2F5204843060A3868C0F3814001280CD1E6
:204E10001B4800680068804710F03EFE13F085FE3111C010484306EBE03694F8E50030B9C8
:204E30001448006820F07F403618760801E084F8E5501148310C0660012741600F4D876069
:204E5000287808B90B2000E0052084F8E40004F05DFCBDE8F88FC0462D400C402C500C4051
:204E7000D409002000A00C4000800C40B43F0050EC010010102009403C600C40B5A4010072
:204E90002DE9FC47C1480278112A47D1C04B1878002108F089F804000AD1002013F012F991
:204EB000002013F00FF9BDE8F647FF2014F046BB04F14C0898F8000008B90121E172451C41
:204ED00088F80050E9B2E07DD8F80490814209F1400A24D299F80E00401C89F80E00D8F83F
:204EF00008104A7AD9F80810520802F0010282F00102101889F80E00A08B01EB8001C9F809
:204F10000810627DD30609D5628B98F8003000FB1320C03001EB8001CAF8201033E104F1A0
:204F3000280609F174074ED1A07F3875E17F7975D8F808205278930710D5E27FD30604D531
:204F5000C01E387501F0EF0179750020386089F873000022797D01F0FE010EE1900607D4D3
:204F7000F08B00B1F07EF875F08B00B1306AF861D8F808004178C8070BD5F18B00291CBF3B
:204F9000306A002805D0F861B07E884238BF0146F975E07FC1060CD5D9F83800317800EBC9
:204FB0008100C9F83800A18CC03100EB8100022101E000200021386089F873100022E17F7A
:204FD00001F0FC01D9E0D8F808104978CA0716D5787D397D00F0F700891E01F03F018207C2
:204FF0005CBF891D40F00200420644BF491E00F0BF00787539750020F861F875C3E0A28CFB
:205010002D1AD9F838008907EDB200EB820075D5012D41D1C9F83800A07F00F03F00A077AC
:205030003875801EE17F7975387501F0F7017975D8F8082053785A0704D5801F387501F009
:20505000FD01797500233A7DF17E9AF8000002F03F028A18521CC0F3800192B200F00300CB
:2050700010F0D6FB00F5FA70A0841E21A08C90FBF1F18AB2797D01F0FE01204608F0C8F8B4
:20509000002089F87300F08B00B1F07EF875F08B00B1306AF86176E0022DC9F8380026D151
:2050B000E07FC10706D5387D811F3975787D00F0FE00787500233A7DF17E9AF8000002F03E
:2050D0003F028A18521CC0F3800192B200F0030010F09EFB00F5FA70A0840022797D01F0DF
:2050F000FE01204608F094F8707FAAF81A00707F401C451BE8B2012812DD07E0C9F83800CF
:20511000E17F707F451BCA06E8B209D5A28CD9F83810C03201EB82013960022189F8731020
:2051300088B3F969F27EE37FA57F1144F96159084FEA410AD8F8081049784A0748BF2AF01D
:20515000020A890748BF2AF0080A012807D1307FF8752AF0100A0020386089F873005046DD
:2051700011F090FB05F0C00500F03F0005433D7587F815A000220AF0FC01204602B0BDE8A6
:20519000F04708F045B8BDE8F38700BF6F4F0020221E00202DE9F04F09AFADF13C0D08902B
:2051B0000A92388809911E46ADF81800101C08BF002000F06C81017800274FF0010B401C91
:2051D0004FF0FF39B846DA460A9058E1252940F04D810178401C0A902D2918BFADF8068044
:2051F00004D10178ADF806B0401C0A9030291CBF4246434604D10178401C5A465B460A9036
:205210002A29CDF800804D4617D1049330680A9BCDF80890C01C20F00300001D306050F856
:20523000044C1978002C009403F101000A9018D5ADF806A06442009413E044460AE06000F5
:2052500000EBC4004018A0F130040A9801780094401C0A90302901DB3A29F0DBCDF808900D
:2052700004932E2929D10178401C2A290A9011D13168CDF80880C91C21F00301091D3160FB
:2052900051F8045C002D48BF454601782B46401C0A9011E0454643460AE0680000EBC500AF
:2052B0004018A0F130050A9801782B46401C0A90302901DB3A29F0DB02930AB1224604928D
:2052D0006C2904D04C2918BFADF8048004D10178ADF804A0401C0A900BA8CDF80C800FAB95
:2052F00007906429059379D0692977D0BDF818C0752965D0782961D06F295DD0702946D01A
:20531000632936D073291AD00A98401E0A900998012812D961490C68B5F1FF3F03D0A84257
:2053300088BF6D1C00D8099D029508A80AA932466B46A0473F18039865E0454617E03068B4
:20535000C01C20F00300001D306050F8040CBCF1010F014608B94FA00146079113F018FAA1
:205370000390B5F1FF3F4FD0A8424DD9039528464AE03068C01C20F00300001D306010F80B
:20539000040C8DF82C005D46039558463CE0082035680490E81C20F00300001D306050F8E2
:2053B000041C082210230FA80CF0DEFC401E079040210170079823E0082302E0102300E04A
:2053D0000A233068C01C20F00300001D306050F8041CAA42BCBF2A1C04920DE03068C01C50
:2053F00020F00300001D306050F8041CAA42BCBF2A1C04926FF009030FA80CF0B5FC0790CC
:205410000599081A0390009C241ABDF8065000945DB906E008A8202109AA11F0C2FF7F1CB3
:20543000009C641E0094F5D50398401EB0F1FF3F03900FD1BDF8060001281CD10098401ECE
:20545000009018D408A8202109AA11F0AAFF00987F1CF4E70798017809AA08A811F0A1FF48
:205470000798401C079003987F1CDEE708A809AA11F097FF7F1C0A980178401C0A900029C0
:205490007FF4A4AE089808B14146017038460FB0BDE8F08F286E756C6C2900C024A60100EE
:2054B0002DE9F84306460D46707801071DD4D6F80310B54821F07F41203981423FBFD6F874
:2054D000061021F07F412039814228BF112033D2B01DF11C88425FD3B07A002818BF012874
:2054F00003D0022818BF032856D1B07C002818BF012803D0022818BF03284DD1307D01282F
:2055100018BF022803D0832818BF032844D1707A10F0070070723FD03078012107F044FD01
:2055300004000AD100200FF049FF044613F072FC844214BF07200D2024E104F154020020FD
:2055500016606072207A012808BF0C20F4D00021E17500200121737A01FA00F73B4208D08C
:20557000E37D5B1CE375DBB2012B04BF00F125032376401C0328EEDB7078C10618D5317D24
:20559000012909D1102810D012280CD0132804D0152804D01D2804D09FE0002006E00420E7
:2055B00004E0012002E0022000E00320A0735EE0FF20A073307D02281EBF717801F00300BB
:2055D0000328E9D00B07E7D408B18806E4D4480707D516F10C00DFD0F07A002818BF01288C
:2055F0007BD100206075E077707810F0030F27D1207D00F03F0020757078810605D45168AF
:20561000002904BF9068002801D018216175707881060DD4307D832818BF032804D11820D7
:2056300060750120E07703E0607D40F0010060757078410717D5E07F40F00200E07712E051
:20565000217DC0074CBF0120022001F03F0141EA80111820607521750920E0777078410747
:2056700044BF0B21E177207D00F0C000A07796F913007F2806BF454800780EF09DFA04F192
:205690002907387045B14248416B48693978026801EB4101505C2870B07ADFF8F880DFF868
:2056B000F8903E4D002818BF012809D17875B07AC10758BFC8460622414604F130002FE0DE
:2056D00005F10D0013F0EAFEB8B1B07AC10754BF4946414612F08EFF08B9122052E0B07A6A
:2056F000C10754BF49464146062204F1300012F0A9FEB07A00F0010006E00622E91D04F18F
:20571000300012F09FFE03207875B07A00F001002870B17AC80758BFC84606224146681C95
:2057300012F090FE7078410729D5B07A022818BF03281BD1F17A06F10C0201F00101284688
:205750000DF04AF9FF2811D01E214843054405F10D0013F0A3FE48B9E91D05F10D0013F02A
:2057700095FE0120B8750622E91D04E0F07AB875062206F10C0104F1380012F063FE0120B2
:2057900060720020BDE8F283E0FFFF00714F002050A60100344E00202C4E0020E0190020E3
:2057B0002DE9FE4F0F469E4C0168E16241688068E0609C48A16080479B48E16A0160A16876
:2057D000DFF884B24160E168DFF8788281609749002FA246C1606ED03D68E8788DF8080028
:2057F00028798DF8090002A813F048FEA86808B18F490160E86808B18E4901608E4C2878BA
:20581000207068786070A878BE68A0703178E1707368636072696261B168A160F168E160F8
:2058300031692A6A21617B68A2632E69E6621868A06168692063A8696063786886681EB993
:20585000002012F03FFC00E026627868C06818B9002012F037FC00E060627868006918B989
:20587000002012F02FFC00E0A0627868406818B9002012F027FC00E0E0612869E062F868F7
:2058900081680E6806B96E4E6C494FF001094E60C66881F801902EB9002012F013FCF868C2
:2058B000454601E045462E6000685C46FE68A0617068E06106E0002012F004FC4FF0010978
:2058D0005C464546286861494668621C04F114035020B04710B1286880688047DAF80800D8
:2058F00080475C4F0026834669467E7058483E7004222061304611F00FF80098B0F5801F4B
:205910000CD020B911F0C6FB05F0A4FA08E00FF0BFFE12F033FF0420788001E011F0BAFBE2
:205930004D4FB0462868C7F808808069A660804778604A48468080F80090142013F034F89D
:20595000FF211422A06213F06FFAE01CFF21022213F06AFA142013F027F841490860086814
:205970001422314613F060FA3046FBF749F9484610F098F93B480188FF2906D10221018095
:205990007822001D314613F04FFA032013F072FD042013F06BFD052013F064FD062013F0A7
:2059B0005DFD07200DF058FB2F4E0820307006F12C0013F0F9F83178062010F02BFE0FF0B3
:2059D000AFF9263605200621324612F0A7FA38B14046C0F10501401C06F8011B0628F8DBAF
:2059F0002F68224909200DF10A0201AB7D68087010204146A847A06ADAF80C10E2690A273F
:205A10000A309DF80A307F1E00F8013BF9D1921E5846E261884702F02DFEBDE8FE8FC0461D
:205A3000C00B002041490010F8440020BC9501007970010095830100900E002040120020F0
:205A5000771D0100F0120020D00F00200D7901000D840100EC120020941D0020E81200205E
:205A7000081E0020EC0C0020E80A0020271E0020A3488078FF2800D170472DE9F84F12F050
:205A90005FFE054605F217100178012908BF417800F0A98005F17400817B022903D105F199
:205AB00074020020907305F59274E18911B1207B07F05EFE6889DFF84CC2DFF84C922881EF
:205AD00005F58D779CF80A009CF807209CF80C109CF80B30B7F800E000EB020888449844B4
:205AF0009CF80D309844C644A7F800E0BB88B7F802E05B1CBB808644A7F802E04FF01C0E26
:205B10002368E3B1D9F8006095F806B006F10E0A0EFB0BFB0E361AF80BA033F81AB0C344C7
:205B300023F81AB095F806A00EFB0AFA16F80A6003EB4606B6F84AA08244A6F84AA0002A6E
:205B500004BF9CF80B20002A05D1002904BF9CF80D10002926D02989E88941180026A9812B
:205B70002E74287F012804BF698CE9839CF8010068B1012105F1740229779078002804BFB0
:205B9000917B002903D1107F08B9698CE983207D002832D0022804BF9CF80B00002827D1C8
:205BB000002129E0E98340B1002028740126287F012806D1698CE98303E0F888401C02267C
:205BD000F880A8892989814206D08842CED2081A41F2AB029042C9DA287C08B1052901D084
:205BF000082100E03E212846BDE8F44F11F069BF9CF8090008B10221217544489CF80F2050
:205C100001682868D30709D5DCF81020C26001F11400A97949010022425011E001F114027E
:205C3000A979490152582261D9F80010AB7901F108020EFB03F3D158C1600020E883287747
:205C5000334841690A78900703D59CF80E00802800D1812005F1740A8AF800002846FDF70A
:205C7000EBFA012849D0012128460BF08DFB284611F0FFFCFDF7DAFF01283ED000F02AFD55
:205C9000DFF89090D9F80000B8B3B9F80400AA7990421CBF4FF6FD7188422ED11E48007AE0
:205CB00012F08AFE040028D02670A879608095F83900207195F8960160719AF90000A071C7
:205CD000A4F808807888608112F066FE050004D1FF2020734FF0FF3008E02878207313F031
:205CF000E9FB0146A86813F0B5FB800820612046D9F80010BDE8F44F0847BDE8F18F00BF3B
:205D1000684E00205C4D0020E81D0020EC1D002050A60100C01D0020041200202DE9F84FFF
:205D3000DFF898920F460446F80B80F0FD809E4EDFF86882B80F80F0AE80B80880F0A2805F
:205D50003809C0F02381082012F000FF002840F09480802012F0FAFE002840F08E8068465B
:205D700009F0EEF9012803D10098002800F0858000250124E8B212F0BBFC48B1837A3BB102
:205D9000847290F9090004FA00F0C0B210F0DAFB6D1C032DEED345460320287405F1AC00D0
:205DB00012F0FAFF7E480023016803607D4950F8082C98461A4640F8088C05F1340012F0AB
:205DD000FFFF404607F093FD3068006B8047A968401A010BA869C1F1FF3282422CBF084478
:205DF0004FF0FF30A861287F20B1E868A969B1EBC02F1ED911F008FF414600B12146081CF5
:205E100014D06A4840F60901018041464180427B64F303024273027B61F303020273416019
:205E300012F05EFD418811F4406FFBD02C774146A9610FF047FE5E484446414604600220F8
:205E500011F072FC022010F049FB112007F050FD287818B96868383012F0C4FF5548007865
:205E700010B90E2007F044FD687F18B16C77052010F034FB504868612C740CF09DFF27F04C
:205E9000080783E005F082FE45467435286808B927F002077AE012F089FFB3468246DBF8EE
:205EB0005400016804208847D8B1207CC8B1454608352868A8B10646DBF80000E568006BFC
:205ED0008047801BE060000BE060A84202D240194008E06040F6C41181422CBFB0F5FA7F4F
:205EF000E160504613F0B2FA10F07AF890B1A56920466FF4807100224FF00073A847464642
:205F100006F16C052868002808BF47F0020701D00CF052FF2046646900214FF080630A4666
:205F3000A04727F0005731E012F040FF49460E6846B306F1280106C90A234FF0E0450B40E1
:205F5000154008BF002B1DD106F1280191E8300006F1280393E8060006F12803AA43A1439D
:205F700083E8060013F072FAB16869B1002D08BF002C09D030692246B6F93C10B4682B467C
:205F9000A04701E013F062FA27F4804727B148463946503012F032FFBDE8F88F18130020D9
:205FB00014100440B53301008C010010381D0020000004605EA50100E9CE00009813002084
:205FD0002DE9FC47040045D0DFF8289299F80000092818BF0A2804D00B281CBF0C280D2898
:205FF00001D1212003E1A078002106F0DDFF050008BF4220F6D0A0787F49087005F14806FF
:20601000F068417801F01201022902BF706900280C2012D0687AE8B1A97B012904D1B4F816
:20603000030008B1812815DA6078402812DA284609F04FFFB06808B90720D8E0B46105F158
:206050002207A87B00281CBF0128042813D16B48007808B91220CAE069494A78824208BFE1
:206070000920F8D07A7F05F13801802005F0A2F908B10B20BBE0607808B91120B7E020784F
:20609000DFF880A1012878D1287A0021012829734FF00A0811D19AF80000402110F07CF963
:2060B000B4F8030008FB00F1402011F0DFFB010015D1B1696079487198E001202872E972D1
:2060D000697308F015F968604F494161F0684178C80605D5284601F053F901000BD086E026
:2060F0000020388012F040FC85F821002846FDF7D7FF01007BD1F0684178C8071CD505F190
:206110004207B98800291CBF3068002814D03A788A4211D20F2011F0F1FF68B1F0680178D2
:206130008DF80010B888ADF801000F2039788DF80310694611F0B8FD99F80010002955D107
:20615000324A107800281EBFF168487810F0030F1CBF2F4811F016FA112089F800000120C5
:206170002872B4F8030008FB00F1402011F07EFB01003CD100F0AEFA38E0287A002836D06A
:206190002449254E0868804704469AF80000402110F002F90020287212F030FD012804D0BA
:2061B00012F0FAFB6968884217D11C4A1C481368006853F8385F0021A84740F2014013F040
:2061D00075F918491848086001219AF8000007F0CFFA31682046884708E0284610F0C8FFB9
:2061F000316820468847284612F0EEF90020BDE8F68700BF6F4F0020231E00207B4F002040
:20621000684E00206E4F002085710000784E0020CC470020C80B0020CC0B0020F04E002064
:20623000EC4E0020204F0020696D00002DE9F04F8246DAF800600C465FEA0208ADF11C0DD4
:2062500014BF00214FF0FF3106F14800834612F0D0FA002818BF0B2040F00D81002588481A
:20627000F460B8F1010F057007D06570022010F0E3FB062010F0E0FB01E001206070207875
:20629000012840F2AB80801E012868D9801E012833D9801E012800F2DF8012F087FD069059
:2062B0004FF0805000F5EE77D0F8DC01A378466A009321782846062908BF01200190012092
:2062D0000290A068228AE1686368B0478146069813F0BCF8B9F1000F40F0C080B8F1000F60
:2062F00002D012F05BF802E0504610F053FD002800F0A4803868806A2AE012F057FD0690E3
:206310004FF0805000F5EE77D0F8DC01012306680093A168A27860682478AC46042C08BFCA
:206330009C466346B0478146069813F08FF8B9F1000F40F09380B8F1000F02D012F02EF82E
:2063500002E0504610F026FD002877D03868406880474A49C1F8B0510D6081467EE012F033
:2063700025FD06904FF0805000F5EE76D0F8DC01E38A87690093E0680190208B0290A0782A
:206390000390207D04900121059122782846022A08BF081CE1786268A368B84781460698C0
:2063B00013F054F8B9F1000F58D1B8F1000F02D011F0F4FF02E0504610F0ECFC00283DD089
:2063D0003068006A80475FEA000947D13068C569A168E28A2369E078A847BEE712F0E6FCE3
:2063F00006904FF0805000F5EE76D0F8DC01E38AC7680093E0680190208B0290A0780390FA
:20641000207D2946049001200590257805B9014608466268A368E178B8478146069813F091
:2064300015F8B9F1000F19D1B8F1000F02D011F0B5FF02E0504610F0ADFC08B914201AE04D
:206450003068406980475FEA000907D1306802692169E078904780E74FF0FF39B8F1010FA7
:2064700005D0022010F03AF8062010F037F8584612F0B8FC484607B0BDE8F08F50450240FA
:20649000191E00202DE9F24F054684B02868D0F80490D9F8080012F0D5FF002805F59A7BED
:2064B00040F0078129680498096912F0D3FF05F1820680463078002805F12E0440F6C41A51
:2064D00000F0898070882989401E80B212F0F6FF3178074602290CBFBBF83000A0887843D0
:2064F00000902868016900980AFB0011049812F0A9FF002869D07F1C03973078009F022807
:206510000CBFBBF83000A088C7190398029000210AFB07F00090019128680169009841185E
:20653000049812F08FFF90B10098A8EB000830890AFB00F2B8FBF2F102FB1188B8F1000F17
:2065500018BF491C484301900398091802912989029841186981F1880198CF19C719307873
:20657000012849D105F18601284611F0ADFB70896989688400202877E883E8894118A9813F
:206590003289A188B0898A4204BF2189884202BF7189E388994207D0000900907389A9793C
:2065B0005208002012F096FFA088ABF83000307920703089A0807089E080B089208128460C
:2065D00011F0AAFD0220307016E0307801281CBF002011F077FDA0880AFB00F0B8FBF0F753
:2065F00000FB1788B8F1000F288918BF7F1C38186881BFB2A08847432968344A08690AFB35
:206610000700C9F808000B78802B10D1C860D2F83080A388D8F8000043436420B3FBF0F353
:20663000D9F814000AFB03F3A3F5966343610B78402B36D1AF614FF4C873688A4743B7FB84
:20665000F3F0401C6861D9F80830181AC9F808006B69DBF8000000EB4300D9F8143058617B
:206670001B4833780068022B0CD1AB795B0100F1140656F8038026780AFB068800F11406F2
:2066900046F80380AB79126B00EB4316A388106843436420B3FBF0F30AFB03F0A0F5966083
:2066B000F061D9F808008860E07AA07228460FF0CCF96989A88912F001FFE989814238BFC9
:2066D0000120ABF82E0005B0BDE8F08F50A60100EC1D00202DE9F84F874E706884B00090F1
:2066F00020B905B0BDE8F04F12F0A8BE0178DFF80C92DFF80C82834FDFF80CB201291CBFF1
:206710000229042941F64C5A04D0402918BF80296FD0E8E012F072FA0028FAD00098007800
:2067300004F004FB054612F0D2F904469BF80100002840D000F018FC12F002F8029001682D
:2067500000914968019194B1009928460BF002FE02280CD029780129DBD118B912F0AAFE16
:206770005044A0600120B07011203870B5E00098017880290CD108223A70019898F8001022
:20679000406901291ABFD9F828100A7801220BE007203870019898F80010406901290EBFFC
